:100000000C943E030C9476030C9476030C947603C4
:100010000C9476030C9476030C9476030C9476037C
:100020000C9476030C9476030C9476030C9472195A
:100030000C942E190C948C1A0C9476030C94760361
:100040000C9476030C9476030C9476030C943F1A6C
:100050000C9476030C9476030C9476030C9476033C
:100060000C9476030C9476030C9476030C9476032C
:100070000C947603000B000B300B300BC90B220DD8
:10008000220D220DE70B5A0C6D0C6D0C55126B12E4
:1000900072128F148F14AA12BB12CE120E131313E6
:1000A0003B135F1395139813A413AF13C7130214D4
:1000B00016143F14641438175F1710195F171019BE
:1000C000AB17CE171019CB18DB18FD377A585A002A
:1000D0000004E6D6B4460200210116000000742F89
:1000E000E5A3E004C901685D003D888986D3DC0A88
:1000F000E842C324925842588FD8E75CA0D2616E80
:1001000026E888019A676C7887BC8D3709EA0E1457
:1001100059A53C798586633FDCC445A3F020FF20C8
:10012000B3687235CC77FE57EDF5D44ED910B324B1
:1001300088B68C7499D1CA132E83A6FB9FB5BBCC0D
:1001400075FFC5D6994EE3CF8F86533FFDC1B59B52
:100150004499A932F3D15AEE0FDD893E9F7569EBC0
:10016000B62CF3677C16F0F708B817CBB892D1D647
:100170003F2F9F88476F16F1B728D6FC82D6C762FB
:100180008E5B88176E0A82C97F11CC6638E479F8D5
:1001900079398F7EE8092E66263BE605B941B3A181
:1001A000EEE34F45949DC9FF8B8FD15E12AC2518AD
:1001B000C6AE2CCD666B3D7BFC8ACC73E88F12A853
:1001C000DDFAC3AC47A20AE94052D91AB517009725
:1001D0005E32EB5F020C25D2720E140BB095BBFFA2
:1001E000C6E53A21270EB1099A80F793BFA2880786
:1001F0006542D282E6750C866B10947A0B74F1A777
:1002000002FC8A489B34E0721F189DC5413E81FD67
:10021000AE73D997DC10F6716F3CCB9C875460109D
:10022000504E263CF2564D49C94E83066464B16B6C
:10023000B14BD37B734EEDF768BBF5BA93F732261B
:10024000BC56C8AA47936EC799B04C2D77A0B0662C
:100250000000B668727AE197AD5A00018403CA09BA
:1002600000002ECDF517B1C467FB020000000004AA
:10027000595A05010980A101850319012AB7001502
:100280000126B700950175108100C0050C0901A178
:1002900001850419012AA002150126A00295017505
:1002A000108100C00660FF0961A1010962150026E6
:1002B000FF009520750881020963150026FF00954F
:1002C0002075089102C005010906A101050719E082
:1002D00029E715002501950875018102950175082A
:1002E00081010507190029FF150026FF00950675F5
:1002F00008810005081901290595057501910295E8
:100300000175039101C009025B00030100A0FA0915
:100310000400000103010100092111010001224034
:100320000007058103080001090401000203000021
:10033000000921110100012222000705820320008B
:100340000107050303200001090402000103000066
:100350000009211101000122320007058403200059
:100360000112010002000000083412785601000159
:100370000203011C037600690061006C003A00660C
:100380000036003400630032006200330063000076
:10039000000A03710073003100330000001803717C
:1003A000007500610072006B002E0077006F007214
:1003B000006B007300000004030904290014001AF4
:1003C000000800150017001C0018000C0012001394
:1003D000002A002B0004001600070009000A000B89
:1003E000000D000E000F0033004C00E1001D001B4B
:1003F0000006001900050011001000360037003813
:10040000002800E000E300E20000002C002C0000C7
:10041000000000E600E700E400E500010001000143
:1004200000010001000100010001000100010001C4
:1004300000010001000100010001000100010001B4
:1004400000010001000100010001000100010001A4
:100450000001000100010001000100010001000194
:100460000001000100010001000000010001000086
:100470000000000100010001000100010001000175
:100480000001000100010001000100010001000164
:100490000001000100010001000100010001000154
:1004A0000001000100010001000100010001000144
:1004B0000001000100010001000100010001000134
:1004C0000001000100010001000000010001000026
:1004D0000000000100010001000100010001000115
:1004E0000001000100010001000100010001000104
:1004F00000010001000100010001000100010001F4
:1005000000010001000100010001000100010001E3
:1005100000010001000100010001000100010001D3
:1005200000010001000100010000000100010000C5
:10053000000000010001000100010001000100C7EE
:1005400002001C331C000002000200C302001C3326
:100550001C000003000100C802001C331C00000442
:10056000000200AD02001C331C791B05000100C90C
:1005700002001C331C000006000200AF02001C3306
:100580001C000007000200C502001C331C0000080C
:10059000000100CA02001C331C000012000200CB44
:1005A00002001C331C000013000200CD02001C33AB
:1005B0001C000014000100CF02001C331C000015B9
:1005C0000000000000F21A821B0000000000000082
:1005D000000000000000000000000000000000001B
:1005E0000000000000000000000000000000007E8D
:1005F0000F00D4FFFFFFC7000000780000000000DC
:100600000000002A2B28000000000000000000006D
:1006100000000000000029000000002C1E342021F2
:100620002224342627252E362D3738271E1F202139
:1006300022232425263333362E37381F0405060798
:1006400008090A0B0C0D0E0F1011121314151617B2
:1006500018191A1B1C1D2F3130232D3504050607D0
:1006600008090A0B0C0D0E0F101112131415161792
:1006700018191A1B1C1D2F3130354C0011241FBEB8
:10068000CFEFD4E0DEBFCDBF04B603FE18C080912B
:10069000890490918A04A0918B04B0918C048730D6
:1006A000904BA740B04B59F41092890410928A04E1
:1006B00010928B0410928C04E0E0F8E3099511E0AD
:1006C000A0E0B1E0E6E9F6E602C005900D92AC3696
:1006D000B107D9F724E0ACE6B1E001C01D92A9381A
:1006E000B207E1F70E948C0D0C9449330C94000082
:1006F0002F923F924F925F926F927F928F929F9232
:10070000AF92BF92CF92DF92EF92FF920F931F931F
:10071000CF93DF93CDB7DEB72C970FB6F894DEBF3B
:100720000FBECDBF7C01DC0113964D915C911497F7
:1007300011966C9111978C910E942B1E81110C9433
:10074000730D61E0C7010E942C2C8C01F70182819E
:10075000811106C0D70112963C9031103EC08DC663
:1007600080910D0190910E010196A1F377EDC72EB6
:1007700072E0D72EA12CB12C9924939480910D0175
:1007800090910E018A159B052CF3F6018681882332
:10079000E9F0818592850817190739F48091D5020F
:1007A0009091D6020817190789F0D6011F969C92DE
:1007B0001F971C961C930E931B97C6010E94B11C99
:1007C000C60106960E94701C1092D402BFEFAB1AAD
:1007D000BB0AE6E1CE0ED11CD1CFC80182519F45A4
:1007E000409708F0AFC08FEF93E00E94BB328111B9
:1007F00031C66EEED62ED00E03E912E0DD2071F088
:100800000115F4E01F0709F425C6C8010E94BB3298
:10081000811101C0DA940F5F1F4FF0CF19821A8245
:100820001B821C8268012FEFC21AD20AC8010E94E3
:10083000BB3289831A82882309F40CC6813009F0FF
:100840007CC0580132E0A30EB11CC6010E94BB322D
:10085000982E8A83882309F4FDC58FEF890D833094
:1008600060F4680143E0C40ED11CC5010E94BB3294
:100870008B83811162C08601D5CF8BEF890D8330C8
:1008800078F5380153E0650E711CC5010E94BB323A
:100890008B83811102C06301EECF680184E0C80E32
:1008A000D11CC3010E94BB328C83882321F32B818E
:1008B0003C8121309FEF390718F0922F80E001C072
:1008C000C901A6E09A1631F0B7E09B1631F00E94FC
:1008D0008D31D1CF0E945C31CECF0E94D330CBCFAF
:1008E000E4E09E1611F06501C6CFC5010E94BB323F
:1008F000B82E6801F4E0CF0ED11CC80103960E9407
:10090000BB32BB2009F4A6C5882309F4A3C590E037
:1009100001976FEF70E00E940E332B2D30E02150D5
:100920003109820F931F019708F4A5CFAFE9BFE00B
:100930001197F1F700C00000F6CFCE0101960E949A
:10094000562B99CF0031EFE51E0731F00131FFE55D
:100950001F07B1F482E001C081E00E948C220E9456
:10096000311578C5680127E5D21A3FEFC316D104C7
:1009700009F008F491C5D70112963C903320D1F0CC
:100980000F35BDE51B0761F00036EDE51E0761F090
:100990000E35FDE51F0771F480910001811104C03F
:1009A00081E08093000156C51092000180E00E9412
:1009B0009B1D50C58091000181110AC0580127E597
:1009C000B21A3FEFA316B10409F008F47AC1D4C1FA
:1009D000480140EE841A910820909B0380918D037A
:1009E000282A8091CD01282A58E08516910480F4A8
:1009F00098012770332781E090E001C0880F2A9585
:100A0000EAF7332011F0282A18C08095282215C053
:100A1000332009F416C110936F0100936E010E94F8
:100A2000741A6093A2027093A3028093A40290931D
:100A3000A5021092AA021092A902D7018D919C9151
:100A40000E94182221E030E0F90102C0EE0FFF1FE2
:100A50008A95E2F7FC87EB872091AB023091AC02DC
:100A600038872F8340916E0150916F015A874987D3
:100A70001D82432C512C5D81E52FF0E0EE0FFF1F0E
:100A8000E150FC4FC080D180C114D10409F4F0C002
:100A9000211005C0D60112968C918111CEC0F601AD
:100AA000838190E02B853C8582239323892B09F455
:100AB000C4C08085982F977009F487E038E08316CA
:100AC000910440F4332019F081FD09C0B6C082FDC5
:100AD00006C0B3C0332009F4B0C080FFAEC0D60159
:100AE000AD90BC900A151B0519F4332009F4A5C07C
:100AF000EF81F885CE16DF0609F49FC0D6011D965A
:100B0000ED91FC911E97309721F08081882309F4A4
:100B100094C0622DC6010E940B1E882309F48DC06B
:100B20000A151B0511F4320102C0612C712CB62D7F
:100B3000B170BE8381E0A114B10441F0B11106C0CF
:100B4000E985FA85AE16BF0609F080E080FF75C022
:100B500080E00E949B1DD092AC02C092AB0281E06B
:100B60008093A802D60115968C918093A602BE812F
:100B7000B11113C0AB2889F0F601808191819C01ED
:100B800024503109213A310530F4682F8DEB91E082
:100B90000E94B51A02C00E94EF22D6011696AD90AF
:100BA000BC901797C5019A9581159F4110F4E0EE0E
:100BB000BE2255245394C5010197853A9D4508F0FE
:100BC000512CD6011996ED91FC911A97309739F076
:100BD0001B966D917C911C9781E0099558225520B8
:100BE00029F1F601868197810E94C12E8093A70288
:100BF000C501F8E08F16910418F40E944A1D16C032
:100C00000497813A910530F46A2D8DEB91E00E94B2
:100C1000C21A0EC00E945D2A8FE39CE90197F1F78A
:100C200000C000008A2D0E94192302C00E945D2A84
:100C300091E0692660FE80C1C1CEAD81AF5FAD831A
:100C40001ACF80916E0190916F010817190781F4F6
:100C500010926F0110926E011092A2021092A302E4
:100C60001092A4021092A5021092AA021092A90258
:100C70008091AB029091AC02009709F49FCEB8E04E
:100C80008B16910438F4622D0E940B1E811196CEB2
:100C900081E014C0FC01208131810217130729F47F
:100CA000311006C01092A80208C0332009F486CE85
:100CB000DC0118968C9185FD81CE80E00E949B1D01
:100CC0007DCE80910D0190910E018A159B0524F433
:100CD000B0920E01A0920D01F7012281C50166E1DB
:100CE00070E00E940E3389529D4F6C01DC015096DA
:100CF0002C935097928116968C911697992369F1AF
:100D00001A961C930E9319978F5F16968C930E94D8
:100D1000801AF6019687858780919B03878390913F
:100D2000D4028091CD01892B80870190F081E02D44
:100D3000309771F0D60154962D913C915597C5018D
:100D400066E170E00E940E33B90183529D4F099510
:100D50001093D6020093D5020FC0882369F0F601E4
:100D60008189882349F0C50166E170E00E940E3355
:100D700083529D4F0E94701C8091C80280FF9DC0CD
:100D80000E94801A6C01D70112968C918823D9F1A8
:100D90008091120182FF08C025E831E040E0B601F1
:100DA00080E090E00E94C51F0B31BCE51B0779F085
:100DB0000C31ECE51E0789F00A31FCE51F07A1F4B0
:100DC00080911201982F909590FB80F909C0809135
:100DD000120181608093120107C0809112018E7F01
:100DE000809312010E94881FC8019056811520E24D
:100DF000920720F0905E8115904180F51092F101EC
:100E00001092F0015AC0013E110521F480911201A7
:100E10008F7E06C0053E110531F4809112018F7D51
:100E2000809312011BC0C8019056811540E29407BF
:100E300020F0905E8115904188F48091120182FF2C
:100E40003CC08091CA0281FD38C025E831E040E015
:100E5000B60180E090E00E94C51F2FC08091120172
:100E600080FF2BC0D70112968C910832110538F4FF
:100E70000E311105B8F40430110578F41CC00933A3
:100E8000110538F40D32110590F40B32110579F08B
:100E900012C00436110559F00EC09091C80294FD9D
:100EA0000AC04DC09091C80293FD05C048C0909102
:100EB000C80292FF44C08111EFC0033FFCE51F0749
:100EC00009F417C108F01BC1083D3CE5130709F4FC
:100ED0000AC1093D4CE5140709F42DC1073D5CE545
:100EE000150709F4FAC0D70112962C9121112CC1D3
:100EF0000631BCE51B0709F08EC28091CD01982F09
:100F00009A7A3091C70230FD5FC231FD63C232FD73
:100F100067C233FD6BC2222309F471C281E09111D3
:100F200001C080E080937001992309F466C265E3F3
:100F30008DEB91E00E94C21A0E945D2A8BC2882329
:100F400009F4A3C02091CD0180919B03982F922B8F
:100F5000392F3D7F79F11092F1011092F00130911B
:100F6000C80231FD27C0F80143E0F695E7954A95A0
:100F7000E1F7EE71FF27E253FE4F98012F70332700
:100F800081E090E002C0880F991F2A95E2F78095D2
:100F90009095208131818223932391838083A701BF
:100FA00060E0C8010E94A61F80919B038D7F0E9474
:100FB000CC2967C038E0F701A5E8B1E001900D92B7
:100FC0003A95E1F7109287011092890110928801F9
:100FD0004091F0015091F10104171507D1F53091BE
:100FE000C80235FF36C04091120141FF02C036FFF2
:100FF00030C04091EE015091EF01B601641B750BBA
:101000004091C5025091C6026417750710F521FF83
:1010100008C08091120180618093120182E00E94D9
:10102000E7298091CD0185FF08C08091120180627F
:101030008093120180E20E94E72960911201669577
:101040006170A7018091F0019091F1010E94A61FAB
:1010500001C2969591702091120190FB21F9209385
:1010600012018D7F0E94CC291093F1010093F001B1
:10107000D092EF01C092EE018091120184608093C2
:10108000120182E00E94FB29E5C1970140E0B60110
:10109000C8010E94C51FDEC11092F1011092F0013B
:1010A000033FBCE51B0729F170F4083DFCE51F0771
:1010B000D1F0093D2CE51207F1F1073D3CE513079E
:1010C00009F042C00AC0053F4CE5140719F1E0F0F1
:1010D000063F8CE5180749F137C006E221EE41EEE4
:1010E00067ED7CE52DC007E225EE45EE68ED7CE579
:1010F00027C006E221EE40EE63EF7CE521C0053F0C
:101100008CE5180739F060F407E225EE44EE64EF51
:101110007CE516C006E221EE42EE65EF7CE510C0EC
:10112000063FACE51A0709F0DECE07E225EE46EEF3
:1011300066EF7CE505C008E221E045EE69ED7CE55F
:10114000C7010E94D31C86C11092D3020330BDE5B3
:101150001B0758F40A3FECE51E0780F4C8018250D3
:101160009C45449708F02EC109C00136FDE51F07D4
:1011700029F0053A2DE5120709F024C10E944629FD
:101180009093CC018093CB0101313CE5130709F426
:10119000C6C008F042C009305CE5150709F49BC0E1
:1011A00000F505309CE5190709F485C078F4033093
:1011B000BCE51B0709F478C008F07AC002301C4572
:1011C00009F0F7C08091CB018160F1C007302CE5B8
:1011D000120709F478C008F07AC08091CB018061D1
:1011E000E6C00D304CE5140709F487C058F40B3005
:1011F0008CE5180709F479C008F07BC08091CB0119
:1012000088606FC00F30ACE51A0709F480C008F0A1
:1012100082C08091CB01877FCAC00D3FECE51E07DD
:1012200009F471C000F505312CE5120709F485C0F9
:1012300068F403314CE5140709F475C008F095C053
:101240000E94C5228091CB018F77B1C00B3F8CE506
:101250001807A9F108F054C00A3F1C4509F0A9C0BD
:101260008091CC0140C00130BDE51B0709F489C065
:1012700058F40F3FFCE51F0709F45AC008F069C095
:101280008091CC0182602FC001363DE5130709F43F
:101290007EC0053A4DE5140709F483C002301D45B0
:1012A00009F087C060E06EC08091CB0182607FC092
:1012B0008091CB0116C08091CB01886078C080916D
:1012C000CC0182604FC08091CB01806270C0809160
:1012D000CB0180646CC00E94C5228091CB018068E4
:1012E00066C0846064C081603DC08091CB018E7F08
:1012F0005EC08091CB018D7F5AC08091CB0116C01A
:101300008091CC0118C08091CC018D7F2BC0809141
:10131000CB018F7E4CC08091CB018F7D48C08091E6
:10132000CB018F7B44C08091CB01877F8B7F3FC0F7
:101330008091CC018D7F8E7F15C08091CB0182FB87
:10134000222720F991E0922790FB82F990FB83F904
:101350002EC08091CC01982F909591708E7F892B13
:1013600090FB81F98093CC0124C00E94C52280911A
:10137000CB0187FB222720F991E0922790FB87F988
:1013800016C061E08EE090E00E94C93212C08091E8
:10139000CB0184FB222720F991E0922790FB84F96E
:1013A00006C08091CB01982F909590FB80F9809397
:1013B000CB018091CB019091CC010E9439290E94F0
:1013C000C52248C021E094CD482F447409F49DCD36
:1013D00090E09BCD482F417109F499CD90E097CDD5
:1013E000482F487809F495CD90E093CD827209F4A6
:1013F00092CD222321F01092700169E299CD809163
:101400007001882311F065E301C069E28DEB91E082
:101410000E94B51A91CDD70112968C91882309F4B8
:101420009BC00A358DE5180709F491C008F080C00B
:101430000115ACE51A0709F075C00E94C5222FEF0F
:1014400034E34CE0215030404040E1F700C0000060
:101450000E941B1A80919003877009F444C3D7013E
:1014600012968C91882309F43EC38091CC0182FDB1
:101470003AC382E00E94FB2936C30031FFE51F0713
:1014800021F481E00E9480226ACA01312FE512070F
:1014900009F068CA82E0F6CF64EA73E08C2D0E94FE
:1014A000BA21892B09F067CAC60166E170E00E9483
:1014B0000E3389529D4FDC0116968C918130E1F4F8
:1014C0008091A4039091A503892B09F454CA8091BB
:1014D000A6039091A703892B09F44DCA8091A80314
:1014E0009091A903892B09F046CA8091AA03909193
:1014F000AB03892B59F03FCA823009F03CCA809176
:10150000A8039091A903892B09F435CAC60166E1A5
:1015100070E00E940E3389529D4FFC01108A0E9498
:10152000B11C29CA0E3D1C45B9F40E94572992CF1F
:101530000B35EDE51E0769F00C351D4569F480910A
:10154000CC0182FB882780F991E0892703C081E0E4
:1015500001C080E00E94182AF701868197810097D8
:10156000B9F4F701828100811181882349F0C80113
:101570000E94DC21D82E682FC8010E94492204C095
:10158000C8010E941822D82EB8018D2D0E94F22089
:101590000E94A527182F092FD7011296BC901297E9
:1015A0001596CC90C2943FE0C3228091900387703F
:1015B000B9F0BB20A9F0892F807F803421F080E230
:1015C000810F883068F08091CC0182FD09C082E0F3
:1015D0000E94FB29809190038770AA24A394811113
:1015E000A12C902E92942FE09222892D90E08C30A5
:1015F000910508F027C2FC01E65CFF4F0C941F33F5
:10160000902F9F70802F807FD92E19F0D29490EF69
:10161000D922BB20A9F0DD2009F4F4C180E2810FBA
:10162000883010F0111104C08D2D0E94EE2905C0E4
:101630008091D402D82AD092D4020E945D2AE2C1BD
:10164000812F0E94EF22DD2009F4FCC180E2810F8E
:10165000883068F1112359F18D2D0E94E0292AC0AC
:10166000902F9F70802F807FD92E803219F0D294D6
:1016700080EFD822112321F0113009F45CC067C03B
:101680008091CC0182FF19C0BB2059F0DD2029F0E8
:101690008D2D0E94EE290E945D2A80E00E94192370
:1016A000D1C180E00E94EF22DD2009F4CBC18D2D55
:1016B0000E94E7290E945D2AC5C1BB2001F1CC2010
:1016C000D1F0B1E0CB1206C080919B038D290E941E
:1016D000CC29B8C18091C902823068F0C8120BC011
:1016E0000E94C12980918D03D812D0928D038D2D37
:1016F0000E94E822A7C180919B038D29F9CFCC20BD
:1017000079F08091C902E1E0CE1210C0823008F475
:1017100099C18091CD018D2109F494C10E94B32A11
:101720000E94C1298D2D0E94E1228CC18230C0F31C
:10173000C812F6CF87C18091CF02BB2021F08C1553
:1017400008F480C1D4CFC81608F07CC1EBCFBB2011
:10175000E9F0CC2061F220E0D7014C9111965C9128
:10176000119712966C91129713967C911397149679
:101770008C910E94032C8091CA0281FD43C1F70124
:10178000858180FF3FC18F708583B1CFC11043C178
:10179000C9CF802F86958695837019F0813061F0CE
:1017A00051C1BB2021F0812F902F937002C080E0A7
:1017B00090E00E944E1C4CC1BB2021F0812F902F45
:1017C000937002C080E090E00E94DC1A41C1802F3B
:1017D0008370A1F5B1103AC1412F429546954770EB
:1017E000440F440F212F2F7030E0C901042E01C097
:1017F000880F0A94EAF714FF08C02FE030E001C018
:10180000220F4A95EAF7209501C020E0302F369547
:1018100036953370323069F040F440919C0331309A
:1018200019F0822B842302C0842B822B0E949722E2
:101830000DC1282B80919C038227F8CFBB2019F083
:10184000802F817001C08695882309F4FFC0412F45
:10185000429546954770440F440F212F2F7030E07A
:10186000C901042E01C0880F0A94EAF714FF08C0CA
:101870002FE030E001C0220F4A95EAF7209501C021
:1018800020E0302F369536953370323051F070F4B9
:101890004091BC01313019F0822B842308C0842B85
:1018A00005C0282B8091BC01822701C0822B0E9499
:1018B0007C22CCC0F02FFF70DF2EBB2039F08F2FA1
:1018C0000E948C22812F0E94E822C0C0812F0E949A
:1018D000E1228D2D0E948022B9C0123F11F128F41F
:1018E000103F41F0113FA9F189C0133F01F1143FAE
:1018F00061F184C08091CF02BB2021F0C81608F0AE
:10190000A1C003C08C1508F49DC0202F2F7181E069
:1019100090E001C0880F2A95EAF79091BC018927D1
:101920000FC0802F8F71BB2009F470C087C0BB200F
:1019300051F081E0902F9F7101C0880F9A95EAF7CE
:101940000E947C227FC080E0FBCF8091CC0182FF8F
:1019500006C0802F8F71BB2009F470C057C08091E2
:10196000C9028230A0F180918D03BB20E1F00E947A
:10197000E729809190038770843039F40E94F4291C
:10198000802F8F710E9480225CC08091C902C8168E
:1019900008F057C0202F2F71D22E822F0E948C2248
:1019A00063E08D2D0DC00E94EE298091C902C816FA
:1019B00050F00E94F4290E94B32A64E0802F8F71B6
:1019C0000E942D2A3EC081E00E94FB293AC0BB2024
:1019D00059F0302F3F71D32E832F0E948C2263E069
:1019E0008D2D0E942D2A2EC081E00E94FB2941E00E
:1019F0004C1540F582E00E94FB2924C0BB2049F031
:101A0000CC2011F0812F4ACE802F8F710E948C2222
:101A100019C0CC2089F0193329F48091CD0290911E
:101A2000CE0204C08091CB029091CC020E94BA1FDA
:101A3000812F0E94EF2206C0802F8F710E9480228A
:101A400001C0A12C88EF890D843010F40E94641C21
:101A5000812F902F0E949B22811105C0109272014C
:101A60001092710125C0BB2019F0C110F7CF20C022
:101A7000C110F4CF20E0D7014C9111965C911197E1
:101A800012966C91129713967C91139714968C91E1
:101A90000E94032C8091CA0283FFE0CF80917101E4
:101AA000909172010297D1F6812F0E946423D6CFC4
:101AB000AA20A9F08091900380FD11C0F701128245
:101AC0008595859585950E948C22C7010E94780393
:101AD000809190038595859585950E94802260E090
:101AE000C7010E942C2C2C960FB6F894DEBF0FBEB7
:101AF000CDBFDF91CF911F910F91FF90EF90DF90BD
:101B0000CF90BF90AF909F908F907F906F905F909D
:101B10004F903F902F900895CF93DF93CDB7DEB7CE
:101B2000E4970FB6F894DEBF0FBECDBF84B7877FB2
:101B300084BF0FB6F894A895809160008861809367
:101B40006000109260000FBE90E080E80FB6F8943D
:101B500080936100909361000FBE80E796E29093BE
:101B60006D0180936C010E947D300E9424300E94A0
:101B7000932F0E948D201092E2001092E10080913C
:101B8000E00081608093E0008091D8008F7780939F
:101B9000D80019BC8091630081608093630010922B
:101BA0007301809163008E7F8093630081E0809356
:101BB00073011092E2001092E1008091D8008F77BB
:101BC0008093D8008091D80080688093D80080915D
:101BD000D8008F7D8093D80084E089BD86E089BDE0
:101BE00009B400FEFDCF1092BB011092B201109219
:101BF000B1011092B00142E060E080E00E941F1647
:101C00008091E1008E7F8093E1008091E20081600D
:101C10008093E2008091E20088608093E2008091EE
:101C2000E0008E7F8093E0008091E20084608093EA
:101C3000E20078948091BB018823A1F01091E90023
:101C40001F709091EC00892F817090FD80E8182B17
:101C50001092E9008091E80083FD0E9454161F70E5
:101C60001093E90082E084BD93E095BD9AEF97BDA3
:101C700080936E000E948932811102C00E947A32E4
:101C80000CE111E0F0E2EF2EF1E0FF2ED8018D9192
:101C90008D018F3F11F00E94B526E016F106B1F7D5
:101CA00000E211E0ECE2EE2EE1E0FE2EF80181917F
:101CB0008F018F3F11F00E94B526E016F106B1F7B3
:101CC00088E0E2E9F1E0DF01282F1D922A95E9F78B
:101CD000E4E7F1E0DF011D928A95E9F780E090E00A
:101CE0000E94C332893E9E4F21F40E9489328111A5
:101CF00002C00E94572982E090E00E94BB3280938C
:101D00007C010E9446299093CC018093CB010E94D4
:101D1000CC26EFEFF6E721E0E150F0402040E1F77C
:101D200000C000000E94CC268091920180FF08C074
:101D30006FEF7FEF80E090E00E94E7320E941B1A75
:101D400083E090E00E94BB320E94972281E091E004
:101D500090939B0180939A017AE9272E71E0372EA8
:101D60008E010F5F1F4F8091BB01853009F047C086
:101D700054E0E52E66E0F62E8091BB01853009F037
:101D80003AC08091BB01843021F110929E0188E11C
:101D900090E0A0E40FB6F894A895809360000FBE81
:101DA000A093600083B7817F846083BF83B7816025
:101DB00083BF7894889583B78E7F83BF0FB6F894DE
:101DC000A895809160008861809360001092600007
:101DD0000FBE8091B101882309F4CECF0E94CC269A
:101DE000E2E9F1E081919191892B09F09CC52E16D1
:101DF0003F06C1F7C1CF0E94C5220E94641C0E9409
:101E0000CC2681110E94741AA2E9B1E0EDE7F1E05D
:101E1000E12CF12C7E2D2D913D9181919191822784
:101E20009327009779F160E0CC24C394D12CAC01C6
:101E30004C215D21452B09F16BA77CA72C213D216D
:101E400081E0232B09F480E08DA70E94801A816035
:101E5000782F9FA78EA74BA55CA56DA58FA50E9487
:101E60003A2CF701EE0FFF1FE358FE4F808191815E
:101E7000C826D926D182C0821CC06F5FCC0CDD1C65
:101E80006C30A9F62FEFE21AF20A34E0E316F104FF
:101E900009F68FEF88AB89AB1AAA0E94801A81607D
:101EA000782F9CAB8BAB48A959A96AA98CA90E9431
:101EB0003A2C8091A9029091AA02892B09F43EC084
:101EC00040919E0250919F026091A0027091A102E8
:101ED0002FB7F89480919F019091A001A091A1014A
:101EE000B091A2012FBF841B950BA60BB70B40919D
:101EF0009A0250919B0260919C0270919D028417FE
:101F00009507A607B707D0F08091A9029091AA0281
:101F10000E94082F1092AA021092A90210929E020B
:101F200010929F021092A0021092A10210929A02A7
:101F300010929B0210929C0210929D0280910D01C2
:101F400090910E01019659F1912C20C0C70166E1D4
:101F500070E00E940E3389529D4FDC015296AD9085
:101F6000BC905397A114B10421F4A090C502B09085
:101F7000C602C70166E170E00E940E3389529D4F90
:101F80006C01FC01868181110FC09394E92CF12C26
:101F900080910D0190910E018E159F05BCF68091E8
:101FA0001301811115C03CC0858596850E94651A74
:101FB000A816B90650F7C6010E94B11CC70166E118
:101FC00070E00E940E3383529D4F0E94701CDDCF43
:101FD0008091980290919902009711F10E94651AE0
:101FE0002091F2013091F30128173907C8F490913C
:101FF000960280919702981759F00E94D41E109271
:10200000F3011092F201109299021092980208C006
:102010000E94651E10929902109298020E94B51EAD
:102020008091C80280FF1EC08091120182FF1AC0F9
:102030000E94801A2091EE013091EF01AC01421B09
:10204000530B20911001309111014217530750F0AA
:1020500025E831E041E0BC018091F0019091F1016F
:102060000E94C51F0E94641C90918D01891380936A
:102070008D018091BB01843009F075CE83E080939F
:10208000E9008091E80082FF6ECE8091E80085FF34
:1020900024C00E943C1581111EC080E2C82ED12CA4
:1020A0009E012F5F3F4F790109C08091F100D70158
:1020B0008D937D01B1E0CB1AD10869F08091E800E1
:1020C00085FDF3CF8091E8008B778093E8000E9434
:1020D0003C15882399F391E001C090E08091E800DD
:1020E0008B778093E800992309F43DCEE090C901F5
:1020F000F090CA018981E114F10461F08E3F09F08A
:102100000EC48A81833008F4C4C18550833008F03E
:1021100006C4BFC18B3009F4A6C110F5853009F49F
:1021200078C0B0F48230C1F130F4813009F0F5C3E9
:102130001A8289E012C3833009F45EC0843009F04A
:10214000ECC34C816B818A810E945E2F9D8308C401
:10215000873009F4E2C308F0E0C30E940E21DFC318
:10216000803109F4C1C060F48D3009F45FC008F417
:102170005BC08E3009F45EC08F3009F486C0CDC3D9
:10218000823109F4B7C008F4B2C0833109F4DCC06D
:102190008E3F09F47EC1C1C38A81823009F4D9C35C
:1021A000833051F0813009F0B8C30E94741A9B83C8
:1021B0008C837D836E83B3C38091C5019091C601EA
:1021C000892B09F4ACC380919201909193019B8378
:1021D0008C8380919401909195019D838E83809151
:1021E0009601909197019F838887809198019091A3
:1021F000990199878A8793C38A81823009F08DC3B8
:102200006B817C818D819E810E9425330E94583292
:1022100086C32D813E813227232732274C816B8153
:102220008A810E94212F7BC380E162C081E08A8382
:102230008DE693C2EA80FB80FE24EF24FE24AC806E
:10224000B12CEDE1AE16B10408F069C36801C70115
:102250008D569D4F9601201B310B2A153B0508F02A
:102260005EC3FDE6EF16F1E0FF0630F40E94BB32DC
:10227000D60114968C9302C0F6011482FFEFEF1A78
:10228000FF0A2FEFC21AD20AE2CF8091C5019091C6
:10229000C601892B09F443C3EA80FB80FE24EF24A6
:1022A000FE24CC80D12C3DE1C316D10408F037C305
:1022B0005801C7018D569D4F9501201B310B2C15E0
:1022C0003D0508F02CC34DE6E41641E0F40628F481
:1022D000D50114966C910E94C932BFEFEB1AFB0A2C
:1022E000EFEFAE1ABE0AE5CF0E94E22018C384E0E9
:1022F0008A8315C3EA80FB80FE24EF24FE24AC8091
:10230000B12CFDE1AF16B10408F009C36801C701A3
:1023100087969601201B310B2A153B0508F0FFC25A
:1023200020E8E21621E0F20630F40E94BB32D6012A
:1023300014968C9302C0F6011482FFEFEF1AFF0A85
:102340002FEFC21AD20AE3CFEA80FB80FE24EF24EB
:10235000FE24AC80B12C3DE1A316B10408F0DFC22D
:1023600040E8E41641E0F40608F0D9C280E891E0C4
:102370008E199F098A159B0508F4D1C2370187E29F
:10238000680E711C8091C5019091C601892B11F0D6
:10239000680160C0E0FE0FC0C70186960E94BB3294
:1023A00090E0982F88272D81822B81159C4531F450
:1023B0008FEF8D8303C0C12CD12C03C0CC24C394D8
:1023C000D12CC7018A0D9B1D450180FF1BC0B1E0C8
:1023D0008B1A9108E5E04E2E512C4C0E5D1E480CD8
:1023E000591CC3018A0D9B1D0E94BB32F201208142
:1023F00030E0322F2227282B21153C4519F48FEF8E
:10240000D2018C93F801EC0DFD1D2FEFCF01801B45
:10241000910B8815990508F0BBCF848190E0982F27
:1024200088273581832B81159C4511F424832583CE
:102430003296ECCFE0E8EE16E1E0FE0628F4D60195
:1024400014966C910E94C932BFEFEB1AFB0AEFEFB2
:10245000CE1ADE0AC70187969601201B310B2A157A
:102460003B0540F35CC28091C5019091C601892B68
:1024700009F455C2C8010E949B15FFEF21EE34E01C
:10248000F15020403040E1F700C000000E941B1ACC
:1024900046C2EA818E2F90E08E30910508F03FC24F
:1024A000FC01EA5BFF4F0C941F3388E0E4E1F1E0AC
:1024B000DE01919601900D928A95E1F780E2D801B4
:1024C0001D928A95E9F785E0898388E0FE01B1963F
:1024D000DE011596F4C188EA898381E08A831B8234
:1024E0001C821DC28C8190E0982F88272B81820F3F
:1024F000911D092E000CAA0BBB0B65E0880F991FDC
:10250000AA1FBB1F6A95D1F7AC01BD01405E5F4FAA
:102510006F4F7F4F481759076A077B0708F4FFC1C1
:10252000883AE1E09E07A105B10508F0F8C1493AF3
:10253000F1E05F076105710520F048EA51E060E0D5
:1025400070E0481B590BBC0166537F4FC8010E94C5
:10255000A232E5C140E250E06FEF70E0C8010E9496
:1025600042338091C5018983EA821B821C8282E00A
:102570008D838BE0F5C181E090E09093CA01809358
:10258000C90182E390E090939101809390010E94B1
:10259000801A90938F0180938E01C1C1EF28A9F119
:1025A000F0909701F3FA882780F9F0909201F822D1
:1025B00080918E0190918F010E94651A8536910558
:1025C000F0F0FF20E1F00E94801A90938F01809339
:1025D0008E018091900190919101019790939101CA
:1025E00080939001892B89F41092CA011092C9013D
:1025F00081E090E09093C6018093C50106C082E31C
:1026000090E090939101809390018091C50189831E
:102610008091C9018A83809190019FC01092C60168
:102620001092C5017CC1EB80FC8040E250E06FEF6E
:1026300070E0C8010E9442332BE335E0ABECB5E01B
:1026400080E090E0AC014E5F5F4F4132510508F0F1
:1026500066C1F90165917491E616F70630F4F80148
:10266000E80FF91F71836083CA01245F3F4FA217EF
:10267000B30741F754C14B815C812BEC35E08BE310
:1026800095E0FC01659174914617570729F00C9667
:1026900028173907B1F741C1009709F43EC1FC0181
:1026A0003696259134912115310509F436C14FE153
:1026B00050E0BE016E5F7F4FF90109952FC12B815C
:1026C0003C818BEC95E04BE3E42E45E0F42EF701E2
:1026D000459154912417350739F0FCE0EF0EF11CB9
:1026E0008E159F05A1F719C1E114F10409F415C174
:1026F000F7013896259134912115310509F40DC162
:102700004CE150E0BE016B5F7F4FC701F9010995B5
:10271000009709F003C1F7013A96859194910097CB
:1027200011F0FC01099580E0F9C00E94B420F7C0C7
:10273000EB818E2F90E08730910508F0F0C0FC010E
:10274000EC5AFF4F0C941F3380E2D8011D928A95FA
:10275000E9F784E0898388E08A838B83E0C08C81F9
:102760009AE0F92E6E01B1E2CB0ED11CF6012F2DAD
:1027700011922A95E9F7B6010E94BA218983F601E0
:10278000DE01129601900D92FA94E1F7C8C0FC8028
:102790008AE0FE013596DE01919601900D928A95B0
:1027A000E1F789A19AA10E9448329AA389A38BA13B
:1027B0009CA10E9448329CA38BA38DA19EA10E9444
:1027C00048329EA38DA38FA198A50E94483298A756
:1027D0008FA333E03F1588F08F2D90E06AE070E022
:1027E0000E940E33BC0165537E4F4AE050E0CE019B
:1027F00081960E94ED3280E001C08FEF89830E94B4
:102800007D308DC08C81FE01B1969AE0DF011D9272
:102810009A95E9F7883008F04BC090E06AE070E0E4
:102820000E940E33BC016D507E4F3BC0FC808AE09D
:10283000FE013596DE01919601900D928A95E1F7A1
:1028400089A59AA50E9448329AA789A7B7E0BF1523
:1028500088F08F2D90E06AE070E00E940E33BC019A
:102860006D507E4F4AE050E0CE0181960E94ED32DD
:1028700080E001C08FEF89830E94243050C08C819A
:10288000FE01B1969AE0DF011D929A95E9F7883032
:1028900078F490E06AE070E00E940E33BC016D5B5A
:1028A0007D4F4AE050E0CF010E94AB3280E001C092
:1028B0008FEF89838AE0FE01B196DE0112960190C6
:1028C0000D928A95E1F72BC0FC808AE0FE013596D7
:1028D000DE01919601900D928A95E1F78BA19CA162
:1028E0000E9448329CA38BA3B7E0BF1588F08F2DC0
:1028F00090E06AE070E00E940E33BC016D5B7D4F9A
:102900004AE050E0CE0181960E94ED3280E001C0A5
:102910008FEF89830E94932F02C08FEF8983C801B4
:102920000E949B1520CAE9BCF9BC09B400FEFDCF8A
:102930008091D8008F7D8093D8008091E0008260E4
:102940008093E0008091E00081FDFCCF0E94C522D1
:1029500013CA86E290E00E94BB321B821C821D8259
:102960008E83DDCF8091B30187FF11C08091E80095
:1029700082FD05C08091BB018111F8CF11C080910B
:10298000E8008B770BC08091BB01882349F08091D0
:10299000E80080FFF8CF8091E8008E778093E80010
:1029A00008952091B9013091BA012617370748F0F0
:1029B0006115710539F42091E8002E772093E80025
:1029C00001C0B901FC0120E06115710561F1809140
:1029D000BB018823D9F18530D9F18091E80083FDCE
:1029E00039C08091E80082FD2BC08091E80080FF13
:1029F000EBCF8091F20090E06115710551F08830C5
:102A0000910538F421912093F100615071090196EC
:102A1000F3CF21E0089709F020E08091E8008E775D
:102A20008093E800D1CF2111D2CF0AC08091BB01A1
:102A3000882361F0853061F08091E80083FD0AC051
:102A40008091E80082FFF2CF80E0089582E008954F
:102A500083E0089581E00895089508958091A70185
:102A600008958091BC01982F9670963011F488607B
:102A700001C0877F0C947C222091E4003091E50016
:102A800095E64091EC00842F817040FF23C0809137
:102A9000E80080FD1DC08091BB01882399F085303E
:102AA00099F08091EB0085FD11C04091E4005091B8
:102AB000E5002417350729F3915011F09A01E1CF71
:102AC00084E0089582E0089583E0089581E0089508
:102AD00080E008954091E80042FFDDCF0895EF9235
:102AE000FF920F931F93CF93DF937C018B010E9482
:102AF0003C15811119C0E70101151105A1F0809164
:102B0000E80085FD0AC08091E8008E778093E80098
:102B10000E943C15882381F307C089918093F100BE
:102B200001501109E9CF80E0DF91CF911F910F9102
:102B3000FF90EF900895CF932091BB012430F9F4DA
:102B4000C091E900CF703091EC00232F217030FD4F
:102B500020E8C22B22E02093E9002091E80020FF2A
:102B60000BC040E050E060E270E00E946F15809181
:102B7000E8008E778093E800CF70C093E900CF9192
:102B800008958093A3017093A5016093A40180919F
:102B9000BB018430F9F48093E9008FEF9091E80055
:102BA000815095FD06C095ED9A95F1F700008111D1
:102BB000F5CF8091E80085FF0DC040E050E063E074
:102BC00070E083EA91E00E946F158091E8008E77B3
:102BD0008093E8000895BC0184E00C94C115BC0109
:102BE00083E00C94C115CF93DF9321E02093E9009B
:102BF0002FEF3091E800215035FD06C035ED3A95B4
:102C0000F1F700002111F5CF2091E80025FF14C055
:102C1000EC0140E050E068E070E00E946F158091A8
:102C2000E8008E778093E80088E0FE01A8EAB1E032
:102C300001900D928A95E1F7DF91CF910895982F39
:102C4000953068F59093E900981739F07091EC0091
:102C50002091ED005091F00003C0242F762F50E01A
:102C600021FD02C09F5FECCF3091EB003E7F30939F
:102C7000EB003091ED003D7F3093ED003091EB00A3
:102C800031603093EB007093EC002093ED00509393
:102C9000F0002091EE0027FDE5CF80E008958F70D1
:102CA0008093E90081E008951F93CF93DF93CDB720
:102CB000DEB7AA970FB6F894DEBF0FBECDBFE3EB29
:102CC000F1E08BEB91E02091F10021938E179F07AB
:102CD000D1F78091B401833009F45FC030F48130C2
:102CE00071F0823009F499C0B0C08A3009F485C00F
:102CF0008B3009F46AC0893009F0A7C020C08091E8
:102D0000B301813A09F0A1C08091E800877F8093E8
:102D1000E8008091B7019091B801892B21F468E017
:102D200088EA91E003C060E080E090E070E00E94FB
:102D3000D1148091E8008B778093E80086C0809161
:102D4000B301813209F081C08091B7019091B8013F
:102D5000009719F0029709F078C08091E800877F0A
:102D60008093E8008091E80082FD05C08091BB015E
:102D70008111F8CF6AC08091F200823031F48091E5
:102D8000F100813011F0863021F48091F1008093C0
:102D9000A7018091E8008B7754C08091B301813AFC
:102DA00009F053C08091B7019091B801892B09F0C7
:102DB0004CC08091E800877F8093E8008091E80014
:102DC00080FFFCCF80910F0137C08091B301813229
:102DD000E1F58091B7019091B801892BB1F580910F
:102DE000E800877F8093E8000E94B2148091B501CB
:102DF00080930F010E94C52228C08091B3018132C7
:102E000021F58091E800877F8093E8000E94B2144A
:102E10008091B6018093A60118C08091B301813AD8
:102E2000A1F48091E800877F8093E8008091E8001A
:102E300080FFFCCF8091A6018093F1008091E80093
:102E40008E778093E8000E94B2148091E80083FF9F
:102E5000E7C18091B3019091B401492F50E04A300D
:102E6000510508F0DDC1FA01E55AFF4F0C941F33FC
:102E7000803821F0823809F0D3C108C08091B001B8
:102E80009091B101992389F082600FC08091B701C0
:102E90008F70853008F0C4C18093E9008091EB0009
:102EA00085FB882780F91092E9009091E800977FD0
:102EB0009093E8008093F1001092F10078C1282FE0
:102EC0002D7F09F0ADC1882319F0823061F0A8C1CF
:102ED0008091B501813009F0A3C1933009F080E001
:102EE0008093B1012EC08091B50181112AC08091DB
:102EF000B7018F702FEF280F243008F091C1809315
:102F0000E9002091EB0020FF1CC0933021F4809158
:102F1000EB00806214C09091EB0090619093EB0005
:102F200021E030E0A90102C0440F551F8A95E2F765
:102F30004093EA001092EA008091EB008860809351
:102F4000EB001092E9008091E800877F8093E80011
:102F50000E94B21465C1811163C11091B5011F7740
:102F60008091E3008078812B8093E3008091E800DA
:102F7000877F8093E8000E94B2148091E80080FF70
:102F8000FCCF8091E30080688093E300111102C0C0
:102F900082E001C083E08093BB0142C1805882304F
:102FA00008F03EC12091B5013091B6012C3D53E0AF
:102FB000350779F583E08A838AE289834FB7F894ED
:102FC000DE01139620E03EE051E2E32FF0E0509363
:102FD0005700E49120FF03C0E295EF703F5FEF7070
:102FE0008E2F90E0EA3010F0C79601C0C0968D9306
:102FF0009D932F5F243149F74FBF8091E800877F71
:103000008093E8006AE270E0CE0101960E94D1143C
:10301000BCC08091B7019091B801432F5527433030
:103020005105B1F068F44130510509F408C142304E
:10303000510509F0F5C08BE590E0E6E0F3E057C0FC
:103040004132510589F14232510509F43CC0E8C0D2
:10305000C901992781309105B9F070F0823091054E
:10306000D9F0039709F0DCC0E3E7F3E0E4918E2F99
:1030700090E0E3E7F3E038C0E7EBF3E0E4918E2F74
:1030800090E0E7EBF3E030C0EDE9F3E0E4918E2F60
:1030900090E0EDE9F3E028C0E1E9F3E0E4918E2F60
:1030A00090E0E1E9F3E020C08330910508F0B8C07A
:1030B000880F991FFC01EB5CFE4F0190F081E02D21
:1030C00089E090E014C08330910508F0A9C0FC01AC
:1030D000EE0FFF1FE15DFE4F0190F081E02DDC015E
:1030E000A45DBE4F8C9190E0009709F499C02091A7
:1030F000E800277F2093E8002091B9013091BA01C0
:103100002817390708F4C90140E0009769F12091B8
:10311000BB012223D1F12530C1F12091E80023FD2C
:1031200034C02091E80022FD2CC02091E80020FF4F
:10313000ECCF2091F20030E0009759F028303105B3
:1031400040F444914093F100319601972F5F3F4F37
:10315000F3CF41E02830310509F040E02091E8004C
:103160002E772093E800D1CF4111D1CF0AC08091B2
:10317000BB01882351F0853041F08091E80083FD48
:1031800004C08091E80082FFF2CF8091E8008B7745
:103190008093E80045C0803809F042C08091E80083
:1031A000877F8093E8008091B2018093F100809145
:1031B000E8008E77CBCE811133C08091B50190911C
:1031C000B6019927029764F58091E800877F809384
:1031D000E8001091B5011093B2010E94B2141111D0
:1031E00006C08091E30087FD02C081E001C084E059
:1031F0008093BB0142E061EC81E00E941F1642E235
:1032000061EC84E00E941F1642E261EC82E00E94C1
:103210001F1642E260EC83E00E941F168091BB0102
:103220008091E80083FF10C08091E800877F809341
:10323000E8008091EB0080628093EB0005C082E1A2
:1032400090E0E1E6F3E053CFAA960FB6F894DEBF24
:103250000FBECDBFDF91CF911F9108951F920F92A6
:103260000FB60F9211242F933F934F935F936F9359
:103270007F938F939F93AF93BF93CF93DF93EF93FE
:10328000FF93C091E900CF708091EC00D82FD170EE
:1032900080FDD0E81092E9008091F000877F809354
:1032A000F00078940E9454161092E9008091F0008A
:1032B00088608093F000CD2BCF70C093E900FF9120
:1032C000EF91DF91CF91BF91AF919F918F917F91BE
:1032D0006F915F914F913F912F910F900FBE0F9083
:1032E0001F9018951F920F920FB60F9211242F93D3
:1032F0003F934F935F936F937F938F939F93AF937E
:10330000BF93EF93FF938091E10082FF09C080910A
:10331000E20082FF05C08091E1008B7F8093E10095
:103320008091E10080FF17C08091E20080FF13C010
:103330008091E2008E7F8093E2008091E2008061C4
:103340008093E2008091D80080628093D80019BCFD
:1033500085E08093BB018091E10084FF30C08091C3
:10336000E20084FF2CC084E089BD86E089BD09B4F9
:1033700000FEFDCF8091D8008F7D8093D800809192
:10338000E1008F7E8093E1008091E2008F7E809348
:10339000E2008091E20081608093E2008091B201BE
:1033A000882311F084E007C08091E30087FD02C00C
:1033B00081E001C083E08093BB018091BB018091DB
:1033C000E10083FF27C08091E20083FF23C080914A
:1033D000E100877F8093E10082E08093BB0110923F
:1033E000B2018091E1008E7F8093E1008091E20044
:1033F0008E7F8093E2008091E20080618093E20002
:1034000042E060E080E00E941F168091F00088603A
:103410008093F000FF91EF91BF91AF919F918F91B9
:103420007F916F915F914F913F912F910F900FBEC0
:103430000F901F90189581E08093E00080E28093C8
:10344000D8001092C9008FE19EE40197F1F700C007
:10345000000087E090EBDC018093890490938A045C
:10346000A0938B04B0938C049CE088E10FB6F89491
:10347000A895809360000FBE90936000FFCF789472
:103480001F920F920FB60F9211248F939F93AF93B9
:10349000BF9380919F019091A001A091A101B09153
:1034A000A2010196A11DB11D80939F019093A001DF
:1034B000A093A101B093A201BF91AF919F918F9171
:1034C0000F900FBE0F901F9018959C014FB7F89466
:1034D00080919F019091A001A091A101B091A201C2
:1034E0004FBF821B930B08952FB7F89460919F01F3
:1034F0007091A0018091A1019091A2012FBF089528
:103500002FB7F89480919F019091A001A091A10103
:10351000B091A2012FBF08951F920F920FB60F9284
:1035200011248F939F93AF93BF9380919E0181113C
:1035300013C080919F019091A001A091A101B09131
:10354000A2014196A11DB11D80939F019093A001FE
:10355000A093A101B093A201BF91AF919F918F91D0
:103560000F900FBE0F901F9018959C012A5F3F4F40
:10357000FC014281461301C0128201968217930713
:10358000B9F708959C01FC0132969FEF80E04191CC
:10359000461789F09F3F19F4411101C0982F8F5FA2
:1035A0008630A9F79F3F39F0F901E90FF11D97FD2A
:1035B000FA9562830895089520919C0130919D01B0
:1035C0002817390771F090939D0180939C01E09139
:1035D0009A01F0919B01309721F00084F185E02D54
:1035E00009940895AF92BF92CF92DF92EF92FF922B
:1035F0000F931F93CF93DF934430510508F46CC0B1
:103600004091CB0141FBCC24C0F8D12CCC0CDD1C6B
:1036100042FB882780F9C82FE0E0DE2FCC0FDD1FAA
:10362000CC0FDD1FCC2ADD2A40FBEE24E0F8F12C84
:10363000EC28FD2843FBAA27A0F9B0E023E0AA0F5D
:10364000BB1F2A95E1F7EA2AFB2A44FBEE27E0F9A3
:10365000F0E034E0EE0FFF1F3A95E1F7EE29FF2985
:1036600045FB222720F930E055E0220F331F5A9501
:10367000E1F72E2B3F2B46FB882780F990E0E6E010
:10368000880F991FEA95E1F7822B932B47FB44277C
:1036900040F950E05695542F442757954795842B71
:1036A000952B2091CC01322F3170132F00E0082B85
:1036B000192B26952170B22EBB0CA12C0A291B298F
:1036C000012E000C220B330BFB010083118322839C
:1036D000338380E090E002C08FEF9FEFDF91CF91C6
:1036E0001F910F91FF90EF90DF90CF90BF90AF9020
:1036F00008958091AD029091AE0290931101809354
:1037000010010895CF92DF92EF92FF92443051055D
:1037100008F46FC0FB01C080D180E280F3800E947A
:10372000C5228091CB01C0FA80F9B701A601769538
:1037300067955795479540FB81F9B701A60122E0AF
:1037400076956795579547952A95D1F740FB82F96D
:10375000B701A60133E076956795579547953A9559
:10376000D1F740FB83F9B701A601E4E076956795B0
:1037700057954795EA95D1F740FB84F9B701A60123
:10378000F5E07695679557954795FA95D1F740FB03
:1037900085F9B701A601A6E07695679557954795F7
:1037A000AA95D1F740FB86F9B701A601B7E0769557
:1037B000679557954795BA95D1F740FB87F9809360
:1037C000CB018091CC01D0FA80F999E0F694E7948E
:1037D000D794C7949A95D1F7C0FA81F98093CC0118
:1037E0008091CB019091CC010E94392980E090E03A
:1037F00002C08FEF9FEFFF90EF90DF90CF90089582
:103800009C01CA01F901329645915491841795079C
:1038100050F0CB01F9013496659174910E943933CF
:1038200080E090E008958FEF9FEF08950F931F932E
:10383000CF93DF930DEA12E0C7EAD1E0CE010E94F8
:10384000BB32F80161918F01681719F0CE010E9417
:10385000C9322196CB3CF1E0DF0781F7DF91CF91B0
:103860001F910F910895DA019C012E5F3F4FF901DE
:1038700045915491F90125913491A217B30758F05D
:10388000FC013496859194910E9439330E94161C54
:1038900080E090E008958FEF9FEF089520912F032F
:1038A000309130032817390771F0909330038093DB
:1038B0002F03E0919A01F0919B01309721F006804F
:1038C000F781E02D09940895E0919A01F0919B0110
:1038D000309721F00190F081E02D099480E0089567
:1038E0000F931F93CF93DF93FC012285211134C0E6
:1038F000EC01038114811755C80166E170E00E9454
:103900000E33DC01A952BD4F1496ED91FC91159731
:1039100083529D4F309729F054966D917C91559725
:103920000995C80166E170E00E940E338C010952CE
:103930001D4FF80187810E94E729F80180850E94C8
:10394000E0290E945D2A188219861B861E821D822C
:103950001092D6021092D502DF91CF911F910F9154
:103960000895CF93DF93FC012189211119C0EC0147
:1039700081E0818B87810E94EE299091D402888515
:10398000892B8093D4020E945D2AEA81FB81CE01BB
:103990000696309729F06C897D89DF91CF91099443
:1039A000DF91CF9108950F931F93CF93DF93C42F8F
:1039B000D22FFC0182818823C9F04093D3020E9458
:1039C000801A9093D2028093D10280E28C0F8830CB
:1039D00008F05BC0C77081E001C0880FCA95EAF7A4
:1039E000DF91CF911F910F910C94E8228091D30227
:1039F000481334C08091D1029091D2020E94651A7E
:103A00002091C5023091C6028217930738F510E263
:103A10001D0FCD17B9F080E28C0F883040F4C770CD
:103A200081E001C0880FCA95EAF70E94E1221830B0
:103A300028F581E09D2F977001C0880F9A95EAF7CD
:103A40000E94E822802F0E9464231830F0F4D7707F
:103A500081E001C0880FDA95EAF70AC080E28C0F96
:103A6000883098F4C77081E001C0880FCA95EAF7E2
:103A7000DF91CF911F910F910C94E122802FDF9164
:103A8000CF911F910F910C946423DF91CF911F91DF
:103A90000F910895CF93DF93EC014091A2025091D2
:103AA000A3026091A4027091A5022FB7F8948091AF
:103AB0009F019091A001A091A101B091A2012FBFFF
:103AC000841B950BA60BB70B843F9140A105B10554
:103AD000A8F48091A2029091A302A091A402B091B7
:103AE000A50280939E0290939F02A093A002B093A0
:103AF000A10284EF91E0A0E0B0E00EC00E94741A31
:103B000060939E0270939F028093A0029093A10203
:103B100082E390E0A0E0B0E080939A0290939B0251
:103B2000A0939C02B0939D02D093AA02C093A902D5
:103B3000DF91CF910895FF920F931F93CF93DF935F
:103B40000091AB021091AC020115110509F45CC0A3
:103B50001092AA021092A9021092A6021092A70235
:103B6000D80116966D917C9117979B013A95211576
:103B70003F4108F4707EC62FD1E0611101C0D0E052
:103B8000F82ED8011996ED91FC911A97309739F0DB
:103B90001B966D917C911C9780E00995D823DD23BD
:103BA00079F08CEF8C0F813A30F46C2F8DEB91E033
:103BB0000E94B51A05C00E945D2A8C2F0E94EF2238
:103BC000E091AB02F091AC0240815181FF2071F095
:103BD000808584FD0BC08091A802882339F091E094
:103BE0009A0121503109253A3D4508F090E090FFB7
:103BF00003C0CA010E944A1D0E945D2A1092AC02B5
:103C00001092AB021092A802C801DF91CF911F91D0
:103C10000F91FF900895FC0184818623C1F4928165
:103C20009923B9F08085692383FF04C081E0611185
:103C300011C00DC0892F8F7092959F70982B862F81
:103C40008F7062956F70682B81E0961719F080E095
:103C5000089581E00895452B41F06F3F41F491E0D4
:103C60008F3F09F090E0892F03C081E001C080E020
:103C700081700895A0919602509197024A2F45179E
:103C800019F1242F30E0F901EE0FFF1FE257FD4F2D
:103C9000608171816817790791F467E070E00E9494
:103CA0000E338A5A9D4F51E0FC0154834A130CC0D5
:103CB0002F5F3F4F237033272093960208952F5F85
:103CC0003F4F422F4370DBCF0895FF920F931F9316
:103CD000CF93DF938091F501882309F440C00091D0
:103CE000F4018091F5010817B0F5FF24F394F00E6C
:103CF000F092F40110E0C8016CE070E00E940E3315
:103D0000EC01CA50DE4F4B815C81698188810E9441
:103D10002B1E81111EC08E819F81892B21F48885E5
:103D20009985019651F4288139814A815B816C81A2
:103D30007D818E819F810E94E725C8016CE070E043
:103D40000E940E338A509E4FFC01148213821092FF
:103D5000D4020F2DC6CF1092F5011092F401DF911D
:103D6000CF911F910F91FF9008951092F30110923F
:103D7000F201E6E5F2E08581811102C0148216822B
:103D8000379682E0EE38F807B1F70895109299025D
:103D900010929802109213018091970280939602DC
:103DA0000E94B51E0C94651E4F925F927F928F9277
:103DB0009F92AF92BF92CF92DF92EF92FF920F93BA
:103DC0001F93CF93DF93C091960201E010E08EEF36
:103DD000A82E8824839480919702C81709F485C07F
:103DE0004C2E512CF201EE0FFF1FE257FD4F2081A8
:103DF0003181C90167E070E00E940E338A5A9D4FFD
:103E0000EC018C8181116DC09090F501A6EFB1E0BD
:103E1000E0E0F0E0B12CE91508F060C01A96ED90F2
:103E2000FC901B97C90167E070E00E940E338A5A2C
:103E30009D4FEC01C880D9804FEF5FEF712C872D2B
:103E400090E0BC01660F771F6C0D7D1DEB01688152
:103E500079816115710531F0E616F70609F4AC01B8
:103E60007394EDCF4F3FDFEF5D07A9F1B80102C0BA
:103E7000660F771F4A95E2F7B62AE80102C0CC0F19
:103E8000DD1F7A94E2F7CE0101974B2D50E08417A5
:103E90009507E9F4CF016CE070E00E940E33FC015D
:103EA000EA50FE4FC90167E070E00E940E33DC016A
:103EB000AA5ABD4F12968D919C9113979783868332
:103EC000A082A1823187208715968C9207C0149614
:103ED0001C921E92139731961C969DCFC9010E9489
:103EE0003A1EE2012196C37076CF0E94651EDF91D3
:103EF000CF911F910F91FF90EF90DF90CF90BF90E7
:103F0000AF909F908F907F905F904F900C94B51ED4
:103F100080911201877F8093120182E00E94E02944
:103F20008091120184FF06C08F7E8093120182E08F
:103F30000E94EE298091120185FF06C08F7D80933B
:103F4000120180E20E94EE290C945D2A662329F07A
:103F50002091D40222602093D4029C013056211576
:103F600040E2340720F0305E2115304108F49927F3
:103F70000C94082F009741F0EFE9FFE03197F1F73B
:103F800000C000000197F6CF0895AF92BF92CF9284
:103F9000DF92EF92FF920F931F93CF93DF935C0119
:103FA0007B01C42E89018091120182FF8DC0C091D6
:103FB000F001D091F101CA15DB0521F0A114B10483
:103FC00009F082C0809112018B7F8093120181FDE4
:103FD00011C08091EE019091EF01A701481B590B90
:103FE00081E020911001309111014217530718F41C
:103FF00080E001C081E08170D82E80911201D0FA5A
:1040000081F980931201FE01FF2784E0F695E79580
:104010008A95E1F79E012F703327EE0FFF1FE253C1
:10402000FE4F81E090E002C0880F991F2A95E2F7C9
:10403000DD2029F020813181822B932B06C08095D1
:104040009095208131818223932391838083809175
:10405000CD0181FF08C0809112018061809312011F
:1040600082E00E94E7298091CD0185FF08C0809100
:10407000120180628093120180E20E94E729A80168
:104080006D2DCE010E94A61FCC2031F08091C80278
:1040900085FF02C086FF36C08091CB029091CC0292
:1040A0000E94BA1F8091F0019091F1019C0130565D
:1040B000211540E2340720F0305E2115304108F42C
:1040C00099270E94EE2E18C095013327C5019056FE
:1040D000811540E2940720F0905E8115904110F424
:1040E000C90101C0C5010E94EE2E8091F00190919E
:1040F000F101A816B90611F40E94881FF092EF0191
:10410000E092EE01DF91CF911F910F91FF90EF9020
:10411000DF90CF90BF90AF9008950F931F93CF93F0
:10412000DF930DEA12E0C7EAD1E0CE010E94BB3274
:10413000F80181938F012196CB3CF1E0DF07A9F7CD
:10414000C0E0D0E0FE01EB5BFA4F859194910097BF
:1041500011F0FC0109952C96C039D10599F7DF9132
:10416000CF911F910F910895EDEAF2E0128E138E18
:104170008FEA90E09183808385E0848F28E833E1A3
:104180003383228322E330E0378B268B28EC30E028
:10419000318F208F158E2AE030E0378F268F20E573
:1041A00030E031A320A382A30E94161C0E94C522E6
:1041B0001092CC011092CB0180E090E00E9439294E
:1041C0000C948D20CF93DF93C3E9D2E060E0CE0161
:1041D0000E94C9322196C11584E0D807B9F7DF9152
:1041E000CF910895462F2091C9013091CA01232B08
:1041F00091F47E3F39F46E3F71F48091C701909144
:10420000C8010895843038F4743028F46C3018F400
:10421000672F0C945E2F80E090E008959F92AF92FC
:10422000BF92CF92DF92EF92FF920F931F93CF93A3
:10423000DF93CDB7DEB76E970FB6F894DEBF0FBE33
:10424000CDBFC090C501D090C60181E090E09093B1
:10425000C6018093C50100E010E0C80160E670E08F
:104260000E940E335C01912CE12CF12CF701EE0F32
:10427000FF1FEA0DFB1DE554FC4F259134914E2D97
:10428000692D802F0E94212F8FEFE81AF80AECE0A9
:10429000EE16F10459F7F8E1AF0EB11C939484E0E7
:1042A0009812E2CF0F5F1F4F04301105B1F60E9444
:1042B000B4201A8219821C821B821E821D821886DB
:1042C0001F8288EC90E09A8789870BEC11E04AE026
:1042D00050E0B801CE0101960E94ED32065F1F4FFB
:1042E000033FE1E01E0799F77E01FBE0EF0EF11CB2
:1042F0008AE0F70111928A95E9F74AE050E0B801A7
:10430000C7010E94ED32065F1F4F0334F2E01F0722
:10431000A1F77E0185E1E80EF11C8AE0F701119218
:104320008A95E9F78FEF9FEF9A8F898F87E08E8FBD
:104330004AE050E0B801C7010E94ED32065F1F4F0E
:104340000339F2E01F07A1F7D092C601C092C50160
:104350006E960FB6F894DEBF0FBECDBFDF91CF9142
:104360001F910F91FF90EF90DF90CF90BF90AF9093
:104370009F900895843088F49B0190E06AE070E09B
:104380000E940E33BC0165537E4F4AE050E0C901E4
:104390000E94AB3280E090E008958FEF9FEF089588
:1043A00080E090E00E944E1C80E090E00E94DC1AC9
:1043B0001092D4020C945D2ACF92DF92FF920F9359
:1043C0001F93CF93DF936C010091BC0180919C03FC
:1043D000082BC7E0D0E010E0C8010C2E02C0959574
:1043E00087950A94E2F780FD04C02197A8F7F12C85
:1043F00009C0FC2EB6018C2F0E94F2200E94A52736
:10440000019799F38F2DDF91CF911F910F91FF901D
:10441000DF90CF900895CF93DF93EC010E94DC21D1
:10442000BE010E94F2200E94A527DF91CF9108953E
:10443000282F892F9E3F59F16CE00E940533820F8F
:10444000A82FA77086958695869590E063E070E02A
:104450000E940E33FC01EF5CFC4F40E050E090E026
:10446000219130E00A2E02C0369527950A94E2F792
:1044700021703327042E01C0220F0A94EAF7922BF1
:104480004F5F5F4F4330510559F7892F089580E002
:104490000895282F892F362F9E3F69F16CE00E94E6
:1044A0000533820F982F9770A1E001C0AA0F9A954B
:1044B000EAF786958695869590E063E070E00E9425
:1044C0000E33FC01EF5CFC4F40E050E0632F70E0E6
:1044D00090819B01042E02C0369527950A94E2F73D
:1044E0002170219529272A23292721934F5F5F4F88
:1044F0004330510569F708958093BC010C94D02195
:1045000021E030E001C0220F8A95EAF720958091E2
:10451000BC0182230C947C2221E030E001C0220FF8
:104520008A95EAF78091BC01822B0C947C228093BF
:104530009C030C94D02192959F70963079F010F4E2
:10454000925001C09A50923068F4803F69F018F49C
:10455000883E40F409C0843F29F406C0883E20F01C
:10456000813F11F080E0089581E00895FC0186818B
:104570009781009719F00E94A52704C0808191813E
:104580000E940B220E949B2208951092CD0186E08A
:10459000EFEBF1E0DF011D928A95E9F70C94D02151
:1045A000882321F00E94E0290C945D2A0895882335
:1045B00039F09091D402892B8093D4020C945D2A17
:1045C0000895882321F00E94E7290C945D2A08951C
:1045D000882321F00E94EE290C945D2A08958823F7
:1045E00039F1682F8CEF860F813A28F48DEB91E03A
:1045F0000E94B51A0CC080E2860F883050F46770B4
:1046000081E001C0880F6A95EAF70E94E7290C94BF
:104610005D2A8BE5860F833020F480E090E00C94D7
:104620004E1C685A673120F480E090E00C94DC1A4C
:104630000895CF93882309F445C0C82F8CEF8C0FC1
:10464000813A78F4EFEBF1E08191C81799F181E0BC
:10465000E53CF807C9F76C2F8DEB91E00E94C21A78
:104660000CC080E28C0F883058F4C77081E001C024
:10467000880FCA95EAF70E94EE29CF910C945D2A23
:10468000EBE5EC0FE33040F4F0E0E55CFE4F8081B9
:1046900090E0CF910C944E1CC85AC73198F4EC2F7F
:1046A000F0E0EE0FFF1FE25CFE4F80819181CF9121
:1046B0000C94DC1A6C2F8DEB91E00E94B51A0E94CD
:1046C0005D2AC9CFCF9108951F93CF93DF93182F01
:1046D000893329F4C091CD02D091CE0204C0C0919B
:1046E000CB02D091CC02812F0E941923209741F058
:1046F0008FE99FE00197F1F700C000002197F6CF06
:10470000812FDF91CF911F910C94EF222F923F9236
:104710004F925F926F927F928F929F92AF92BF92D1
:10472000CF92DF92EF92FF920F931F93CF93DF937D
:10473000CDB7DEB765970FB6F894DEBF0FBECDBF1D
:104740008C0185E0F801DE01519601900D928A9569
:10475000E1F7D8014C9011965C9011971296EC906D
:1047600012971396CD90DC90149760E083E493E069
:104770000E942C2C83E4A82E83E0B82E8090460360
:1047800090904703A40160914403809143030E94E9
:104790002B1EF82E8111E5C130904503F601E81972
:1047A000F9094F0160E0332009F469C1C5010E9495
:1047B0002C2C6090C5027090C6022090480386148D
:1047C000970408F014C14091460350914703B090FC
:1047D0004303A0904403822D807F6A2D09F097C087
:1047E0008B2D0E942B1E811124C0D80111968C9113
:1047F00011978A111EC08C918B111BC02091490307
:1048000030914A0316968D919C9117972817390776
:1048100081F4E1100EC0822D8F7080618093480377
:1048200083E493E00E94780380914803F801858334
:10483000B4C1F4EF6F16F1E07F0620F48091CA0254
:1048400080FF21C0A601652D842D0E942B1E8111A1
:1048500003C081E08E2502C080E090E080FF13C09D
:104860004E2D652D842D0E94B92A882361F083E4A2
:1048700093E00E947803E3E4F3E088E0DF011D9217
:104880008A95E9F78AC1A601652D842D0E942B1E09
:10489000811103C081E08E2502C080E090E0B82F36
:1048A000B170CB2E80FF2AC04E2D652D842D0E9425
:1048B000B92AD82E811122C0498A5A8A89899A89AF
:1048C0000E940B22292F22952F70223018F02430BD
:1048D00078F405C09F7049F0811107C00DC09F702A
:1048E00021F0F8019581907F39F0805E883020F0CA
:1048F000C8010E947803DC2CFD2C4FC1EE2009F486
:104900004BC18091480381608093480346C18B2D41
:104910000E942B1E811124C0D80111968C911197F1
:104920008A111EC08C918B111BC0209149033091BC
:104930004A0316968D919C9117972817390781F491
:10494000E1100EC015962C92C8010E94780388E0F1
:10495000F801A3E4B3E001900D928A95E1F76FC0EE
:10496000C8010E94B6228823E1F1EE20D1F1209106
:104970004803822F82958F7090E00297A4F0809177
:104980004303909144039A8789871B86DD86CC86F2
:104990002E878091490390914A03988B8F87CE018F
:1049A00009960E94780388E0F801A3E4B3E001903F
:1049B0000D928A95E1F70E94E32A16C0F090430316
:1049C000909044034091460350914703692D8F2DE9
:1049D0000E942B1E882399F0C8010E94B6228111E3
:1049E00030C0C8010E947803FF24F394D6C0822D02
:1049F000807F21F783E493E00E947803ACC0D80164
:104A000011968C9111978911E7CF8C918F11E4CF7A
:104A10002091490330914A0316968D919C911797E6
:104A200028173907C9F6E110D7CF15962C92C8017F
:104A30000E94780388E0F50111928A95E9F7F32C3A
:104A4000ACC0EE2071F220914803822F82958F70C6
:104A500090E002970CF4A7CF809143039091440318
:104A60009A8389831B82DD82CC822E8380914903C5
:104A700090914A0398878F83CE01019692CF83E469
:104A800093E00E942C2C8091C5029091C60288165A
:104A9000990608F060C0FE2CEE2009F4A2CFE09049
:104AA0004303D090440340914603509147036D2D3A
:104AB0008E2D0E942B1E811140C0D80111968C9121
:104AC00011978D113AC08C918E1137C020914903F6
:104AD00030914A0316968D919C91179728173907A4
:104AE00061F58091CA0282FD1FC08091480380FD5C
:104AF0001BC082958F70482F50E041155105A1F0E1
:104B00002091480315962C9315974F30510549F085
:104B10008F5F982F9295907F822F8F70892B15969B
:104B20008C93C8010E94780388E0F801A3E4B3E005
:104B300001900D928A95E1F730C0C8010E94B6221B
:104B4000811131CF80914803816080934803C8016F
:104B50000E94780322C088E0F50111928A95E9F756
:104B60001CC0EE2009F43DCFC8010E94B622F82EE9
:104B7000882309F436CF88E0F801A3E4B3E001907C
:104B80000D928A95E1F780914303909144030E942E
:104B90000B220E94E32A01C0F12C8F2D65960FB6DF
:104BA000F894DEBF0FBECDBFDF91CF911F910F9163
:104BB000FF90EF90DF90CF90BF90AF909F908F903D
:104BC0007F906F905F904F903F902F900895EF925D
:104BD000FF920F931F93CF93DF93CDB7DEB760970C
:104BE0000FB6F894DEBF0FBECDBF29873A874B873B
:104BF0005C876D877E878F87988BCE0109960E9490
:104C0000862381114CC088E0FE013996DE011196A1
:104C100001900D928A95E1F7E984FA840C851D854F
:104C2000A8016F2D8E2D0E942B1E811138C0A091DE
:104C30004B03B0E0CD0101968770992720918C033A
:104C400030E08217930791F1E982FA821D830C8389
:104C500033E0AA0FBB1F3A95E1F7A45BBC4F98E085
:104C6000FE01319601900D929A95E1F780934B03E6
:104C70000E94D92A14C090E023E0880F991F2A953A
:104C8000E1F7845B9C4F0E9486238823E1F08091AA
:104C90008C0390E001968770992780938C03809114
:104CA0008C0390914B038913E6CF0DC00E94C5225F
:104CB00010924B0310928C03E3E4F3E088E0DF01F1
:104CC0001D928A95E9F760960FB6F894DEBF0FBE85
:104CD000CDBFDF91CF911F910F91FF90EF9008957D
:104CE00080E008959091CB0192FF0DC0282F28718C
:104CF000283019F4877F846006C0282F247124305F
:104D000011F48B7F886093FF0DC0282F2871283104
:104D100019F4877E846106C0282F2471243111F490
:104D20008B7E88612091CC0120FF0DC0382F387117
:104D3000383019F4877F816006C0382F31713130E7
:104D400011F48E7F886021FF0DC0282F2871283133
:104D500019F4877E816106C0282F2171213111F459
:104D60008E7E886194FD877E0895F894E82FE29501
:104D7000EF70F0E031A1282F2F7081E090E001C0AA
:104D8000880F2A95EAF7982F9095932391A392A1E3
:104D9000892B82A3789408958F929F92AF92BF92AD
:104DA000CF92DF92EF92FF920F931F93CF93DF93F7
:104DB000CDB7DEB728970FB6F894DEBF0FBECDBFD4
:104DC000AE014F5F5F4F7A0188E0FA0111928A9538
:104DD000E9F70CE111E06A01AA24A394B12CF801CF
:104DE00080818F3F09F447C0F894E82FE295EF7077
:104DF000F0E021A18F70A50102C0440F551F8A95D4
:104E0000E2F7CA01922F982B91A392A18095892352
:104E100082A3789400C0E0E2F1E021E030E0812C50
:104E2000912C41914F3F89F0A42FA295AF70B0E033
:104E300090968C9190E04F7002C0959587954A9519
:104E4000E2F780FD02C0C90102C080E090E0882A3C
:104E5000992A220F331F51E0EC32F50711F7F801C0
:104E600080818F3F11F00E94B526F0EAFA95F1F7A4
:104E7000F601918280820F5F1F4FF2E0CF0ED11CAE
:104E800041E00032140709F0AACF48E050E0B70132
:104E900084E791E00E942C3311E0009709F410E0C0
:104EA000892B89F088E0F701A4E7B1E001900D9229
:104EB0008A95E1F781E080939F030E94801A909386
:104EC0009E0380939D0380919F03882351F18091DD
:104ED0009D0390919E030E94651A059710F18091A1
:104EE0007401909175019093930180939201809148
:104EF0007601909177019093950180939401809130
:104F00007801909179019093970180939601809117
:104F10007A0190917B01909399018093980110926E
:104F20009F03812F28960FB6F894DEBF0FBECDBF2A
:104F3000DF91CF911F910F91FF90EF90DF90CF9075
:104F4000BF90AF909F908F900895CF93DF9382385A
:104F5000910569F1B0F48133910509F46FC048F40B
:104F60008932910509F465C08A32910509F46BC054
:104F70008AC08533910509F457C089339105B9F08A
:104F800082C0833E910571F138F4803E9105B1F005
:104F9000823E910511F177C0863E9105B9F1873EB9
:104FA0009105C9F1843E910509F06DC024C020919E
:104FB000CB0120FD53C021FD51C065C08091CB01C4
:104FC00080FD46C08091CC0180FF48C08091CB011C
:104FD00084FD4AC183EE90E049C18091CB0182FFFC
:104FE0003AC0F4CF8091CB0182FD35C08091CC01D5
:104FF00080FD34C0EBCF8091CC0181FF35C0809122
:10500000CB0184FD31C187EE90E030C18091CB01AE
:1050100083FF27C0F4CF8091CB0183FD22C0809114
:10502000CC0181FD21C0EBCF8091CB0185FD1FC05C
:1050300021C08091CB0185FD1DC019C08091CB019D
:1050400086FD1BC01DC08091CB0186FD19C015C017
:1050500089E390E00BC182EE90E008C180EE90E021
:1050600005C186EE90E002C184EE90E0FFC089E2C7
:1050700090E0FCC085E390E0F9C08AE290E0F6C0E1
:1050800081E390E0F3C0811532E5930708F06CC02E
:10509000811541E5940728F0982F8827816F906A41
:1050A000E5C0883E910568F5803E910508F0DEC0B8
:1050B000883A9105B8F4853A910548F0855AE82F69
:1050C000F0E0E55CFE4F808190E09064CFC08130DD
:1050D000910509F4C6C008F4C7C08430910508F4EE
:1050E000C3C0C4C08F3B910508F0BEC0885AE82FEA
:1050F000F0E0EE0FFF1FE25CFE4F8081918194642F
:10510000B5C0811520E5920708F19C01F4E03695C1
:105110002795FA95E1F7922F9370482F437021E07D
:1051200030E002C0220F331F4A95E2F73C68392B6A
:105130008F70982F96959695892F90E0A5E0880F0F
:10514000991FAA95E1F7822B932B90C0811530E42B
:10515000930718F09F70906A89C09C013A952115B9
:105160003F4108F483C080C0EC01C11586E5D80733
:1051700008F044C0C11525E5D20748F08C2F0E94E5
:1051800072268F7190E0982F882790626FC0C115AA
:1051900034E5D30728F09C2F8827846F906A66C077
:1051A000AE01437055276C2F66956695C115D345A2
:1051B00090F421E030E002C0220F331F4A95E2F75D
:1051C000862F90E075E0880F991F7A95E1F7822B82
:1051D000932B9C684BC081E090E09C0102C0220FA1
:1051E000331F4A95E2F7862F90E065E0880F991FFC
:1051F0006A95E1F7822B932B9A6838C0C1152AE58E
:10520000D207F8F4C11539E5D30790F08C2F8F70D1
:105210000E94722694E0D695C7959A95E1F7CF70D3
:10522000D0E0DC2FCC27D0699E01282BC9011EC0FD
:10523000C11548E5D407C0F09C2F8827806F906A7D
:1052400015C0CE0190568115904270F48D2F8F714C
:105250000E947226282F2F71CE0199279062922BDF
:1052600005C081E090E002C080E090E0DF91CF9146
:105270000895CF93C92F682F84E090E00E94C9322F
:105280006C2F82E290E0CF910C94C932CF9384E0EE
:1052900090E00E94BB32C82F82E290E00E94BB32B5
:1052A0002C2F30E0A901582BCA01CF91089569EE47
:1052B0007EEF80E090E00E94E73260E082E090E0E4
:1052C0000E94C93260E083E090E00E94C9321092EF
:1052D0009C0360E084E090E00E94C93260E082E2DA
:1052E00090E00E94C93260E085E090E00E94C932FF
:1052F00060E086E090E00E94C9326FEF87E090E0C6
:105300000E94C93240E050E0BA0188E090E00E947B
:10531000DB3260E08DE090E00E94C93240E050E076
:10532000BA0188E190E00E94DB3260E087E190E022
:105330000E94C93240E050E0BA018CE190E00E9446
:10534000DB3260E070E080E290E00E94E73240E013
:1053500050E0BA0188E190E00E94DB3280E00E94D8
:105360005C320E947A3240E050E0BA018FE090E077
:105370000E94DB3240E050E0BA0183E190E00C94FF
:10538000DB3280919B03882331F010929B031092B3
:105390009A03109299030895CF939091CC0192FDB6
:1053A0000DC090919B03981749F0C82F0E94801A56
:1053B00090939A0380939903C0939B03CF91089590
:1053C00080959091D40289238093D402089580958A
:1053D0009091CD0189238093CD0108959091CD01C5
:1053E000892B8093CD0108951092900310928F0322
:1053F00010928E03089520919003809582238093CC
:105400009003982F977099F430E0482F082E000CE5
:10541000550B2417350759F09091CC0192FD07C028
:105420008595859585950E9480220C94F429089590
:105430009091CC0192FB222720F9281769F080FB7C
:1054400092F99093CC018091CB019091CC010E9474
:10545000392982E00C94FB2908959091CC0192FDAA
:1054600010C0982F990F990F990F692B6093900393
:105470000E948C220E94801A90938F0380938E0347
:1054800008950C948C228091AF029091B002892BE8
:1054900089F00E94801A2091990330919A03AC01FF
:1054A000421B530B81E02091AF023091B0024217B2
:1054B000530708F480E0817008959091CD018091A8
:1054C000D402892B8093BD0180919B03882301F135
:1054D0008091AF029091B002892B29F00E94432A5B
:1054E00081110E94C1299091BD0180919B03892B5C
:1054F0008093BD01EFEBF1E097E080E0915029F05F
:1055000021912223D9F38F5FF9CF81110E94C12904
:105510008091A60280959091BD0189239091A70268
:10552000892B8093BD0148E050E061E973E08DEB89
:1055300091E00E942C33892BA9F088E0EDEBF1E09B
:10554000A1E9B3E001900D928A95E1F7E0919A010B
:10555000F0919B01309731F00280F381E02D8DEBCB
:1055600091E00994089580918D03811110928D032B
:10557000089520918C0390914B032917B1F030E0EE
:10558000F90153E0EE0FFF1F5A95E1F7E45BFC4F82
:105590005181561306C05081581303C052815413D1
:1055A00006C02F5F3F4F2770E8CF80E0089581E06D
:1055B000089580918C0390914B03891719F08F5FA8
:1055C0008770FBCF0895CF92DF92EF92FF920F93F7
:1055D0001F93CF93DF938091480382958F7009F0DA
:1055E0005CC080914503882309F457C0C0918C03A7
:1055F00080914B03C81709F450C0F0904303E0902A
:105600004403C0904603D0904703A6016E2D8F2D12
:105610000E942B1ED0E081113DC08E0183E0000F5F
:10562000111F8A95E1F7F801E45BFC4F81818E112F
:1056300031C080818F112EC0828181112BC0E38007
:10564000F480EC18FD0860E083E493E00E942C2CC9
:105650008091C5029091C602E816F906D8F48091AF
:1056600048038F70806180934803F801EF5AFC4F24
:1056700080818F708061808383E493E00E9478034F
:10568000DF91CF911F910F91FF90EF90DF90CF901E
:105690000C94D92A2196C770ABCFDF91CF911F917F
:1056A0000F91FF90EF90DF90CF900895BF92CF922F
:1056B000DF92EF92FF920F931F93CF93DF93EC0152
:1056C0002881222309F495C0213009F03FC0898147
:1056D000813039F48E010E5F1F4F8A810E9464234E
:1056E00008C0823041F48E010E5F1F4F8A810E94F4
:1056F0001923E8017CC0833039F48E010E5F1F4FFF
:105700008A810E94EF22F5CF843011F021966FC07C
:105710002A81229680E090E030E0205331092A303F
:10572000310548F46AE070E00E940E33820F931F47
:1057300021962881F1CF009709F459C0EFE9FFE0E5
:105740003197F1F700C000000197F5CFE22FF0E0AC
:10575000E550FA4FB490822F86958695869590E015
:10576000FC01E551FA4FE4902770F12C022E02C0A3
:10577000F594E7940A94E2F7F1E0EF22FF24FC01AC
:10578000E552FA4FC490D12C022E02C0D594C79492
:105790000A94E2F731E0C322DD24FC01E553FA4F1D
:1057A000049110E002C0159507952A95E2F7017063
:1057B0001127E114F10419F081EE0E941923C1149C
:1057C000D10419F086EE0E9419238B2D0E946423C8
:1057D000CD2819F086EE0E94EF22EF2819F081EE15
:1057E0000E94EF22012B19F08CE20E946423219683
:1057F00067CFDF91CF911F910F91FF90EF90DF90D6
:10580000CF90BF9008951F93CF93DF9300D000D027
:105810001F92CDB7DEB749835A8389819A81662367
:1058200059F0222349F00E94DC21182F682F89812A
:105830009A810E94492203C00E941822182F698170
:105840007A81812F0F900F900F900F900F90DF9122
:10585000CF911F910C94F220FC01262F8681978115
:10586000009739F4408151816281738184810C9465
:10587000032C08952F923F924F925F926F927F92E6
:105880008F929F92AF92BF92CF92DF92EF92FF9250
:105890000F931F93CF93DF93CDB7DEB76A970FB601
:1058A000F894DEBF0FBECDBF942F498B252F5A8BA6
:1058B0006B8B7C8B8D8B4C895D89622F892F0E942D
:1058C0002B1E811109C08091710190917201019686
:1058D00090937201809371018B8981111092D4028F
:1058E0008E01075F1F4F88E0D8011D928A95E9F766
:1058F00085E0FE017196D80101900D928A95E1F73D
:105900008091CC0182FD28C08091AF029091B002BD
:10591000892B11F10E94801A20918E0330918F0300
:10592000821B930B2091AF023091B0028217930734
:1059300040F08091900382FB992790F981E08927BC
:1059400001C080E080FF03C082E00E94FB290E942A
:10595000432A81110E94C1294C855D856A8589850C
:105960000E942B1E8111EAC161E0C8010E942C2C0B
:105970006C01873FBCE59B0739F48B858823A1F038
:1059800081E080931301DAC1883FECE59E0731F492
:105990008B85882349F00E94C61ED0C1893F9C4553
:1059A00019F48B85811112C006E512E0912CA12C0F
:1059B000B12C22242394312C55245394AE014F5FF3
:1059C0005F4F5F8B4E8BAEEF4A2E51C0809113011B
:1059D0008823B1F2E0CFC616D70609F097019F5F82
:1059E0007901292F30E0F901EE0FFF1FE40FF51FB9
:1059F000608171816115710571F7BFEFEB16FB06D0
:105A000009F447C1F8016481611139C02091130183
:105A1000822F81708B84D80115963C91159716962C
:105A20002C911697882009F4D3C0882309F4D0C09C
:105A30006090C3027090C402332321F1910102C02F
:105A4000220F331F9A95E2F721503109F801868120
:105A500090E02817390751F19828BFEFAB1ABB0A1D
:105A6000095F1F4FE8E0AE16B10409F414C1D80174
:105A70004D915C91EE24EA94FE2C90E0B2CF20E0B0
:105A800030E0C6CFA10101C0440FEA94EAF7242B0D
:105A900016962C932091F2013091F30126153705CB
:105AA00068F67092F3016092F201C8CF809198027B
:105AB00090919902009749F00E94651A681679063C
:105AC00020F4D80114965C92C7CF20919602B09131
:105AD0009702B88FA0E0B0E0F88D2F1709F465C0E9
