:100000000C943E030C9476030C9476030C947603C4
:100010000C9476030C9476030C9476030C9476037C
:100020000C9476030C9476030C9476030C94B61817
:100030000C9472180C94D0190C9476030C947603DB
:100040000C9476030C9476030C9476030C94831929
:100050000C9476030C9476030C9476030C9476033C
:100060000C9476030C9476030C9476030C9476032C
:100070000C947603000B000B300B300BC90B220DD8
:10008000220D220DE70B5A0C6D0C6D0CE311F911CA
:100090000012D513D513381244125312D5135A1225
:1000A0008112A512DB12DE12EA12F5120D134813AB
:1000B0005C138513AA137C16A3165418A3165418A0
:1000C000EF16121754180F181F18FD377A585A00D8
:1000D0000004E6D6B4460200210116000000742F89
:1000E000E5A3E004C901685D003D888986D3DC0A88
:1000F000E842C324925842588FD8E75CA0D2616E80
:1001000026E888019A676C7887BC8D3709EA0E1457
:1001100059A53C798586633FDCC445A3F020FF20C8
:10012000B3687235CC77FE57EDF5D44ED910B324B1
:1001300088B68C7499D1CA132E83A6FB9FB5BBCC0D
:1001400075FFC5D6994EE3CF8F86533FFDC1B59B52
:100150004499A932F3D15AEE0FDD893E9F7569EBC0
:10016000B62CF3677C16F0F708B817CBB892D1D647
:100170003F2F9F88476F16F1B728D6FC82D6C762FB
:100180008E5B88176E0A82C97F11CC6638E479F8D5
:1001900079398F7EE8092E66263BE605B941B3A181
:1001A000EEE34F45949DC9FF8B8FD15E12AC2518AD
:1001B000C6AE2CCD666B3D7BFC8ACC73E88F12A853
:1001C000DDFAC3AC47A20AE94052D91AB517009725
:1001D0005E32EB5F020C25D2720E140BB095BBFFA2
:1001E000C6E53A21270EB1099A80F793BFA2880786
:1001F0006542D282E6750C866B10947A0B74F1A777
:1002000002FC8A489B34E0721F189DC5413E81FD67
:10021000AE73D997DC10F6716F3CCB9C875460109D
:10022000504E263CF2564D49C94E83066464B16B6C
:10023000B14BD37B734EEDF768BBF5BA93F732261B
:10024000BC56C8AA47936EC799B04C2D77A0B0662C
:100250000000B668727AE197AD5A00018403CA09BA
:1002600000002ECDF517B1C467FB020000000004AA
:10027000595A05010980A101850319012AB7001502
:100280000126B700950175108100C0050C0901A178
:1002900001850419012AA002150126A00295017505
:1002A000108100C00660FF0961A1010962150026E6
:1002B000FF009520750881020963150026FF00954F
:1002C0002075089102C005010906A101050719E082
:1002D00029E715002501950875018102950175082A
:1002E00081010507190029FF150026FF00950675F5
:1002F00008810005081901290595057501910295E8
:100300000175039101C009025B00030100A0FA0915
:100310000400000103010100092111010001224034
:100320000007058103080001090401000203000021
:10033000000921110100012222000705820320008B
:100340000107050303200001090402000103000066
:100350000009211101000122320007058403200059
:100360000112010002000000083412785601000159
:100370000203011C037600690061006C003A00660C
:100380000036003400630032006200330063000076
:10039000000A03710073003100330000001803717C
:1003A000007500610072006B002E0077006F007214
:1003B000006B007300000004030904290014001AF4
:1003C000000800150017001C0018000C0012001394
:1003D000002A002B0004001600070009000A000B89
:1003E000000D000E000F0033004C00E1001D001B4B
:1003F0000006001900050011001000360037003813
:10040000002800E000E300E20000002C002C0000C7
:10041000000000E600E700E400E500010001000143
:1004200000010001000100010001000100010001C4
:1004300000010001000100010001000100010001B4
:1004400000010001000100010001000100010001A4
:100450000001000100010001000100010001000194
:100460000001000100010001000000010001000086
:100470000000000100010001000100010001000175
:100480000001000100010001000100010001000164
:100490000001000100010001000100010001000154
:1004A0000001000100010001000100010001000144
:1004B0000001000100010001000100010001000134
:1004C0000001000100010001000000010001000026
:1004D0000000000100010001000100010001000115
:1004E0000001000100010001000100010001000104
:1004F00000010001000100010001000100010001F4
:1005000000010001000100010001000100010001E3
:1005100000010001000100010001000100010001D3
:1005200000010001000100010000000100010000C5
:10053000000000010001000100010001000100D9DC
:100540000206203920000002000200D502062039F0
:1005500020000003000100DA020620392000000418
:10056000000200BF02062039207F1F05000100DBCA
:100570000206203920000006000200C102062039D0
:1005800020000007000200D70206203920000008E2
:10059000000100DC0206203920000012000200DD0C
:1005A0000206203920000013000200DF0206203975
:1005B00020000014000100E102062039200000158F
:1005C0000000000000F81E881F000000000000006E
:1005D000000000000000000000000000000000001B
:1005E0000000000000000000000000000000007E8D
:1005F0000F00D4FFFFFFC7000000780000000000DC
:100600000000002A2B28000000000000000000006D
:1006100000000000000029000000002C1E342021F2
:100620002224342627252E362D3738271E1F202139
:1006300022232425263333362E37381F0405060798
:1006400008090A0B0C0D0E0F1011121314151617B2
:1006500018191A1B1C1D2F3130232D3504050607D0
:1006600008090A0B0C0D0E0F101112131415161792
:1006700018191A1B1C1D2F3130354C0011241FBEB8
:10068000CFEFD4E0DEBFCDBF04B603FE18C080912B
:10069000870490918804A0918904B0918A048730DE
:1006A000904BA740B04B59F41092870410928804E5
:1006B0001092890410928A04E0E0F8E3099511E0B1
:1006C000A0E0B1E0EEE1F5E602C005900D92AE3695
:1006D000B107D9F724E0AEE6B1E001C01D92A7381A
:1006E000B207E1F70E948C0D0C948D320C9400003F
:1006F0002F923F924F925F926F927F928F929F9232
:10070000AF92BF92CF92DF92EF92FF920F931F931F
:10071000CF93DF93CDB7DEB72C970FB6F894DEBF3B
:100720000FBECDBF7C01DC0113964D915C911497F7
:1007300011966C9111978C910E940F2281110C944B
:10074000730D61E0C7010E94702B8C01F70182815B
:10075000811106C0D70112963C9031103EC08DC663
:1007600080910D0190910E010196A1F379EEC72EB3
:1007700072E0D72EA12CB12C9924939480910D0175
:1007800090910E018A159B052CF3F6018681882332
:10079000E9F0818592850817190739F48091E702FD
:1007A0009091E8020817190789F0D6011F969C92CC
:1007B0001F971C961C930E931B97C6010E949520B1
:1007C000C60106960E9454201092E602BFEFAB1AB3
:1007D000BB0AE6E1CE0ED11CD1CFC80182519F45A4
:1007E000409708F0AFC08FEF93E00E94FF31811176
:1007F00031C66EEED62ED00E03E912E0DD2071F088
:100800000115F4E01F0709F425C6C8010E94FF3155
:10081000811101C0DA940F5F1F4FF0CF19821A8245
:100820001B821C8268012FEFC21AD20AC8010E94E3
:10083000FF3189831A82882309F40CC6813009F0BC
:100840007CC0580132E0A30EB11CC6010E94FF31EA
:10085000982E8A83882309F4FDC58FEF890D833094
:1008600060F4680143E0C40ED11CC5010E94FF3151
:100870008B83811162C08601D5CF8BEF890D8330C8
:1008800078F5380153E0650E711CC5010E94FF31F7
:100890008B83811102C06301EECF680184E0C80E32
:1008A000D11CC3010E94FF318C83882321F32B814B
:1008B0003C8121309FEF390718F0922F80E001C072
:1008C000C901A6E09A1631F0B7E09B1631F00E94FC
:1008D000D130D1CF0E94A030CECF0E941730CBCFE5
:1008E000E4E09E1611F06501C6CFC5010E94FF31FC
:1008F000B82E6801F4E0CF0ED11CC80103960E9407
:10090000FF31BB2009F4A6C5882309F4A3C590E0F4
:1009100001976FEF70E00E9452322B2D30E0215092
:100920003109820F931F019708F4A5CFAFE9BFE00B
:100930001197F1F700C00000F6CFCE0101960E949A
:100940009A2A99CF0031EFE51E0731F00131FFE51A
:100950001F07B1F482E001C081E00E94141B0E94D5
:100960009B1478C5680127E5D21A3FEFC316D1045E
:1009700009F008F491C5D70112963C903320D1F0CC
:100980000F35BDE51B0761F00036EDE51E0761F090
:100990000E35FDE51F0771F480910001811104C03F
:1009A00081E08093000156C51092000180E00E9412
:1009B0007F2150C58091000181110AC0580127E5AF
:1009C000B21A3FEFA316B10409F008F47AC1D4C1FA
:1009D000480140EE841A91082090990380918B037E
:1009E000282A8091DF01282A58E08516910480F496
:1009F00098012770332781E090E001C0880F2A9585
:100A0000EAF7332011F0282A18C08095282215C053
:100A1000332009F416C110937101009370010E94F4
:100A2000B8196093B4027093B5028093B6029093A4
:100A3000B7021092BC021092BB02D7018D919C911B
:100A40000E94A01A21E030E0F90102C0EE0FFF1F62
:100A50008A95E2F7FC87EB872091BD023091BE02B8
:100A600038872F8340917001509171015A874987CF
:100A70001D82432C512C5D81E52FF0E0EE0FFF1F0E
:100A8000E350FC4FC080D180C114D10409F4F0C000
:100A9000211005C0D60112968C918111CEC0F601AD
:100AA000838190E02B853C8582239323892B09F455
:100AB000C4C08085982F977009F487E038E08316CA
:100AC000910440F4332019F081FD09C0B6C082FDC5
:100AD00006C0B3C0332009F4B0C080FFAEC0D60159
:100AE000AD90BC900A151B0519F4332009F4A5C07C
:100AF000EF81F885CE16DF0609F49FC0D6011D965A
:100B0000ED91FC911E97309721F08081882309F4A4
:100B100094C0622DC6010E94EF21882309F48DC084
:100B20000A151B0511F4320102C0612C712CB62D7F
:100B3000B170BE8381E0A114B10441F0B11106C0CF
:100B4000E985FA85AE16BF0609F080E080FF75C022
:100B500080E00E947F21D092BE02C092BD0281E05F
:100B60008093BA02D60115968C918093B802BE810B
:100B7000B11113C0AB2889F0F601808191819C01ED
:100B800024503109213A310530F4682F81ED91E08C
:100B90000E94F91902C00E94771BD6011696AD90EB
:100BA000BC901797C5019A9581159F4110F4E0EE0E
:100BB000BE2255245394C5010197853A9D4508F0FE
:100BC000512CD6011996ED91FC911A97309739F076
:100BD0001B966D917C911C9781E0099558225520B8
:100BE00029F1F601868197810E94052E8093B90232
:100BF000C501F8E08F16910418F40E942E2116C04A
:100C00000497813A910530F46A2D81ED91E00E94BC
:100C1000061A0EC00E94A1298FE39CE90197F1F703
:100C200000C000008A2D0E94A11B02C00E94A129C1
:100C300091E0692660FE80C1C1CEAD81AF5FAD831A
:100C40001ACF80917001909171010817190781F4F2
:100C500010927101109270011092B4021092B502BC
:100C60001092B6021092B7021092BC021092BB0210
:100C70008091BD029091BE02009709F49FCEB8E02A
:100C80008B16910438F4622D0E94EF21811196CECB
:100C900081E014C0FC01208131810217130729F47F
:100CA000311006C01092BA0208C0332009F486CE73
:100CB000DC0118968C9185FD81CE80E00E947F2119
:100CC0007DCE80910D0190910E018A159B0524F433
:100CD000B0920E01A0920D01F7012281C50166E1DB
:100CE00070E00E94523287519D4F6C01DC0150969A
:100CF0002C935097928116968C911697992369F1AF
:100D00001A961C930E9319978F5F16968C930E94D8
:100D1000C419F601968785878091990387839091FE
:100D2000E6028091DF01892B80870190F081E02D20
:100D3000309771F0D60154962D913C915597C5018D
:100D400066E170E00E945232B90181519D4F0995D0
:100D50001093E8020093E7020FC0882369F0F601C0
:100D60008189882349F0C50166E170E00E94523212
:100D700081519D4F0E9454208091DA0280FF9DC0D6
:100D80000E94C4196C01D70112968C918823D9F165
:100D90008091140182FF08C027E831E040E0B601ED
:100DA00080E090E00E94A9230B31BCE51B0779F09D
:100DB0000C31ECE51E0789F00A31FCE51F07A1F4B0
:100DC00080911401982F909590FB80F909C0809133
:100DD000140181608093140107C0809114018E7FFB
:100DE000809314010E946C23C8019056811520E263
:100DF000920720F0905E8115904180F510920302D9
:100E0000109202025AC0013E110521F48091140192
:100E10008F7E06C0053E110531F4809114018F7D4F
:100E2000809314011BC0C8019056811540E29407BD
:100E300020F0905E8115904188F48091140182FF2A
:100E40003CC08091DC0281FD38C027E831E040E001
:100E5000B60180E090E00E94A9232FC08091140188
:100E600080FF2BC0D70112968C910832110538F4FF
:100E70000E311105B8F40430110578F41CC00933A3
:100E8000110538F40D32110590F40B32110579F08B
:100E900012C00436110559F00EC09091DA0294FD8B
:100EA0000AC04DC09091DA0293FD05C048C09091F0
:100EB000DA0292FF44C08111EFC0033FFCE51F0737
:100EC00009F417C108F01BC1083D3CE5130709F4FC
:100ED0000AC1093D4CE5140709F42DC1073D5CE545
:100EE000150709F4FAC0D70112962C9121112CC1D3
:100EF0000631BCE51B0709F08EC28091DF01982FF7
:100F00009A7A3091D90230FD5FC231FD63C232FD61
:100F100067C233FD6BC2222309F471C281E09111D3
:100F200001C080E080937201992309F466C265E3F1
:100F300081ED91E00E94061A0E94A1298BC28823AC
:100F400009F4A3C02091DF0180919903982F922B7F
:100F5000392F3D7F79F110920302109202023091F5
:100F6000DA0231FD27C0F80143E0F695E7954A958E
:100F7000E1F7EE71FF27E052FE4F98012F70332703
:100F800081E090E002C0880F991F2A95E2F78095D2
:100F90009095208131818223932391838083A701BF
:100FA00060E0C8010E948A23809199038D7F0E948E
:100FB000102967C038E0F701A7E8B1E001900D9271
:100FC0003A95E1F71092890110928B0110928A01F3
:100FD000409102025091030204171507D1F5309198
:100FE000DA0235FF36C04091140141FF02C036FFDE
:100FF00030C04091000250910102B601641B750B94
:101000004091D7025091D8026417750710F521FF5F
:1010100008C08091140180618093140182E00E94D5
:101020002B298091DF0185FF08C080911401806227
:101030008093140180E20E942B296091140166952F
:101040006170A70180910202909103020E948A239D
:1010500001C2969591702091140190FB21F9209383
:1010600014018D7F0E941029109303020093020245
:10107000D0920102C092000280911401846080939A
:10108000140182E00E943F29E5C1970140E0B601CA
:10109000C8010E94A923DEC110920302109202022D
:1010A000033FBCE51B0729F170F4083DFCE51F0771
:1010B000D1F0093D2CE51207F1F1073D3CE513079E
:1010C00009F042C00AC0053F4CE5140719F1E0F0F1
:1010D000063F8CE5180749F137C006E221EE41EEE4
:1010E00067ED7CE52DC007E225EE45EE68ED7CE579
:1010F00027C006E221EE40EE63EF7CE521C0053F0C
:101100008CE5180739F060F407E225EE44EE64EF51
:101110007CE516C006E221EE42EE65EF7CE510C0EC
:10112000063FACE51A0709F0DECE07E225EE46EEF3
:1011300066EF7CE505C008E221E045EE69ED7CE55F
:10114000C7010E94B72086C11092E5020330BDE5B9
:101150001B0758F40A3FECE51E0780F4C8018250D3
:101160009C45449708F02EC109C00136FDE51F07D4
:1011700029F0053A2DE5120709F024C10E948A28BA
:101180009093DE018093DD0101313CE5130709F402
:10119000C6C008F042C009305CE5150709F49BC0E1
:1011A00000F505309CE5190709F485C078F4033093
:1011B000BCE51B0709F478C008F07AC002301C4572
:1011C00009F0F7C08091DD018160F1C007302CE5A6
:1011D000120709F478C008F07AC08091DD018061BF
:1011E000E6C00D304CE5140709F487C058F40B3005
:1011F0008CE5180709F479C008F07BC08091DD0107
:1012000088606FC00F30ACE51A0709F480C008F0A1
:1012100082C08091DD01877FCAC00D3FECE51E07CB
:1012200009F471C000F505312CE5120709F485C0F9
:1012300068F403314CE5140709F475C008F095C053
:101240000E944D1B8091DD018F77B1C00B3F8CE573
:101250001807A9F108F054C00A3F1C4509F0A9C0BD
:101260008091DE0140C00130BDE51B0709F489C053
:1012700058F40F3FFCE51F0709F45AC008F069C095
:101280008091DE0182602FC001363DE5130709F42D
:101290007EC0053A4DE5140709F483C002301D45B0
:1012A00009F087C060E06EC08091DD0182607FC080
:1012B0008091DD0116C08091DD01886078C0809149
:1012C000DE0182604FC08091DD01806270C080913C
:1012D000DD0180646CC00E944D1B8091DD0180683F
:1012E00066C0846064C081603DC08091DD018E7FF6
:1012F0005EC08091DD018D7F5AC08091DD0116C0F6
:101300008091DE0118C08091DE018D7F2BC080911D
:10131000DD018F7E4CC08091DD018F7D48C08091C2
:10132000DD018F7B44C08091DD01877F8B7F3FC0D3
:101330008091DE018D7F8E7F15C08091DD0182FB63
:10134000222720F991E0922790FB82F990FB83F904
:101350002EC08091DE01982F909591708E7F892B01
:1013600090FB81F98093DE0124C00E944D1B809187
:10137000DD0187FB222720F991E0922790FB87F976
:1013800016C061E08EE090E00E940D3212C08091A4
:10139000DD0184FB222720F991E0922790FB84F95C
:1013A00006C08091DD01982F909590FB80F9809385
:1013B000DD018091DD019091DE010E947D280E9477
:1013C0004D1B48C021E094CD482F447409F49DCDB5
:1013D00090E09BCD482F417109F499CD90E097CDD5
:1013E000482F487809F495CD90E093CD827209F4A6
:1013F00092CD222321F01092720169E299CD809161
:101400007201882311F065E301C069E281ED91E08A
:101410000E94F91991CDD70112968C91882309F475
:101420009BC00A358DE5180709F491C008F080C00B
:101430000115ACE51A0709F075C00E944D1B2FEF8E
:1014400034E34CE0215030404040E1F700C0000060
:101450000E945F1980918E03877009F444C3D701FD
:1014600012968C91882309F43EC38091DE0182FD9F
:101470003AC382E00E943F2936C30031FFE51F07CF
:1014800021F481E00E94081B6ACA01312FE512078E
:1014900009F068CA82E0F6CF62EA73E08C2D0E9400
:1014A0009E25892B09F067CAC60166E170E00E949B
:1014B000523287519D4FDC0116968C918130E1F4B8
:1014C0008091A2039091A303892B09F454CA8091BF
:1014D000A4039091A503892B09F44DCA8091A6031A
:1014E0009091A703892B09F046CA8091A803909197
:1014F000A903892B59F03FCA823009F03CCA809178
:10150000A6039091A703892B09F435CAC60166E1A9
:1015100070E00E94523287519D4FFC01108A0E9458
:10152000952029CA0E3D1C45B9F40E949B2892CFF4
:101530000B35EDE51E0769F00C351D4569F480910A
:10154000DE0182FB882780F991E0892703C081E0D2
:1015500001C080E00E945C29F70186819781009795
:10156000B9F4F701828100811181882349F0C80113
:101570000E94641AD82E682FC8010E94D11A04C094
:10158000C8010E94A01AD82EB8018D2D0E94D62421
:101590000E94E926182F092FD7011296BC901297A6
:1015A0001596CC90C2943FE0C32280918E03877041
:1015B000B9F0BB20A9F0892F807F803421F080E230
:1015C000810F883068F08091DE0182FD09C082E0E1
:1015D0000E943F2980918E038770AA24A3948111D1
:1015E000A12C902E92942FE09222892D90E08C30A5
:1015F000910508F027C2FC01E65CFF4F0C946332B2
:10160000902F9F70802F807FD92E19F0D29490EF69
:10161000D922BB20A9F0DD2009F4F4C180E2810FBA
:10162000883010F0111104C08D2D0E94322905C0A0
:101630008091E602D82AD092E6020E94A129E2C156
:10164000812F0E94771BDD2009F4FCC180E2810F0D
:10165000883068F1112359F18D2D0E9424292AC068
:10166000902F9F70802F807FD92E803219F0D294D6
:1016700080EFD822112321F0113009F45CC067C03B
:101680008091DE0182FF19C0BB2059F0DD2029F0D6
:101690008D2D0E9432290E94A12980E00E94A11B69
:1016A000D1C180E00E94771BDD2009F4CBC18D2DD4
:1016B0000E942B290E94A129C5C1BB2001F1CC2089
:1016C000D1F0B1E0CB1206C0809199038D290E9420
:1016D0001029B8C18091DB02823068F0C8120BC0BB
:1016E0000E94052980918B03D812D0928B038D2DF7
:1016F0000E94701BA7C1809199038D29F9CFCC203E
:1017000079F08091DB02E1E0CE1210C0823008F463
:1017100099C18091DF018D2109F494C10E94F729BC
:101720000E9405298D2D0E94691B8CC18230C0F357
:10173000C812F6CF87C18091E102BB2021F08C1541
:1017400008F480C1D4CFC81608F07CC1EBCFBB2011
:10175000E9F0CC2061F220E0D7014C9111965C9128
:10176000119712966C91129713967C911397149679
:101770008C910E94472B8091DC0281FD43C1F701CF
:10178000858180FF3FC18F708583B1CFC11043C178
:10179000C9CF802F86958695837019F0813061F0CE
:1017A00051C1BB2021F0812F902F937002C080E0A7
:1017B00090E00E94361A4CC1BB2021F0812F902F5F
:1017C000937002C080E090E00E94201A41C1802FF7
:1017D0008370A1F5B1103AC1412F429546954770EB
:1017E000440F440F212F2F7030E0C901042E01C097
:1017F000880F0A94EAF714FF08C02FE030E001C018
:10180000220F4A95EAF7209501C020E0302F369547
:1018100036953370323069F040F440919A0331309C
:1018200019F0822B842302C0842B822B0E941F1B61
:101830000DC1282B80919A038227F8CFBB2019F085
:10184000802F817001C08695882309F4FFC0412F45
:10185000429546954770440F440F212F2F7030E07A
:10186000C901042E01C0880F0A94EAF714FF08C0CA
:101870002FE030E001C0220F4A95EAF7209501C021
:1018800020E0302F369536953370323051F070F4B9
:101890004091BE01313019F0822B842308C0842B83
:1018A00005C0282B8091BE01822701C0822B0E9497
:1018B000041BCCC0F02FFF70DF2EBB2039F08F2F20
:1018C0000E94141B812F0E94701BC0C0812F0E9498
:1018D000691B8D2D0E94081BB9C0123F11F128F41D
:1018E000103F41F0113FA9F189C0133F01F1143FAE
:1018F00061F184C08091E102BB2021F0C81608F09C
:10190000A1C003C08C1508F49DC0202F2F7181E069
:1019100090E001C0880F2A95EAF79091BE018927CF
:101920000FC0802F8F71BB2009F470C087C0BB200F
:1019300051F081E0902F9F7101C0880F9A95EAF7CE
:101940000E94041B7FC080E0FBCF8091DE0182FFFC
:1019500006C0802F8F71BB2009F470C057C08091E2
:10196000DB028230A0F180918B03BB20E1F00E946A
:101970002B2980918E038770843039F40E94382996
:10198000802F8F710E94081B5CC08091DB02C816FB
:1019900008F057C0202F2F71D22E822F0E94141BC7
:1019A00063E08D2D0DC00E9432298091DB02C816A4
:1019B00050F00E9438290E94F72964E0802F8F712F
:1019C0000E9471293EC081E00E943F293AC0BB209D
:1019D00059F0302F3F71D32E832F0E94141B63E0E8
:1019E0008D2D0E9471292EC081E00E943F2941E087
:1019F0004C1540F582E00E943F2924C0BB2049F0ED
:101A0000CC2011F0812F4ACE802F8F710E94141BA1
:101A100019C0CC2089F0193329F48091DF0290910C
:101A2000E00204C08091DD029091DE020E949E23BC
:101A3000812F0E94771B06C0802F8F710E94081B88
:101A400001C0A12C88EF890D843010F40E944C1A3B
:101A5000812F902F0E94231B811105C010927401C9
:101A60001092730125C0BB2019F0C110F7CF20C020
:101A7000C110F4CF20E0D7014C9111965C911197E1
:101A800012966C91129713967C91139714968C91E1
:101A90000E94472B8091DC0283FFE0CF809173018D
:101AA000909174010297D1F6812F0E94EC1BD6CF42
:101AB000AA20A9F080918E0380FD11C0F701128247
:101AC0008595859585950E94141BC7010E94780312
:101AD00080918E038595859585950E94081B60E011
:101AE000C7010E94702B2C960FB6F894DEBF0FBE74
:101AF000CDBFDF91CF911F910F91FF90EF90DF90BD
:101B0000CF90BF90AF909F908F907F906F905F909D
:101B10004F903F902F900895CF93DF93CDB7DEB7CE
:101B2000E4970FB6F894DEBF0FBECDBF84B7877FB2
:101B300084BF0FB6F894A895809160008861809367
:101B40006000109260000FBE90E080E80FB6F8943D
:101B500080936100909361000FBE84EB95E29093B7
:101B60006F0180936E010E94C12F0E94682F0E9416
:101B7000D72E0E9471241092E2001092E100809111
:101B8000E00081608093E0008091D8008F7780939F
:101B9000D80019BC8091630081608093630010922B
:101BA0007501809163008E7F8093630081E0809354
:101BB00075011092E2001092E1008091D8008F77B9
:101BC0008093D8008091D80080688093D80080915D
:101BD000D8008F7D8093D80084E089BD86E089BDE0
:101BE00009B400FEFDCF1092B4011092B50110921D
:101BF000B3011092B20142E060E080E00E94631500
:101C00008091E1008E7F8093E1008091E20081600D
:101C10008093E2008091E20088608093E2008091EE
:101C2000E0008E7F8093E0008091E20084608093EA
:101C3000E20078948091B4018823A1F01091E9002A
:101C40001F709091EC00892F817090FD80E8182B17
:101C50001092E9008091E80083FD0E9498151F70A2
:101C60001093E90082E084BD93E095BD9AEF97BDA3
:101C700080936E000E94CD31811102C00E94BE315E
:101C80000EE111E0B2E2EB2EB1E0FB2ED8018D9116
:101C90008D018F3F11F00E94F925E016F106B1F792
:101CA00002E211E0AEE2EA2EA1E0FA2EF801819103
:101CB0008F018F3F11F00E94F925E016F106B1F770
:101CC00088E0E2E9F1E0DF01282F1D922A95E9F78B
:101CD000E6E7F1E0DF011D928A95E9F780E090E008
:101CE0000E940732893E9E4F21F40E94CD3181111E
:101CF00002C00E949B2882E090E00E94FF31809306
:101D00007E010E948A289093DE018093DD010E946B
:101D10001026EFEFF6E721E0E150F0402040E1F738
:101D200000C000000E9410268091920180FF08C030
:101D30006FEF7FEF80E090E00E942B320E945F19EE
:101D400083E090E00E94FF310E941F1B81E091E040
:101D500090939D0180939C0178E1672E712CE0E4C3
:101D60005E2EFAE9CF2EF1E0DF2E8E010F5F1F4FBE
:101D70008091B401853009F043C054E0E52E66E05F
:101D8000F62E8091B401853009F036C08091B401FF
:101D9000843009F11092A0010FB6F894A8956092D2
:101DA00060000FBE5092600083B7817F846083BF64
:101DB00083B7816083BF7894889583B78E7F83BF14
:101DC0000FB6F894A89580916000886180936000B8
:101DD000109260000FBE8091B301882391F20E949F
:101DE0001026E2E9F1E081919191892B09F005C576
:101DF000CE16DF06C1F7C5CF0E944D1B0E944C1ABC
:101E00000E94102681110E94B819E2E9F1E0AFE7C3
:101E1000B1E0E12CF12C7E2D219131918D919D919C
:101E200082279327009779F160E0AA24A394B12C2C
:101E3000AC014A215B21452B09F16BA77CA72A2124
:101E40003B2181E0232B09F480E08DA70E94C41977
:101E50008160782F9FA78EA74BA55CA56DA58FA548
:101E60000E947E2BF701EE0FFF1FE158FE4F80818D
:101E70009181A826B926B182A0821CC06F5FAA0CEE
:101E8000BB1C6C30A9F64FEFE41AF40A84E0E816A4
:101E9000F10409F68FEF88AB89AB1AAA0E94C41926
:101EA0008160782F9CAB8BAB48A959A96AA98CA9F2
:101EB0000E947E2B8091BB029091BC02892B09F479
:101EC0003EC04091B0025091B1026091B202709157
:101ED000B3022FB7F8948091A1019091A201A09133
:101EE000A301B091A4012FBF841B950BA60BB70BC8
:101EF0004091AC025091AD026091AE027091AF0280
:101F000084179507A607B707D0F08091BB02909180
:101F1000BC020E944C2E1092BC021092BB02109286
:101F2000B0021092B1021092B2021092B30210925B
:101F3000AC021092AD021092AE021092AF028091EC
:101F40000D0190910E01019659F1412C20C0C7015D
:101F500066E170E00E94523287519D4FFC018288F9
:101F600093888114910421F48090D7029090D80234
:101F7000C70166E170E00E94523287519D4F5C01BB
:101F8000DC0116968C91169781110FC04394E42CB6
:101F9000F12C80910D0190910E018E159F05BCF6DC
:101FA00080911501811117C03EC01D968D919C91A5
:101FB0001E970E94A9198816990640F7C5010E942C
:101FC0009520C70166E170E00E94523281519D4F19
:101FD0000E945420DBCF8091AA029091AB0200971F
:101FE00011F10E94A91920910402309105022817CD
:101FF0003907C8F49091A8028091A902981759F066
:102000000E94B82210920502109204021092AB02B4
:102010001092AA0208C00E9449221092AB021092AC
:10202000AA020E9499228091DA0280FF1EC080914C
:10203000140182FF1AC00E94C4192091000230913D
:102040000102AC01421B530B20911201309113018C
:102050004217530750F027E831E041E0BC0180917E
:102060000202909103020E94A9230E944C1A9091AF
:102070008F01891380938F018091B401843009F01E
:1020800077CE83E08093E9008091E80082FF70CEF4
:102090008091E80085FF23C00E94A61481111DC015
:1020A00050E2A52EB12CFE0131967F0109C080912E
:1020B000F100D7018D937D01B1E0AB1AB10869F051
:1020C0008091E80085FDF3CF8091E8008B778093C5
:1020D000E8000E94A614882399F391E001C090E0E3
:1020E0008091E8008B778093E800992309F440CE33
:1020F000E090DB01F090DC018981E114F10461F0F2
:102100008E3F09F052C38A81833008F450C1855054
:10211000833008F04AC34BC1893009F444C3F0F45A
:10212000843009F478C050F48230C1F108F066C000
:10213000813009F038C31A8289E055C2863009F42B
:1021400071C008F030C32D813E813227232732270A
:102150004C816B818A810E94652E27C3803109F4EE
:10216000C1C080F48D3009F460C028F48C3009F0CF
:102170001AC380E1BBC08E3009F45BC08F3009F414
:1021800083C011C3823109F4B3C008F4AEC08331F7
:1021900009F4D8C08E3F09F40AC105C38A81823090
:1021A00009F441C3833051F0813009F0FCC20E9430
:1021B000B8199B838C837D836E83F7C28091100155
:1021C00090911101892B09F4F0C2809192019091B4
:1021D00093019B838C8380919401909195019D83C1
:1021E0008E8380919601909197019F83888780913B
:1021F00098019091990199878A87D7C28A81823004
:1022000009F0D1C26B817C818D819E810E946932EF
:102210000E949C31CAC24C816B818A810E94A22E8D
:102220009D8308C30E94F224C0C281E08A838DE6A8
:10223000DAC1EA80FB80FE24EF24FE248C80912CFE
:10224000EDE18E16910408F0B0C25801C7018D5619
:102250009D4F9501201B310B2815390508F0A5C2AB
:10226000FDE6EF16F1E0FF0630F40E94FF31D501E4
:1022700014968C9302C0F5011482FFEFEF1AFF0A47
:102280002FEFA21AB20AE2CF8091100190911101B2
:10229000892B09F48AC2EA80FB80FE24EF24FE2405
:1022A000AC80B12C4DE1A416B10408F07EC2480107
:1022B000C7018D569D4F9401201B310B2A153B05FC
:1022C00008F073C2ADE6EA16A1E0FA0620F4F401C4
:1022D00064810E940D32FFEFEF1AFF0A2FEF821A7E
:1022E000920AE6CF0E94C62460C284E08A835DC25F
:1022F000EA80FB80FE24EF24FE248C80912C4DE1AB
:102300008416910408F051C25801C70187969501BF
:10231000201B310B2815390508F047C2A0E8EA1642
:10232000A1E0FA0628F40E94FF31F501848303C07E
:10233000D50114961C92BFEFEB1AFB0AEFEFAE1A11
:10234000BE0AE3CFEA80FB80FE24EF24FE24AC80AB
:10235000B12CFDE1AF16B10408F027C220E8E21667
:1023600021E0F20608F021C280E891E08E199F0971
:102370008A159B0508F419C24801C7018796940184
:10238000201B310B2A153B0508F00FC240E8E4166C
:1023900041E0F40628F4D40114966C910E940D32A9
:1023A000BFEFEB1AFB0AEFEF8E1A9E0AE6CFEA8127
:1023B0008E2F90E08E30910508F0F7C1FC01EA5BAA
:1023C000FF4F0C94633288E0E6E1F1E0DE01919684
:1023D00001900D928A95E1F780E2D8011D928A95CD
:1023E000E9F785E0898388E0FE01B196DE01159664
:1023F000ACC188EA898381E08A831B821C82D5C1B3
:102400008C8190E0982F88272B81820F911D092EB7
:10241000000CAA0BBB0B45E0880F991FAA1FBB1F1E
:102420004A95D1F7AC01BD01405E5F4F6F4F7F4FC2
:10243000481759076A077B0708F4B7C1883AE1E0F3
:102440009E07A105B10508F0B0C1493AF1E05F0768
:102450006105710520F048EA51E060E070E0481B3A
:10246000590BBC0166537F4FC8010E94E6319DC1E4
:1024700040E250E06FEF70E0C8010E948632809128
:1024800010018983EA8291C181E090E09093DC01A0
:102490008093DB0182E390E090939101809390011F
:1024A0000E94C41982C1809110018983EA828091BF
:1024B000900199C0EB80FC8040E250E06FEF70E04B
:1024C000C8010E9486322BE335E080E090E0AC0149
:1024D0004E5F5F4F4132510508F067C1F9016591C8
:1024E0007491E616F70630F4F801E80FF91F7183CE
:1024F0006083CA01245F3F4F45E02B3C340739F726
:1025000054C14B815C812BEC35E08BE395E0FC0101
:10251000659174914617570729F00C9628173907CB
:10252000B1F741C1009709F43EC1FC0136962591EF
:1025300034912115310509F436C14FE150E0BE0157
:102540006E5F7F4FF90109952FC18B819C812BE331
:10255000E22E25E0F22EF7012591349182179307A0
:1025600049F0FCE0EF0EF11C2BECE21625E0F20640
:1025700091F719C1E114F10409F415C1F701389676
:10258000259134912115310509F40DC14CE150E03C
:10259000BE016B5F7F4FC701F9010995009709F0F4
:1025A00003C1F7013A9685919491009711F0FC01CF
:1025B000099580E0F9C00E949824F7C0EB818E2F26
:1025C00090E08730910508F0F0C0FC01EC5AFF4F15
:1025D0000C94633280E2D8011D928A95E9F784E079
:1025E000898388E08A838B83E0C08C819AE0F92E0E
:1025F0005E01B1E2AB0EB11CF5012F2D11922A95AF
:10260000E9F7B5010E949E258983F501DE01129646
:1026100001900D92FA94E1F7C8C0FC808AE0FE01B7
:102620003596DE01919601900D928A95E1F789A188
:102630009AA10E948C319AA389A38BA19CA10E948C
:102640008C319CA38BA38DA19EA10E948C319EA353
:102650008DA38FA198A50E948C3198A78FA343E0EA
:102660004F1588F08F2D90E06AE070E00E945232A2
:10267000BC0165537E4F4AE050E0CE0181960E9436
:10268000313280E001C08FEF89830E94C12F8DC05D
:102690008C81FE01B1969AE0DF011D929A95E9F7CF
:1026A000883008F04BC090E06AE070E00E9452323F
:1026B000BC016D507E4F3BC0FC808AE0FE01359628
:1026C000DE01919601900D928A95E1F789A59AA570
:1026D0000E948C319AA789A7B7E0BF1588F08F2D8B
:1026E00090E06AE070E00E945232BC016D507E4F73
:1026F0004AE050E0CE0181960E94313280E001C074
:102700008FEF89830E94682F50C08C81FE01B196A3
:102710009AE0DF011D929A95E9F7883078F490E00D
:102720006AE070E00E945232BC016D5B7D4F4AE06E
:1027300050E0CF010E94EF3180E001C08FEF89832C
:102740008AE0FE01B196DE01129601900D928A9503
:10275000E1F72BC0FC808AE0FE013596DE01919600
:1027600001900D928A95E1F78BA19CA10E948C317A
:102770009CA38BA3B7E0BF1588F08F2D90E06AE093
:1027800070E00E945232BC016D5B7D4F4AE050E028
:10279000CE0181960E94313280E001C08FEF8983A3
:1027A0000E94D72E02C08FEF89838091B4018430BC
:1027B00009F0DECA8091E9008F702091EC00922F21
:1027C000917020FD90E8F92EF82A82E08093E900CC
:1027D0008091E80080FF0CC040E050E060E270E0D3
:1027E000C8010E94D9148091E8008E778093E80098
:1027F0008F2D8F708093E900BBCAE9BCF9BC09B486
:1028000000FEFDCF8091D8008F7D8093D80080910D
:10281000E00082608093E0008091E00081FDFCCFC9
:102820000E944D1BAECA86E290E00E94FF311B82DF
:102830001C821D828E83B9CF8091B60187FF11C0A3
:102840008091E80082FD05C08091B4018111F8CF2C
:1028500011C08091E8008B770BC08091B401882370
:1028600049F08091E80080FFF8CF8091E8008E77F2
:102870008093E80008952091BC013091BD01261796
:10288000370748F06115710539F42091E8002E777B
:102890002093E80001C0B901FC0120E06115710539
:1028A00061F18091B4018823D9F18530D9F180910B
:1028B000E80083FD39C08091E80082FD2BC0809143
:1028C000E80080FFEBCF8091F20090E06115710588
:1028D00051F08830910538F421912093F100615036
:1028E00071090196F3CF21E0089709F020E080916B
:1028F000E8008E778093E800D1CF2111D2CF0AC0B3
:102900008091B401882361F0853061F08091E80006
:1029100083FD0AC08091E80082FFF2CF80E0089535
:1029200082E0089583E0089581E008950895089570
:102930008091A90108958091BE01982F96709630DC
:1029400011F4886001C0877F0C94041B2091E4007F
:102950003091E50095E64091EC00842F817040FFB6
:1029600023C08091E80080FD1DC08091B4018823C0
:1029700099F0853099F08091EB0085FD11C0409170
:10298000E4005091E5002417350729F3915011F028
:102990009A01E1CF84E0089582E0089583E00895EC
:1029A00081E0089580E008954091E80042FFDDCF86
:1029B0000895EF92FF920F931F93CF93DF937C01C3
:1029C0008B010E94A614811119C0E70101151105A0
:1029D000A1F08091E80085FD0AC08091E8008E7723
:1029E0008093E8000E94A614882381F307C0899190
:1029F0008093F10001501109E9CF80E0DF91CF9180
:102A00001F910F91FF90EF9008958093A50170930F
:102A1000A7016093A6018091B4018430F9F48093FA
:102A2000E9008FEF9091E800815095FD06C095ED8B
:102A30009A95F1F700008111F5CF8091E80085FFAC
:102A40000DC040E050E063E070E085EA91E00E9454
:102A5000D9148091E8008E778093E8000895BC0136
:102A600084E00C940515BC0183E00C940515CF930C
:102A7000DF9321E02093E9002FEF3091E80021500F
:102A800035FD06C035ED3A95F1F700002111F5CF7F
:102A90002091E80025FF14C0EC0140E050E068E020
:102AA00070E00E94D9148091E8008E778093E8004E
:102AB00088E0FE01AAEAB1E001900D928A95E1F763
:102AC000DF91CF910895982F953068F59093E900A4
:102AD000981739F07091EC002091ED005091F000C2
:102AE00003C0242F762F50E021FD02C09F5FECCF62
:102AF0003091EB003E7F3093EB003091ED003D7F55
:102B00003093ED003091EB0031603093EB00709327
:102B1000EC002093ED005093F0002091EE0027FD93
:102B2000E5CF80E008958F708093E90081E00895FB
:102B30001F93CF93DF93CDB7DEB7AA970FB6F89464
:102B4000DEBF0FBECDBFE6EBF1E08EEB91E0209152
:102B5000F10021938E179F07D1F78091B701833041
:102B600009F45FC030F4813071F0823009F499C00B
:102B7000B0C08A3009F485C08B3009F46AC089304E
:102B800009F0A7C020C08091B601813A09F0A1C028
:102B90008091E800877F8093E8008091BA0190914E
:102BA000BB01892B21F468E08AEA91E003C060E070
:102BB00080E090E070E00E943B148091E8008B7709
:102BC0008093E80086C08091B601813209F081C00F
:102BD0008091BA019091BB01009719F0029709F01A
:102BE00078C08091E800877F8093E8008091E800BA
:102BF00082FD05C08091B4018111F8CF6AC0809137
:102C0000F200823031F48091F100813011F0863091
:102C100021F48091F1008093A9018091E8008B77E5
:102C200054C08091B601813A09F053C08091BA0135
:102C30009091BB01892B09F04CC08091E800877FFF
:102C40008093E8008091E80080FFFCCF80910F0125
:102C500037C08091B6018132E1F58091BA0190913F
:102C6000BB01892BB1F58091E800877F8093E80054
:102C70000E941C148091B80180930F010E944D1B8B
:102C800028C08091B601813221F58091E800877FCC
:102C90008093E8000E941C148091B9018093A801E0
:102CA00018C08091B601813AA1F48091E800877F35
:102CB0008093E8008091E80080FFFCCF8091A8011C
:102CC0008093F1008091E8008E778093E8000E9465
:102CD0001C148091E80083FFE7C18091B6019091B8
:102CE000B701492F50E04A30510508F0DDC1FA0123
:102CF000E55AFF4F0C946332803821F0823809F096
:102D0000D3C108C08091B2019091B301992389F099
:102D100082600FC08091BA018F70853008F0C4C105
:102D20008093E9008091EB0085FB882780F9109261
:102D3000E9009091E800977F9093E8008093F1007C
:102D40001092F10078C1282F2D7F09F0ADC18823A2
:102D500019F0823061F0A8C18091B801813009F08A
:102D6000A3C1933009F080E08093B3012EC080911D
:102D7000B80181112AC08091BA018F702FEF280FFE
:102D8000243008F091C18093E9002091EB0020FFEE
:102D90001CC0933021F48091EB00806214C09091AC
:102DA000EB0090619093EB0021E030E0A90102C0BC
:102DB000440F551F8A95E2F74093EA001092EA000B
:102DC0008091EB0088608093EB001092E900809185
:102DD000E800877F8093E8000E941C1465C1811180
:102DE00063C11091B8011F778091E3008078812B37
:102DF0008093E3008091E800877F8093E8000E9441
:102E00001C148091E80080FFFCCF8091E300806873
:102E10008093E300111102C082E001C083E080933F
:102E2000B40142C18058823008F03EC12091B801FF
:102E30003091B9012C3D53E0350779F583E08A8361
:102E40008AE289834FB7F894DE01139620E03EE0D2
:102E500051E2E32FF0E050935700E49120FF03C0CC
:102E6000E295EF703F5FEF708E2F90E0EA3010F048
:102E7000C79601C0C0968D939D932F5F243149F76B
:102E80004FBF8091E800877F8093E8006AE270E09E
:102E9000CE0101960E943B14BCC08091BA01909172
:102EA000BB01432F552743305105B1F068F4413041
:102EB000510509F408C14230510509F0F5C08BE510
:102EC00090E0E6E0F3E057C04132510589F142322B
:102ED000510509F43CC0E8C0C9019927813091052A
:102EE000B9F070F082309105D9F0039709F0DCC099
:102EF000E3E7F3E0E4918E2F90E0E3E7F3E038C0FE
:102F0000E7EBF3E0E4918E2F90E0E7EBF3E030C0E5
:102F1000EDE9F3E0E4918E2F90E0EDE9F3E028C0D5
:102F2000E1E9F3E0E4918E2F90E0E1E9F3E020C0E5
:102F30008330910508F0B8C0880F991FFC01E95C47
:102F4000FE4F0190F081E02D89E090E014C08330C5
:102F5000910508F0A9C0FC01EE0FFF1FEF5CFE4FCA
:102F60000190F081E02DDC01A25DBE4F8C9190E0DC
:102F7000009709F499C02091E800277F2093E8008A
:102F80002091BC013091BD012817390708F4C9010F
:102F900040E0009769F12091B4012223D1F125305E
:102FA000C1F12091E80023FD34C02091E80022FD0A
:102FB0002CC02091E80020FFECCF2091F20030E0FF
:102FC000009759F02830310540F444914093F100C6
:102FD000319601972F5F3F4FF3CF41E02830310505
:102FE00009F040E02091E8002E772093E800D1CF4F
:102FF0004111D1CF0AC08091B401882351F08530AE
:1030000041F08091E80083FD04C08091E80082FFD8
:10301000F2CF8091E8008B778093E80045C080383C
:1030200009F042C08091E800877F8093E80080919A
:10303000B5018093F1008091E8008E77CBCE8111AD
:1030400033C08091B8019091B9019927029764F536
:103050008091E800877F8093E8001091B801109379
:10306000B5010E941C14111106C08091E30087FD78
:1030700002C081E001C084E08093B40142E061ECD1
:1030800081E00E94631542E261EC84E00E946315D6
:1030900042E261EC82E00E94631542E260EC83E070
:1030A0000E9463158091B4018091E80083FF10C0F5
:1030B0008091E800877F8093E8008091EB00806238
:1030C0008093EB0005C082E190E0E1E6F3E053CFAE
:1030D000AA960FB6F894DEBF0FBECDBFDF91CF9199
:1030E0001F9108951F920F920FB60F9211242F93E4
:1030F0003F934F935F936F937F938F939F93AF9380
:10310000BF93CF93DF93EF93FF93C091E900CF700C
:103110008091EC00D82FD17080FDD0E81092E900AA
:103120008091F000877F8093F00078940E9498153A
:103130001092E9008091F00088608093F000CD2B20
:10314000CF70C093E900FF91EF91DF91CF91BF91D4
:10315000AF919F918F917F916F915F914F913F912F
:103160002F910F900FBE0F901F9018951F920F92E6
:103170000FB60F9211242F933F934F935F936F934A
:103180007F938F939F93AF93BF93EF93FF93809120
:10319000E10082FF09C08091E20082FF05C08091BA
:1031A000E1008B7F8093E1008091E10080FF17C0F8
:1031B0008091E20080FF13C08091E2008E7F8093B7
:1031C000E2008091E20080618093E2008091D8006B
:1031D00080628093D80019BC85E08093B40180910F
:1031E000E10084FF30C08091E20084FF2CC084E0C5
:1031F00089BD86E089BD09B400FEFDCF8091D8006D
:103200008F7D8093D8008091E1008F7E8093E100D4
:103210008091E2008F7E8093E2008091E2008160E5
:103220008093E2008091B501882311F084E007C00B
:103230008091E30087FD02C081E001C083E08093BC
:10324000B4018091B4018091E10083FF27C0809197
:10325000E20083FF23C08091E100877F8093E1003B
:1032600082E08093B4011092B5018091E1008E7FDD
:103270008093E1008091E2008E7F8093E200809154
:10328000E20080618093E20042E060E080E00E9422
:1032900063158091F00088608093F000FF91EF91BA
:1032A000BF91AF919F918F917F916F915F914F915E
:1032B0003F912F910F900FBE0F901F90189581E0B6
:1032C0008093E00080E28093D8001092C9008FE1E3
:1032D0009EE40197F1F700C0000087E090EBDC016D
:1032E0008093870490938804A0938904B0938A0400
:1032F0009CE088E10FB6F894A895809360000FBE1B
:1033000090936000FFCF78941F920F920FB60F92A8
:1033100011248F939F93AF93BF938091A1019091BC
:10332000A201A091A301B091A4010196A11DB11D1C
:103330008093A1019093A201A093A301B093A40153
:10334000BF91AF919F918F910F900FBE0F901F90E3
:1033500018959C014FB7F8948091A1019091A2011A
:10336000A091A301B091A4014FBF821B930B0895BC
:103370002FB7F8946091A1017091A2018091A301EF
:103380009091A4012FBF08952FB7F8948091A101C7
:103390009091A201A091A301B091A4012FBF089523
:1033A0001F920F920FB60F9211248F939F93AF939A
:1033B000BF938091A001811113C08091A1019091D0
:1033C000A201A091A301B091A4014196A11DB11D3C
:1033D0008093A1019093A201A093A301B093A401B3
:1033E000BF91AF919F918F910F900FBE0F901F9043
:1033F00018959C012A5F3F4FFC014281461301C092
:103400001282019682179307B9F708959C01FC0177
:1034100032969FEF80E04191461789F09F3F19F463
:10342000411101C0982F8F5F8630A9F79F3F39F077
:10343000F901E90FF11D97FDFA956283089508954A
:1034400020919E0130919F012817390771F09093C8
:103450009F0180939E01E0919C01F0919D01309726
:1034600021F00084F185E02D0994089520919A01BE
:1034700030919B012817390771F090939B0180933D
:103480009A01E0919C01F0919D01309721F0068016
:10349000F781E02D09940895E0919C01F0919D0140
:1034A000309721F00190F081E02D099480E008959B
:1034B00080E090E00E94361A80E090E00E94201A9E
:1034C0001092E6020C94A129CF92DF92FF920F9303
:1034D0001F93CF93DF936C010091BE0180919A03FB
:1034E000082BC7E0D0E010E0C8010C2E02C0959573
:1034F00087950A94E2F780FD04C02197A8F7F12C84
:1035000009C0FC2EB6018C2F0E94D6240E94E92609
:10351000019799F38F2DDF91CF911F910F91FF901C
:10352000DF90CF900895CF93DF93EC010E94641A4F
:10353000BE010E94D6240E94E926DF91CF91089512
:10354000282F892F9E3F59F16CE00E944932820F4B
:10355000A82FA77086958695869590E063E070E029
:103560000E945232FC01E154FE4F40E050E090E0F6
:10357000219130E00A2E02C0369527950A94E2F791
:1035800021703327042E01C0220F0A94EAF7922BF0
:103590004F5F5F4F4330510559F7892F089580E001
:1035A0000895282F892F362F9E3F69F16CE00E94E5
:1035B0004932820F982F9770A1E001C0AA0F9A9507
:1035C000EAF786958695869590E063E070E00E9424
:1035D0005232FC01E154FE4F40E050E0632F70E0B6
:1035E00090819B01042E02C0369527950A94E2F73C
:1035F0002170219529272A23292721934F5F5F4F87
:103600004330510569F708958093BE010C94581A10
:1036100021E030E001C0220F8A95EAF720958091E1
:10362000BE0182230C94041B21E030E001C0220F74
:103630008A95EAF78091BE01822B0C94041B80933B
:103640009A030C94581A92959F70963079F010F462
:10365000925001C09A50923068F4803F69F018F49B
:10366000883E40F409C0843F29F406C0883E20F01B
:10367000813F11F080E0089581E00895FC0186818A
:103680009781009719F00E94E92604C080819181FA
:103690000E94931A0E94231B08951092DF0186E076
:1036A000E3EDF1E0DF011D928A95E9F70C94581AD9
:1036B000882321F00E9424290C94A12908958823AD
:1036C00039F09091E602892B8093E6020C94A129AF
:1036D0000895882321F00E942B290C94A129089594
:1036E000882321F00E9432290C94A129089588236F
:1036F00039F1682F8CEF860F813A28F481ED91E043
:103700000E94F9190CC080E2860F883050F467706F
:1037100081E001C0880F6A95EAF70E942B290C947A
:10372000A1298BE5860F833020F480E090E00C9493
:10373000361A685A673120F480E090E00C94201A21
:103740000895CF93882309F445C0C82F8CEF8C0FC0
:10375000813A78F4E3EDF1E08191C81799F181E0C5
:10376000E93DF807C9F76C2F81ED91E00E94061A38
:103770000CC080E28C0F883058F4C77081E001C023
:10378000880FCA95EAF70E943229CF910C94A1299B
:10379000EBE5EC0FE33040F4F0E0E35CFE4F8081BA
:1037A00090E0CF910C94361AC85AC73198F4EC2F98
:1037B000F0E0EE0FFF1FE05CFE4F80819181CF9122
:1037C0000C94201A6C2F81ED91E00E94F9190E944F
:1037D000A129C9CFCF9108951F93CF93DF93182FBD
:1037E000893329F4C091DF02D091E00204C0C09176
:1037F000DD02D091DE02812F0E94A11B209741F0B3
:103800008FE99FE00197F1F700C000002197F6CF04
:10381000812FDF91CF911F910C94771B2F923F92B4
:103820004F925F926F927F928F929F92AF92BF92D0
:10383000CF92DF92EF92FF920F931F93CF93DF937C
:10384000CDB7DEB765970FB6F894DEBF0FBECDBF1C
:103850008C0185E0F801DE01519601900D928A9568
:10386000E1F7D8014C9011965C9011971296EC906C
:1038700012971396CD90DC90149760E081E493E06A
:103880000E94702B81E4A82E83E0B82E8090440320
:1038900090904503A40160914203809141030E94EE
:1038A0000F22F82E8111E5C130904303F601E8198B
:1038B000F9094F0160E0332009F469C1C5010E9494
:1038C000702B6090D7027090D80220904603861427
:1038D000970408F014C14091440350914503B090FF
:1038E0004103A0904203822D807F6A2D09F097C08A
:1038F0008B2D0E940F22811124C0D80111968C912A
:1039000011978A111EC08C918B111BC02091470307
:103910003091480316968D919C9117972817390777
:1039200081F4E1100EC0822D8F7080618093460378
:1039300081E493E00E94780380914603F801858337
:10394000B4C1F4EF6F16F1E07F0620F48091DC0241
:1039500080FF21C0A601652D842D0E940F228111B8
:1039600003C081E08E2502C080E090E080FF13C09C
:103970004E2D652D842D0E94FD29882361F081E460
:1039800093E00E947803E1E4F3E088E0DF011D9218
:103990008A95E9F78AC1A601652D842D0E940F2220
:1039A000811103C081E08E2502C080E090E0B82F35
:1039B000B170CB2E80FF2AC04E2D652D842D0E9424
:1039C000FD29D82E811122C0498A5A8A89899A896B
:1039D0000E94931A292F22952F70223018F024303C
:1039E00078F405C09F7049F0811107C00DC09F7029
:1039F00021F0F8019581907F39F0805E883020F0C9
:103A0000C8010E947803DC2CFD2C4FC1EE2009F484
:103A10004BC18091460381608093460346C18B2D44
:103A20000E940F22811124C0D80111968C91119708
:103A30008A111EC08C918B111BC0209147033091BD
:103A4000480316968D919C9117972817390781F492
:103A5000E1100EC015962C92C8010E94780388E0F0
:103A6000F801A1E4B3E001900D928A95E1F76FC0EF
:103A7000C8010E943E1B8823E1F1EE20D1F1209184
:103A80004603822F82958F7090E00297A4F0809178
:103A90004103909142039A8789871B86DD86CC86F5
:103AA0002E878091470390914803988B8F87CE0192
:103AB00009960E94780388E0F801A1E4B3E0019040
:103AC0000D928A95E1F70E94272A16C0F0904103D3
:103AD000909042034091440350914503692D8F2DEE
:103AE0000E940F22882399F0C8010E943E1B811179
:103AF00030C0C8010E947803FF24F394D6C0822D01
:103B0000807F21F781E493E00E947803ACC0D80164
:103B100011968C9111978911E7CF8C918F11E4CF79
:103B2000209147033091480316968D919C911797E9
:103B300028173907C9F6E110D7CF15962C92C8017E
:103B40000E94780388E0F50111928A95E9F7F32C39
:103B5000ACC0EE2071F220914603822F82958F70C7
:103B600090E002970CF4A7CF80914103909142031B
:103B70009A8389831B82DD82CC822E8380914703C6
:103B80009091480398878F83CE01019692CF81E46C
:103B900093E00E94702B8091D7029091D8028816F2
:103BA000990608F060C0FE2CEE2009F4A2CFE09048
:103BB0004103D090420340914403509145036D2D41
:103BC0008E2D0E940F22811140C0D80111968C9138
:103BD00011978D113AC08C918E1137C020914703F7
:103BE0003091480316968D919C91179728173907A5
:103BF00061F58091DC0282FD1FC08091460380FD4B
:103C00001BC082958F70482F50E041155105A1F0DF
:103C10002091460315962C9315974F30510549F086
:103C20008F5F982F9295907F822F8F70892B15969A
:103C30008C93C8010E94780388E0F801A1E4B3E006
:103C400001900D928A95E1F730C0C8010E943E1B99
:103C5000811131CF80914603816080934603C80172
:103C60000E94780322C088E0F50111928A95E9F755
:103C70001CC0EE2009F43DCFC8010E943E1BF82E67
:103C8000882309F436CF88E0F801A1E4B3E001907D
:103C90000D928A95E1F780914103909142030E9431
:103CA000931A0E94272A01C0F12C8F2D65960FB61A
:103CB000F894DEBF0FBECDBFDF91CF911F910F9162
:103CC000FF90EF90DF90CF90BF90AF909F908F903C
:103CD0007F906F905F904F903F902F900895EF925C
:103CE000FF920F931F93CF93DF93CDB7DEB760970B
:103CF0000FB6F894DEBF0FBECDBF29873A874B873A
:103D00005C876D877E878F87988BCE0109960E948E
:103D10000E1C81114CC088E0FE013996DE0111961F
:103D200001900D928A95E1F7E984FA840C851D854E
:103D3000A8016F2D8E2D0E940F22811138C0A091F5
:103D40004903B0E0CD0101968770992720918A033D
:103D500030E08217930791F1E982FA821D830C8388
:103D600033E0AA0FBB1F3A95E1F7A65BBC4F98E082
:103D7000FE01319601900D929A95E1F780934903E7
:103D80000E941D2A14C090E023E0880F991F2A95F5
:103D9000E1F7865B9C4F0E940E1C8823E1F0809126
:103DA0008A0390E001968770992780938A03809117
:103DB0008A03909149038913E6CF0DC00E944D1BE1
:103DC0001092490310928A03E1E4F3E088E0DF01F6
:103DD0001D928A95E9F760960FB6F894DEBF0FBE84
:103DE000CDBFDF91CF911F910F91FF90EF9008957C
:103DF000AF92BF92CF92DF92EF92FF920F931F93F9
:103E0000CF93DF934430510508F46CC04091DD013D
:103E100041FBCC24C0F8D12CCC0CDD1C42FB882704
:103E200080F9C82FE0E0DE2FCC0FDD1FCC0FDD1FA7
:103E3000CC2ADD2A40FBEE24E0F8F12CEC28FD280A
:103E400043FBAA27A0F9B0E023E0AA0FBB1F2A95E5
:103E5000E1F7EA2AFB2A44FBEE27E0F9F0E034E040
:103E6000EE0FFF1F3A95E1F7EE29FF2945FB2227C8
:103E700020F930E055E0220F331F5A95E1F72E2B41
:103E80003F2B46FB882780F990E0E6E0880F991FDA
:103E9000EA95E1F7822B932B47FB442740F950E04A
:103EA0005695542F442757954795842B952B209151
:103EB000DE01322F3170132F00E0082B192B2695CD
:103EC0002170B22EBB0CA12C0A291B29012E000C3B
:103ED000220B330BFB01008311832283338380E0A9
:103EE00090E002C08FEF9FEFDF91CF911F910F9174
:103EF000FF90EF90DF90CF90BF90AF9008958091AA
:103F0000BF029091C0029093130180931201089513
:103F1000CF92DF92EF92FF924430510508F46FC0C8
:103F2000FB01C080D180E280F3800E944D1B809114
:103F3000DD01C0FA80F9B701A6017695679557951E
:103F4000479540FB81F9B701A60122E07695679578
:103F5000579547952A95D1F740FB82F9B701A601FD
:103F600033E076956795579547953A95D1F740FB9D
:103F700083F9B701A601E4E07695679557954795D3
:103F8000EA95D1F740FB84F9B701A601F5E07695F3
:103F9000679557954795FA95D1F740FB85F9B70195
:103FA000A601A6E07695679557954795AA95D1F70E
:103FB00040FB86F9B701A601B7E07695679557955E
:103FC0004795BA95D1F740FB87F98093DD01809141
:103FD000DE01D0FA80F999E0F694E794D794C7947B
:103FE0009A95D1F7C0FA81F98093DE018091DD01C5
:103FF0009091DE010E947D2880E090E002C08FEF6A
:104000009FEFFF90EF90DF90CF9008959C01CA0141
:10401000F9013296459154918417950750F0CB01E0
:10402000F9013496659174910E947D3280E090E0B0
:1040300008958FEF9FEF08950F931F93CF93DF9312
:104040000FEB12E0C7EAD1E0CE010E94FF31F80188
:1040500061918F01681719F0CE010E940D322196EF
:10406000CB3CF1E0DF0781F7DF91CF911F910F91FA
:104070000895DA019C012E5F3F4FF901459154915B
:10408000F90125913491A217B30758F0FC01349639
:10409000859194910E947D320E941C2080E090E0E6
:1040A00008958FEF9FEF08950F931F93CF93DF93A2
:1040B000FC012285211134C0EC01038114811755C4
:1040C000C80166E170E00E945232DC01A751BD4F89
:1040D0001496ED91FC91159781519D4F309729F0E1
:1040E00054966D917C9155970995C80166E170E0F1
:1040F0000E9452328C0107511D4FF80187810E94A6
:104100002B29F80180850E9424290E94A129188268
:1041100019861B861E821D821092E8021092E70209
:10412000DF91CF911F910F910895CF93DF93FC0101
:104130002189211119C0EC0181E0818B87810E94C6
:1041400032299091E6028885892B8093E6020E94AD
:10415000A129EA81FB81CE010696309729F06C896E
:104160007D89DF91CF910994DF91CF9108950F93CD
:104170001F93CF93DF93C42FD22FFC01828188231A
:10418000C9F04093E5020E94C4199093E402809321
:10419000E30280E28C0F883008F05BC0C77081E0DA
:1041A00001C0880FCA95EAF7DF91CF911F910F9157
:1041B0000C94701B8091E502481334C08091E30297
:1041C0009091E4020E94A9192091D7023091D8025F
:1041D0008217930738F510E21D0FCD17B9F080E272
:1041E0008C0F883040F4C77081E001C0880FCA95F9
:1041F000EAF70E94691B183028F581E09D2F97701F
:1042000001C0880F9A95EAF70E94701B802F0E94C8
:10421000EC1B1830F0F4D77081E001C0880FDA95FC
:10422000EAF70AC080E28C0F883098F4C77081E00A
:1042300001C0880FCA95EAF7DF91CF911F910F91C6
:104240000C94691B802FDF91CF911F910F910C94DB
:10425000EC1BDF91CF911F910F910895CF93DF93C6
:10426000EC014091B4025091B5026091B602709198
:10427000B7022FB7F8948091A1019091A201A0916B
:10428000A301B091A4012FBF841B950BA60BB70B04
:10429000843F9140A105B105A8F48091B4029091AA
:1042A000B502A091B602B091B7028093B00290938C
:1042B000B102A093B202B093B30284EF91E0A0E008
:1042C000B0E00EC00E94B8196093B0027093B102C2
:1042D0008093B2029093B30282E390E0A0E0B0E05A
:1042E0008093AC029093AD02A093AE02B093AF0264
:1042F000D093BC02C093BB02DF91CF910895FF928F
:104300000F931F93CF93DF930091BD021091BE02D4
:104310000115110509F45CC01092BC021092BB0299
:104320001092B8021092B902D80116966D917C9144
:1043300017979B013A9521153F4108F4707EC62FCF
:10434000D1E0611101C0D0E0F82ED8011996ED91AD
:10435000FC911A97309739F01B966D917C911C97C0
:1043600080E00995D823DD2379F08CEF8C0F813A1A
:1043700030F46C2F81ED91E00E94F91905C00E9484
:10438000A1298C2F0E94771BE091BD02F091BE0203
:1043900040815181FF2071F0808584FD0BC08091A8
:1043A000BA02882339F091E09A0121503109253A67
:1043B0003D4508F090E090FF03C0CA010E942E2105
:1043C0000E94A1291092BE021092BD021092BA0260
:1043D000C801DF91CF911F910F91FF900895FC01CB
:1043E00084818623C1F492819923B9F08085692361
:1043F00083FF04C081E0611111C00DC0892F8F704F
:1044000092959F70982B862F8F7062956F70682B96
:1044100081E0961719F080E0089581E00895452B1A
:1044200041F06F3F41F491E08F3F09F090E0892F18
:1044300003C081E001C080E081700895A091A802CE
:104440005091A9024A2F451719F1242F30E0F901A4
:10445000EE0FFF1FE056FD4F6081718168177907ED
:1044600091F467E070E00E94523288599D4F51E00C
:10447000FC0154834A130CC02F5F3F4F2370332736
:104480002093A80208952F5F3F4F422F4370DBCF48
:104490000895FF920F931F93CF93DF9380910702AC
:1044A000882309F440C00091060280910702081792
:1044B000B0F5FF24F394F00EF092060210E0C8016C
:1044C0006CE070E00E945232EC01C85FDD4F4B811E
:1044D0005C81698188810E940F2281111EC08E81BA
:1044E0009F81892B21F488859985019651F4288133
:1044F00039814A815B816C817D818E819F810E949F
:104500006F1EC8016CE070E00E945232885F9D4FC0
:10451000FC01148213821092E6020F2DC6CF109276
:10452000070210920602DF91CF911F910F91FF9029
:1045300008951092050210920402E8E6F2E08581E7
:10454000811102C014821682379682E0E03AF807A1
:10455000B1F708951092AB021092AA0210921501C1
:104560008091A9028093A8020E9499220C9449226A
:104570004F925F927F928F929F92AF92BF92CF9213
:10458000DF92EF92FF920F931F93CF93DF93C0912F
:10459000A80201E010E08EEFA82E88248394809179
:1045A000A902C81709F485C04C2E512CF201EE0F58
:1045B000FF1FE056FD4F20813181C90167E070E0A7
:1045C0000E94523288599D4FEC018C8181116DC03F
:1045D00090900702A8E0B2E0E0E0F0E0B12CE9152D
:1045E00008F060C01A96ED90FC901B97C90167E037
:1045F00070E00E94523288599D4FEC01C880D980EA
:104600004FEF5FEF712C872D90E0BC01660F771F95
:104610006C0D7D1DEB01688179816115710531F0AB
:10462000E616F70609F4AC017394EDCF4F3FDFEFC8
:104630005D07A9F1B80102C0660F771F4A95E2F73E
:10464000B62AE80102C0CC0FDD1F7A94E2F7CE0152
:1046500001974B2D50E084179507E9F4CF016CE0EA
:1046600070E00E945232FC01E85FFD4FC90167E033
:1046700070E00E945232DC01A859BD4F12968D9114
:104680009C91139797838683A082A182318720878C
:1046900015968C9207C014961C921E921397319611
:1046A0001C969DCFC9010E941E22E2012196C37073
:1046B00076CF0E944922DF91CF911F910F91FF90F9
:1046C000EF90DF90CF90BF90AF909F908F907F90B2
:1046D0005F904F900C94992280911401877F809372
:1046E000140182E00E9424298091140184FF06C0F5
:1046F0008F7E8093140182E00E9432298091140100
:1047000085FF06C08F7D8093140180E20E943229CC
:104710000C94A129662329F02091E60222602093BF
:10472000E6029C013056211540E2340720F0305E4D
:104730002115304108F499270C944C2E009741F034
:10474000EFE9FFE03197F1F700C000000197F6CFE5
:104750000895AF92BF92CF92DF92EF92FF920F93A4
:104760001F93CF93DF935C017B01C42E890180915D
:10477000140182FF8DC0C0910202D0910302CA15BC
:10478000DB0521F0A114B10409F082C0809114016D
:104790008B7F8093140181FD11C080910002909164
:1047A0000102A701481B590B81E0209112013091B1
:1047B00013014217530718F480E001C081E08170B3
:1047C000D82E80911401D0FA81F980931401FE0152
:1047D000FF2784E0F695E7958A95E1F79E012F7013
:1047E0003327EE0FFF1FE052FE4F81E090E002C042
:1047F000880F991F2A95E2F7DD2029F02081318169
:10480000822B932B06C08095909520813181822345
:104810009323918380838091DF0181FF08C0809181
:10482000140180618093140182E00E942B29809101
:10483000DF0185FF08C0809114018062809314011C
:1048400080E20E942B29A8016D2DCE010E948A23AF
:10485000CC2031F08091DA0285FF02C086FF36C09D
:104860008091DD029091DE020E949E2380910202DF
:10487000909103029C013056211540E2340720F04C
:10488000305E2115304108F499270E94322E18C05D
:1048900095013327C5019056811540E2940720F019
:1048A000905E8115904110F4C90101C0C5010E94BC
:1048B000322E8091020290910302A816B90611F4DB
:1048C0000E946C23F0920102E0920002DF91CF91EE
:1048D0001F910F91FF90EF90DF90CF90BF90AF901E
:1048E00008950F931F93CF93DF930FEB12E0C7EA66
:1048F000D1E0CE010E94FF31F80181938F01219612
:10490000CB3CF1E0DF07A9F7C0E0D0E0FE01EB5BB4
:10491000FA4F85919491009711F0FC0109952C961E
:10492000C039D10599F7DF91CF911F910F9108956B
:10493000EFEBF2E0128E138E8FEA90E0918380838A
:1049400085E0848F28E833E13383228322E330E05B
:10495000378B268B28EC30E0318F208F158E2AE0A4
:1049600030E0378F268F20E530E031A320A382A3EB
:104970000E941C200E944D1B1092DE011092DD014E
:1049800080E090E00E947D280C947124CF93DF9307
:10499000C3E9D2E060E0CE010E940D322196C1153C
:1049A00084E0D807B9F7DF91CF910895462F209181
:1049B000DB013091DC01232B91F47E3F39F46E3F13
:1049C00071F48091D9019091DA010895843038F41E
:1049D000743028F46C3018F4672F0C94A22E80E009
:1049E00090E008959F92AF92BF92CF92DF92EF92A4
:1049F000FF920F931F93CF93DF93CDB7DEB76E97E0
:104A00000FB6F894DEBF0FBECDBFC0901001D0909E
:104A1000110181E090E0909311018093100100E07A
:104A200010E0C80160E670E00E9452325C01912CF7
:104A3000E12CF12CF701EE0FFF1FEA0DFB1DE554F1
:104A4000FC4F259134914E2D692D802F0E94652EAB
:104A50008FEFE81AF80AECE0EE16F10459F7F8E1E6
:104A6000AF0EB11C939484E09812E2CF0F5F1F4FFA
:104A700004301105B1F60E9498241A8219821C8212
:104A80001B821E821D8218861F8288EC90E09A8706
:104A900089870BEC11E04AE050E0B801CE010196A5
:104AA0000E943132065F1F4F033FE1E01E0799F776
:104AB0007E01FBE0EF0EF11C8AE0F70111928A956E
:104AC000E9F74AE050E0B801C7010E943132065FC1
:104AD0001F4F0334F2E01F07A1F77E0185E1E80EC6
:104AE000F11C8AE0F70111928A95E9F78FEF9FEFA9
:104AF0009A8F898F87E08E8F4AE050E0B801C70116
:104B00000E943132065F1F4F0339F2E01F07A1F701
:104B1000D0921101C09210016E960FB6F894DEBFCC
:104B20000FBECDBFDF91CF911F910F91FF90EF90FE
:104B3000DF90CF90BF90AF909F900895843088F41D
:104B40009B0190E06AE070E00E945232BC01655324
:104B50007E4F4AE050E0C9010E94EF3180E090E0D2
:104B600008958FEF9FEF089580E008959091DD0103
:104B700092FF0DC0282F2871283019F4877F846098
:104B800006C0282F2471243011F48B7F886093FF96
:104B90000DC0282F2871283119F4877E846106C042
:104BA000282F2471243111F48B7E88612091DE013D
:104BB00020FF0DC0382F3871383019F4877F81609D
:104BC00006C0382F3171313011F48E7F886021FF9B
:104BD0000DC0282F2871283119F4877E816106C005
:104BE000282F2171213111F48E7E886194FD877EFA
:104BF0000895F894E82FE295EF70F0E031A1282FA6
:104C00002F7081E090E001C0880F2A95EAF7982F75
:104C10009095932391A392A1892B82A378940895D0
:104C20008F929F92AF92BF92CF92DF92EF92FF92BC
:104C30000F931F93CF93DF93CDB7DEB728970FB6AF
:104C4000F894DEBF0FBECDBFAE014F5F5F4F7A015C
:104C500088E0FA0111928A95E9F70EE111E06A0104
:104C6000AA24A394B12CF80180818F3F09F447C096
:104C7000F894E82FE295EF70F0E021A18F70A50184
:104C800002C0440F551F8A95E2F7CA01922F982B54
:104C900091A392A18095892382A3789400C0E2E237
:104CA000F1E021E030E0812C912C41914F3F89F0DF
:104CB000A42FA295AF70B0E090968C9190E04F70C9
:104CC00002C0959587954A95E2F780FD02C0C9011B
:104CD00002C080E090E0882A992A220F331F51E019
:104CE000EE32F50711F7F80180818F3F11F00E9435
:104CF000F925F0EAFA95F1F7F601918280820F5FCB
:104D00001F4FF2E0CF0ED11C41E00232140709F030
:104D1000AACF48E050E0B70186E791E00E947032E8
:104D200011E0009709F410E0892B89F088E0F70181
:104D3000A6E7B1E001900D928A95E1F781E08093BA
:104D40009D030E94C41990939C0380939B038091C0
:104D50009D03882351F180919B0390919C030E94B5
:104D6000A919059710F180917601909177019093A0
:104D700093018093920180917801909179019093B1
:104D800095018093940180917A0190917B01909399
:104D900097018093960180917C0190917D01909381
:104DA00099018093980110929D03812F28960FB648
:104DB000F894DEBF0FBECDBFDF91CF911F910F9151
:104DC000FF90EF90DF90CF90BF90AF909F908F902B
:104DD0000895CF93DF938238910569F1B0F4813360
:104DE000910509F46FC048F48932910509F465C052
:104DF0008A32910509F46BC08AC08533910509F4A4
:104E000057C089339105B9F082C0833E910571F195
:104E100038F4803E9105B1F0823E910511F177C0E2
:104E2000863E9105B9F1873E9105C9F1843E910511
:104E300009F06DC024C02091DD0120FD53C021FD8B
:104E400051C065C08091DD0180FD46C08091DE01CA
:104E500080FF48C08091DD0184FD4AC183EE90E06F
:104E600049C18091DD0182FF3AC0F4CF8091DD011C
:104E700082FD35C08091DE0180FD34C0EBCF809192
:104E8000DE0181FF35C08091DD0184FD31C187EEF7
:104E900090E030C18091DD0183FF27C0F4CF809185
:104EA000DD0183FD22C08091DE0181FD21C0EBCFB9
:104EB0008091DD0185FD1FC021C08091DD0185FD50
:104EC0001DC019C08091DD0186FD1BC01DC08091F1
:104ED000DD0186FD19C015C089E390E00BC182EEAB
:104EE00090E008C180EE90E005C186EE90E002C13E
:104EF00084EE90E0FFC089E290E0FCC085E390E0A2
:104F0000F9C08AE290E0F6C081E390E0F3C0811539
:104F100032E5930708F06CC0811541E5940728F04D
:104F2000982F8827816F906AE5C0883E910568F5C3
:104F3000803E910508F0DEC0883A9105B8F4853AC4
:104F4000910548F0855AE82FF0E0E35CFE4F808140
:104F500090E09064CFC08130910509F4C6C008F498
:104F6000C7C08430910508F4C3C0C4C08F3B91050D
:104F700008F0BEC0885AE82FF0E0EE0FFF1FE05C9B
:104F8000FE4F808191819464B5C0811520E5920720
:104F900008F19C01F4E036952795FA95E1F7922FF8
:104FA0009370482F437021E030E002C0220F331F7E
:104FB0004A95E2F73C68392B8F70982F9695969515
:104FC000892F90E0A5E0880F991FAA95E1F7822B21
:104FD000932B90C0811530E4930718F09F70906A6E
:104FE00089C09C013A9521153F4108F483C080C0D7
:104FF000EC01C11586E5D80708F044C0C11525E5C8
:10500000D20748F08C2F0E94B6258F7190E0982F20
:10501000882790626FC0C11534E5D30728F09C2F14
:105020008827846F906A66C0AE01437055276C2F45
:1050300066956695C115D34590F421E030E002C035
:10504000220F331F4A95E2F7862F90E075E0880F14
:10505000991F7A95E1F7822B932B9C684BC081E0D6
:1050600090E09C0102C0220F331F4A95E2F7862F81
:1050700090E065E0880F991F6A95E1F7822B932BEA
:105080009A6838C0C1152AE5D207F8F4C11539E588
:10509000D30790F08C2F8F700E94B62594E0D695A0
:1050A000C7959A95E1F7CF70D0E0DC2FCC27D06977
:1050B0009E01282BC9011EC0C11548E5D407C0F0C8
:1050C0009C2F8827806F906A15C0CE01905681155D
:1050D000904270F48D2F8F710E94B625282F2F716A
:1050E000CE0199279062922B05C081E090E002C02A
:1050F00080E090E0DF91CF910895CF93C92F682F82
:1051000084E090E00E940D326C2F82E290E0CF911B
:105110000C940D32CF9384E090E00E94FF31C82FB1
:1051200082E290E00E94FF312C2F30E0A901582B41
:10513000CA01CF91089569EE7EEF80E090E00E9471
:105140002B3260E082E090E00E940D3260E083E06C
:1051500090E00E940D3210929A0360E084E090E0AB
:105160000E940D3260E082E290E00E940D3260E029
:1051700085E090E00E940D3260E086E090E00E94C1
:105180000D326FEF87E090E00E940D3240E050E07A
:10519000BA0188E090E00E941F3260E08DE090E06C
:1051A0000E940D3240E050E0BA0188E190E00E9498
:1051B0001F3260E087E190E00E940D3240E050E055
:1051C000BA018CE190E00E941F3260E070E080E262
:1051D00090E00E942B3240E050E0BA0188E190E07C
:1051E0000E941F3280E00E94A0310E94BE3140E048
:1051F00050E0BA018FE090E00E941F3240E050E0A2
:10520000BA0183E190E00C941F32809199038823C6
:1052100031F0109299031092980310929703089519
:10522000CF939091DE0192FD0DC090919903981754
:1052300049F0C82F0E94C419909398038093970354
:10524000C0939903CF91089580959091E6028923A8
:105250008093E602089580959091DF0189238093E1
:10526000DF0108959091DF01892B8093DF0108957C
:1052700010928E0310928D0310928C03089520914A
:105280008E038095822380938E03982F977099F4D4
:1052900030E0482F082E000C550B2417350759F025
:1052A0009091DE0192FD07C08595859585950E94B8
:1052B000081B0C94382908959091DE0192FB222757
:1052C00020F9281769F080FB92F99093DE01809114
:1052D000DD019091DE010E947D2882E00C943F293F
:1052E00008959091DE0192FD10C0982F990F990FAB
:1052F000990F692B60938E030E94141B0E94C4199E
:1053000090938D0380938C0308950C94141B8091CB
:10531000C1029091C202892B89F00E94C419209188
:10532000970330919803AC01421B530B81E020910D
:10533000C1023091C2024217530708F480E0817025
:1053400008959091DF018091E602892B8093D1012D
:1053500080919903882301F18091C1029091C2024A
:10536000892B29F00E94872981110E94052990919B
:10537000D10180919903892B8093D101E3EDF1E074
:1053800097E080E0915029F021912223D9F38F5F9B
:10539000F9CF81110E9405298091B80280959091E2
:1053A000D10189239091B902892B8093D10148E0E2
:1053B00050E06FE873E081ED91E00E947032892B3C
:1053C000A9F088E0E1EDF1E0AFE8B3E001900D92E3
:1053D0008A95E1F7E0919C01F0919D01309731F0C1
:1053E0000280F381E02D81ED91E009940895809190
:1053F0008B03811110928B03089520918A03909161
:1054000049032917B1F030E0F90153E0EE0FFF1F17
:105410005A95E1F7E65BFC4F5181561306C0508167
:10542000581303C05281541306C02F5F3F4F27709B
:10543000E8CF80E0089581E0089580918A039091FB
:105440004903891719F08F5F8770FBCF0895CF92BA
:10545000DF92EF92FF920F931F93CF93DF93809190
:10546000460382958F7009F05CC0809143038823C6
:1054700009F457C0C0918A0380914903C81709F401
:1054800050C0F0904103E0904203C0904403D0909C
:105490004503A6016E2D8F2D0E940F22D0E08111B1
:1054A0003DC08E0183E0000F111F8A95E1F7F801DE
:1054B000E65BFC4F81818E1131C080818F112EC03F
:1054C000828181112BC0E380F480EC18FD0860E03C
:1054D00081E493E00E94702B8091D7029091D802D2
:1054E000E816F906D8F4809146038F7080618093A6
:1054F0004603F801E15BFC4F80818F7080618083FF
:1055000081E493E00E947803DF91CF911F910F9186
:10551000FF90EF90DF90CF900C941D2A2196C770DA
:10552000ABCFDF91CF911F910F91FF90EF90DF9064
:10553000CF900895BF92CF92DF92EF92FF920F9398
:105540001F93CF93DF93EC012881222309F495C0A8
:10555000213009F03FC08981813039F48E010E5F1E
:105560001F4F8A810E94EC1B08C0823041F48E01DB
:105570000E5F1F4F8A810E94A11BE8017CC083300F
:1055800039F48E010E5F1F4F8A810E94771BF5CF81
:10559000843011F021966FC02A81229680E090E03D
:1055A00030E0205331092A30310548F46AE070E0D8
:1055B0000E945232820F931F21962881F1CF0097CB
:1055C00009F459C0EFE9FFE03197F1F700C000009E
:1055D0000197F5CFE22FF0E0E550FA4FB490822F1B
:1055E00086958695869590E0FC01E551FA4FE4900A
:1055F0002770F12C022E02C0F594E7940A94E2F78A
:10560000F1E0EF22FF24FC01E552FA4FC490D12CC7
:10561000022E02C0D594C7940A94E2F731E0C32267
:10562000DD24FC01E553FA4F049110E002C015950A
:1056300007952A95E2F701701127E114F10419F09A
:1056400081EE0E94A11BC114D10419F086EE0E94C4
:10565000A11B8B2D0E94EC1BCD2819F086EE0E9419
:10566000771BEF2819F081EE0E94771B012B19F0B0
:105670008CE20E94EC1B219667CFDF91CF911F91A6
:105680000F91FF90EF90DF90CF90BF9008951F9300
:10569000CF93DF9300D000D01F92CDB7DEB7498300
:1056A0005A8389819A81662359F0222349F00E9406
:1056B000641A182F682F89819A810E94D11A03C019
:1056C0000E94A01A182F69817A81812F0F900F9064
:1056D0000F900F900F90DF91CF911F910C94D624D3
:1056E000FC01262F86819781009739F440815181F2
:1056F0006281738184810C94472B08952F923F928D
:105700004F925F926F927F928F929F92AF92BF92D1
:10571000CF92DF92EF92FF920F931F93CF93DF937D
:10572000CDB7DEB76A970FB6F894DEBF0FBECDBF18
:10573000942F498B252F5A8B6B8B7C8B8D8B4C89AF
:105740005D89622F892F0E940F22811109C08091EB
:105750007301909174010196909374018093730189
:105760008B8981111092E6028E01075F1F4F88E03E
:10577000D8011D928A95E9F785E0FE017196D8015E
:1057800001900D928A95E1F78091DE0182FD28C09B
:105790008091C1029091C202892B11F10E94C4191B
:1057A00020918C0330918D03821B930B2091C102B9
:1057B0003091C2028217930740F080918E0382FBE2
:1057C000992790F981E0892701C080E080FF03C01C
:1057D00082E00E943F290E94872981110E940529A9
:1057E0004C855D856A8589850E940F228111EAC1F9
:1057F00061E0C8010E94702B6C01873FBCE59B07EC
:1058000039F48B858823A1F081E080931501DAC1FA
:10581000883FECE59E0731F48B85882349F00E9490
:10582000AA22D0C1893F9C4519F48B85811112C0F1
:1058300008E612E0912CA12CB12C22242394312CC7
:1058400055245394AE014F5F5F4F5F8B4E8BAEEF8D
:105850004A2E51C0809115018823B1F2E0CFC616BF
:10586000D70609F097019F5F7901292F30E0F901F0
:10587000EE0FFF1FE40FF51F608171816115710547
:1058800071F7BFEFEB16FB0609F447C1F80164811D
:10589000611139C020911501822F81708B84D8014C
:1058A00015963C91159716962C911697882009F419
:1058B000D3C0882309F4D0C06090D5027090D6027E
:1058C000332321F1910102C0220F331F9A95E2F791
:1058D00021503109F801868190E02817390751F1EC
:1058E0009828BFEFAB1ABB0A095F1F4FE8E0AE165E
:1058F000B10409F414C1D8014D915C91EE24EA94ED
:10590000FE2C90E0B2CF20E030E0C6CFA10101C074
:10591000440FEA94EAF7242B16962C932091040264
:10592000309105022615370568F6709205026092DF
:105930000402C8CF8091AA029091AB02009749F06F
:105940000E94A9196816790620F4D80114965C9271
:10595000C7CF2091A802B091A902B88FA0E0B0E013
:10596000F88D2F1709F465C0E22EF12CF701EE0F28
:10597000FF1FE056FD4F0190F081E02DCF0167E061
:1059800070E00E94523288599D4FDC010D90BC910D
:10599000A02DBA8FA98F30E080E090E0A92FB0E071
:1059A000AA0FBB1F498D5A8DA40FB51F6D917C9115
:1059B00061157105B9F0D8016D907C9080E0A82F39
:1059C000B0E0AA0FBB1FA60DB71D4D915C9141150C
:1059D000510531F06417750709F431E08F5FEFCF9F
:1059E0009F5FDCCF3323F1F0891708F4E4C0CF01C7
:1059F00067E070E00E945232DC01A859BD4F109759
:105A000099F0FD015482A017B10709F469CF809184
:105A1000A802281309C0C7010196837099278093B3
:105A2000A80202C0A0E0B0E097012F5F3F4F2370B3
:105A300097CFA017B10709F453CF30E0F901EE0F6B
:105A4000FF1FE056FD4FB182A0822F5F3F4F2370B2
:105A500033272093A90244CF311114C0A10102C001
:105A6000440F551F9A95E2F74150510930E0421713
:105A7000530709F042C0662309F440C0C5010E94E3
:105A80001E223BC0822F90E09C0121503109282327
:105A900039230E2C02C0959587950A94E2F7232BA3
:105AA00051F580FF28C0D80112968D919C911397D3
:105AB000892BE9F0EE89FF8948E011924A95E9F7D0
:105AC00049824A820E94C4198160582F9D838C8329
:105AD000D80112968C91129713969C918F83988778
