:100000000C9422030C945A030C945A030C945A0334
:100010000C945A030C945A030C945A030C945A03EC
:100020000C945A030C945A030C945A030C943D19E3
:100030000C94F9180C94571A0C945A030C945A0304
:100040000C945A030C945A030C945A030C940A1AF5
:100050000C945A030C945A030C945A030C945A03AC
:100060000C945A030C945A030C945A030C945A039C
:100070000C945A03EB0AEB0A1B0B1B0BB40B0D0D74
:100080000D0D0D0DD20B450C580C580C401256128C
:100090005D125A145A149512A612B912F912FE12D0
:1000A000261350138A138D139913A413BC13DD1355
:1000B000F1131214371403172A17DB182A17DB1849
:1000C00076179917DB189618A618FD377A585A0034
:1000D0000004E6D6B4460200210116000000742F89
:1000E000E5A3E004C901685D003D888986D3DC0A88
:1000F000E842C324925842588FD8E75CA0D2616E80
:1001000026E888019A676C7887BC8D3709EA0E1457
:1001100059A53C798586633FDCC445A3F020FF20C8
:10012000B3687235CC77FE57EDF5D44ED910B324B1
:1001300088B68C7499D1CA132E83A6FB9FB5BBCC0D
:1001400075FFC5D6994EE3CF8F86533FFDC1B59B52
:100150004499A932F3D15AEE0FDD893E9F7569EBC0
:10016000B62CF3677C16F0F708B817CBB892D1D647
:100170003F2F9F88476F16F1B728D6FC82D6C762FB
:100180008E5B88176E0A82C97F11CC6638E479F8D5
:1001900079398F7EE8092E66263BE605B941B3A181
:1001A000EEE34F45949DC9FF8B8FD15E12AC2518AD
:1001B000C6AE2CCD666B3D7BFC8ACC73E88F12A853
:1001C000DDFAC3AC47A20AE94052D91AB517009725
:1001D0005E32EB5F020C25D2720E140BB095BBFFA2
:1001E000C6E53A21270EB1099A80F793BFA2880786
:1001F0006542D282E6750C866B10947A0B74F1A777
:1002000002FC8A489B34E0721F189DC5413E81FD67
:10021000AE73D997DC10F6716F3CCB9C875460109D
:10022000504E263CF2564D49C94E83066464B16B6C
:10023000B14BD37B734EEDF768BBF5BA93F732261B
:10024000BC56C8AA47936EC799B04C2D77A0B0662C
:100250000000B668727AE197AD5A00018403CA09BA
:1002600000002ECDF517B1C467FB020000000004AA
:10027000595A05010980A101850319012AB7001502
:100280000126B700950175108100C0050C0901A178
:1002900001850419012AA002150126A00295017505
:1002A000108100C00660FF0961A1010962150026E6
:1002B000FF009520750881020963150026FF00954F
:1002C0002075089102C005010906A101050719E082
:1002D00029E715002501950875018102950175082A
:1002E00081010507190029FF150026FF00950675F5
:1002F00008810005081901290595057501910295E8
:100300000175039101C009025B00030100A0FA0915
:100310000400000103010100092111010001224034
:100320000007058103080001090401000203000021
:10033000000921110100012222000705820320008B
:100340000107050303200001090402000103000066
:100350000009211101000122320007058403200059
:100360000112010002000000083412785601000159
:100370000203011C037600690061006C003A00660C
:100380000036003400630032006200330063000076
:10039000000A03710073003100330000001803717C
:1003A000007500610072006B002E0077006F007214
:1003B000006B007300000004030904290014001AF4
:1003C000000800150017001C0018000C0012001394
:1003D000002A002B0004001600070009000A000B89
:1003E000000D000E000F0033004C00E1001D001B4B
:1003F0000006001900050011001000360037003813
:10040000002800E000E300E20000002C002C0000C7
:10041000000000E600E700E400E500010001000143
:1004200000010001000100010001000100010001C4
:1004300000010001000100010001000100010001B4
:1004400000010001000100010001000100010001A4
:100450000001000100010001000100010001000194
:100460000001000100010001000000010001000086
:100470000000000100010001000100010001000175
:100480000001000100010001000100010001000164
:100490000001000100010001000100010001000154
:1004A0000001000100010001000100010001000144
:1004B0000001000100010001000100010001000134
:1004C0000001000100010001000000010001000026
:1004D0000000000100010001000100010001000115
:1004E0000001000100010001000100010001000104
:1004F00000010001000100010001000100010001F4
:1005000000010001000100010001000100010001E3
:1005100000010001000100010001000100010001D3
:1005200000010001000100010000000100010000C5
:10053000000000010001000100010001000100367F
:100540000300000200020032030000030001003734
:10055000030000040002001C033E240500010038D3
:10056000030000060002001E030000070002003422
:100570000300000800010039030000120002003AE5
:10058000030000130002003C030000140001003EC1
:100590000300000000000000000000000000000058
:1005A000000000000000000000000000000000004B
:1005B000000000000000007E0F00D4FFFFFFC70016
:1005C00000007800000000000000002A2B28000036
:1005D00000000000000000000000000000002900F2
:1005E0000000002C1E3420212224342627252E36FC
:1005F0002D3738271E1F202122232425263333366A
:100600002E37381F0405060708090A0B0C0D0E0FBC
:10061000101112131415161718191A1B1C1D2F313F
:1006200030232D350405060708090A0B0C0D0E0FA3
:10063000101112131415161718191A1B1C1D2F311F
:1006400030354C0011241FBECFEFD4E0DEBFCDBF4C
:1006500004B603FE18C08091890490918A04A09189
:100660008B04B0918C048730904BA740B04B59F469
:100670001092890410928A0410928B0410928C04B8
:10068000E0E0F8E3099511E0A0E0B1E0E2E8F3E68C
:1006900002C005900D92AC36B107D9F724E0ACE664
:1006A000B1E001C01D92A938B207E1F70E94770DB1
:1006B0000C94BF310C9400002F923F924F925F92A6
:1006C0006F927F928F929F92AF92BF92CF92DF9262
:1006D000EF92FF920F931F93CF93DF93CDB7DEB7C7
:1006E0002C970FB6F894DEBF0FBECDBF7C01DC01A6
:1006F00013964D915C91149711966C9111978C9172
:100700000E94242681110C945E0D61E0C7010E94B5
:10071000B22A8C01F7018281811106C0D70112969D
:100720003C9031103EC094C680910D0190910E0115
:100730000196A1F376E4C72E73E0D72EA12CB12C3D
:100740009924939480910D0190910E018A159B0537
:100750002CF3F60186818823E9F0818592850817BC
:10076000190739F48091440390914503081719073C
:1007700089F0D6011F969C921F971C961C930E938E
:100780001B97C6010E94AA24C60106960E946924EE
:1007900010924303BFEFAB1ABB0AE6E1CE0ED11CA9
:1007A000D1CFC80182519F45409708F0AFC08FEF6D
:1007B00093E00E943131811138C66EEED62ED00EF4
:1007C00003E912E0DD2071F00115F4E01F0709F4E0
:1007D0002CC6C8010E943131811101C0DA940F5F2B
:1007E0001F4FF0CF19821A821B821C8268012FEFE3
:1007F000C21AD20AC8010E94313189831A82882321
:1008000009F413C6813009F07CC0580132E0A30E10
:10081000B11CC6010E943131982E8A83882309F4C5
:1008200004C68FEF890D833060F4680143E0C40E85
:10083000D11CC5010E9431318B83811162C08601B8
:10084000D5CF8BEF890D833078F5380153E0650EF5
:10085000711CC5010E9431318B83811102C063017B
:10086000EECF680184E0C80ED11CC3010E94313173
:100870008C83882321F32B813C8121309FEF390722
:1008800018F0922F80E001C0C901A6E09A1631F05D
:10089000B7E09B1631F00E941330D1CF0E94E22FB7
:1008A000CECF0E94592FCBCFE4E09E1611F0650108
:1008B000C6CFC5010E943131B82E6801F4E0CF0ED9
:1008C000D11CC80103960E943131BB2009F4ADC58B
:1008D000882309F4AAC590E001976FEF70E00E94A9
:1008E00084312B2D30E021503109820F931F019765
:1008F00008F4A5CFAFE9BFE01197F1F700C0000001
:10090000F6CFCE0101960E94DC2999CF0031EFE5A8
:100910001E0731F00131FFE51F07B1F482E001C08D
:1009200081E00E94791B0E94FC147FC5680127E5C5
:10093000D21A3FEFC316D10409F008F498C5D701C5
:1009400012963C903320D1F00F35BDE51B0761F0C6
:100950000036EDE51E0761F00E35FDE51F0771F469
:1009600080910001811104C081E0809300015DC588
:100970001092000180E00E94942557C580910001EB
:1009800081110AC0580127E5B21A3FEFA316B1043E
:1009900009F008F47AC1D4C1480140EE841A9108E4
:1009A0002090290280911B02282A80913C02282A4B
:1009B00058E08516910480F498012770332781E070
:1009C00090E001C0880F2A95EAF7332011F0282A19
:1009D00018C08095282215C0332009F416C1109341
:1009E0006F0100936E010E943F1A60931103709390
:1009F000120380931303909314031092190310921F
:100A00001803D7018D919C910E94051B21E030E0D5
:100A1000F90102C0EE0FFF1F8A95E2F7FC87EB8712
:100A200020911A0330911B0338872F8340916E0168
:100A300050916F015A8749871D82432C512C5D814B
:100A4000E52FF0E0EE0FFF1FE150FC4FC080D1809A
:100A5000C114D10409F4F0C0211005C0D6011296CA
:100A60008C918111CEC0F601838190E02B853C856D
:100A700082239323892B09F4C4C08085982F977013
:100A800009F487E038E08316910440F4332019F02C
:100A900081FD09C0B6C082FD06C0B3C0332009F491
:100AA000B0C080FFAEC0D601AD90BC900A151B054A
:100AB00019F4332009F4A5C0EF81F885CE16DF06BE
:100AC00009F49FC0D6011D96ED91FC911E973097B9
:100AD00021F08081882309F494C0622DC6010E9410
:100AE0000426882309F48DC00A151B0511F4320170
:100AF00002C0612C712CB62DB170BE8381E0A114AF
:100B0000B10441F0B11106C0E985FA85AE16BF0601
:100B100009F080E080FF75C080E00E949425D092AB
:100B20001B03C0921A0381E080931703D601159628
:100B30008C9180931503BE81B11113C0AB2889F04D
:100B4000F601808191819C0124503109213A3105BF
:100B500030F4682F8EE292E00E94801A02C00E9458
:100B6000DC1BD6011696AD90BC901797C5019A95DF
:100B700081159F4110F4E0EEBE2255245394C50127
:100B80000197853A9D4508F0512CD6011996ED91B3
:100B9000FC911A97309739F01B966D917C911C97B8
:100BA00081E009955822552029F1F6018681978127
:100BB0000E94472D80931603C501F8E08F1691041B
:100BC00018F40E94432516C00497813A910530F429
:100BD0006A2D8EE292E00E948D1A0EC00E9445237B
:100BE0008FE39CE90197F1F700C000008A2D0E9475
:100BF000061C02C00E94452391E0692660FE80C168
:100C0000C1CEAD81AF5FAD831ACF80916E0190915F
:100C10006F010817190781F410926F0110926E018D
:100C200010921103109212031092130310921403E6
:100C3000109219031092180380911A0390911B03CC
:100C4000009709F49FCEB8E08B16910438F4622D1A
:100C50000E940426811196CE81E014C0FC012081FF
:100C600031810217130729F4311006C010921703BF
:100C700008C0332009F486CEDC0118968C9185FDDE
:100C800081CE80E00E9494257DCE80910D019091CF
:100C90000E018A159B0524F4B0920E01A0920D015D
:100CA000F7012281C50166E170E00E9484318A5B10
:100CB0009C4F6C01DC0150962C93509792811696B4
:100CC0008C911697992369F11A961C930E93199794
:100CD0008F5F16968C930E944B1AF6019687858734
:100CE0008091290287839091430380913C02892B54
:100CF00080870190F081E02D309771F0D6015496F5
:100D00002D913C915597C50166E170E00E948431B8
:100D1000B901845B9C4F09951093450300934403EC
:100D20000FC0882369F0F6018189882349F0C50145
:100D300066E170E00E948431845B9C4F0E946924CC
:100D40008091370380FF9DC00E944B1A6C01D70130
:100D500012968C918823D9F18091120182FF08C0EC
:100D600027E831E040E0B60180E090E00E94BE2735
:100D70000B31BCE51B0779F00C31ECE51E0789F05F
:100D80000A31FCE51F07A1F480911201982F90957C
:100D900090FB80F909C0809112018160809312015B
:100DA00007C0809112018E7F809312010E948127DB
:100DB000C8019056811520E2920720F0905E8115BF
:100DC000904180F51092600210925F025AC0013E7D
:100DD000110521F4809112018F7E06C0053E110598
:100DE00031F4809112018F7D809312011BC0C801E4
:100DF0009056811540E2940720F0905E8115904155
:100E000088F48091120182FF3CC08091390381FDFA
:100E100038C027E831E040E0B60180E090E00E9471
:100E2000BE272FC08091120180FF2BC0D7011296E0
:100E30008C910832110538F40E311105B8F40430E4
:100E4000110578F41CC00933110538F40D32110571
:100E500090F40B32110579F012C00436110559F0E7
:100E60000EC09091370394FD0AC04DC09091370396
:100E700093FD05C048C09091370392FF44C0811193
:100E8000EFC0033FFCE51F0709F417C108F01BC1C1
:100E9000083D3CE5130709F40AC1093D4CE5140778
:100EA00009F42DC1073D5CE5150709F4FAC0D70127
:100EB00012962C9121112CC10631BCE51B0709F0BB
:100EC00095C280913C02982F9A7A3091360330FD7A
:100ED00066C231FD6AC232FD6EC233FD72C2222388
:100EE00009F478C281E0911101C080E08093700123
:100EF000992309F46DC265E38EE292E00E948D1A97
:100F00000E94452392C2882309F4A3C020913C0289
:100F100080912902982F922B392F3D7F79F11092E1
:100F2000600210925F023091370331FD27C0F80153
:100F300043E0F695E7954A95E1F7EE71FF27E35C0C
:100F4000FD4F98012F70332781E090E002C0880F99
:100F5000991F2A95E2F7809590952081318182230F
:100F6000932391838083A70160E0C8010E949F279B
:100F7000809129028D7F0E94AC2267C038E0F70182
:100F8000A7E8B1E001900D923A95E1F7109289013E
:100F900010928B0110928A0140915F025091600281
:100FA00004171507D1F53091370335FF36C040914E
:100FB000120141FF02C036FF30C040915D025091E6
:100FC0005E02B601641B750B4091340350913503EA
:100FD0006417750710F521FF08C080911201806128
:100FE0008093120182E00E94C72280913C0285FF1B
:100FF00008C08091120180628093120180E20E94F9
:10100000C7226091120166956170A70180915F020D
:10101000909160020E949F2708C29695917020913E
:10102000120190FB21F9209312018D7F0E94AC22C6
:101030001093600200935F02D0925E02C0925D0244
:101040008091120184608093120182E00E94DB2271
:10105000ECC1970140E0B601C8010E94BE27E5C17E
:101060001092600210925F02033FBCE51B0729F15A
:1010700070F4083DFCE51F07D1F0093D2CE512078F
:10108000F1F1073D3CE5130709F042C00AC0053FF6
:101090004CE5140719F1E0F0063F8CE5180749F11B
:1010A00037C006E221EE41EE67ED7CE52DC007E298
:1010B00025EE45EE68ED7CE527C006E221EE40EE28
:1010C00063EF7CE521C0053F8CE5180739F060F43B
:1010D00007E225EE44EE64EF7CE516C006E221EE61
:1010E00042EE65EF7CE510C0063FACE51A0709F05B
:1010F000DECE07E225EE46EE66EF7CE505C008E2AF
:1011000021E045EE69ED7CE5C7010E94CC248DC14C
:10111000109242030330BDE51B0758F40A3FECE58B
:101120001E0780F4C80182509C45449708F035C1E1
:1011300009C00136FDE51F0729F0053A2DE5120724
:1011400009F02BC10E94262290937D0180937C019F
:1011500001313CE5130709F4C6C008F042C009306C
:101160005CE5150709F49BC000F505309CE51907FF
:1011700009F485C078F40330BCE51B0709F478C096
:1011800008F07AC002301C4509F0F7C080917C015C
:101190008160F1C007302CE5120709F478C008F02F
:1011A0007AC080917C018061E6C00D304CE5140767
:1011B00009F487C058F40B308CE5180709F479C09E
:1011C00008F07BC080917C0188606FC00F30ACE577
:1011D0001A0709F480C008F082C080917C01877FE3
:1011E000CAC00D3FECE51E0709F471C000F50531DA
:1011F0002CE5120709F485C068F403314CE51407A7
:1012000009F475C008F095C00E94B21B80917C0162
:101210008F77B1C00B3F8CE51807A9F108F054C0D7
:101220000A3F1C4509F0A9C080917D0140C00130F2
:10123000BDE51B0709F489C058F40F3FFCE51F0703
:1012400009F45AC008F069C080917D0182602FC006
:1012500001363DE5130709F47EC0053A4DE5140754
:1012600009F483C002301D4509F087C060E06EC0FC
:1012700080917C0182607FC080917C0116C080914A
:101280007C01886078C080917D0182604FC0809130
:101290007C01806270C080917C0180646CC00E947F
:1012A000B21B80917C01806866C0846064C08160EC
:1012B0003DC080917C018E7F5EC080917C018D7FDE
:1012C0005AC080917C0116C080917D0118C0809128
:1012D0007D018D7F2BC080917C018F7E4CC08091E1
:1012E0007C018F7D48C080917C018F7B44C08091C0
:1012F0007C01877F8B7F3FC080917D018D7F8E7FBA
:1013000015C080917C0182FB222720F991E0922771
:1013100090FB82F990FB83F92EC080917D01982F7C
:10132000909591708E7F892B90FB81F980937D0140
:1013300024C00E94B21B80917C0187FB222720F9E8
:1013400091E0922790FB87F916C061E08EE090E073
:101350000E943F3112C080917C0184FB222720F93A
:1013600091E0922790FB84F906C080917C01982F30
:10137000909590FB80F980937C0160917C011091A5
:101380007D0184E090E00E943F31612F82E290E095
:101390000E943F310E94B21B48C021E08DCD482FF2
:1013A000447409F496CD90E094CD482F417109F42E
:1013B00092CD90E090CD482F487809F48ECD90E002
:1013C0008CCD827209F48BCD222321F01092700112
:1013D00069E292CD80917001882311F065E301C02C
:1013E00069E28EE292E00E94801A8ACDD7011296BD
:1013F0008C91882309F49BC00A358DE5180709F400
:1014000091C008F080C00115ACE51A0709F075C05D
:101410000E94B21B2FEF34E34CE02150304040409B
:10142000E1F700C000000E94E61980911E0287705B
:1014300009F444C3D70112968C91882309F43EC362
:1014400080917D0182FD3AC382E00E94DB2236C397
:101450000031FFE51F0721F481E00E946D1B63CA84
:1014600001312FE5120709F061CA82E0F6CF64EA84
:1014700073E08C2D0E94C629892B09F060CAC60131
:1014800066E170E00E9484318A5B9C4FDC01169615
:101490008C918130E1F48091A4039091A503892B74
:1014A00009F44DCA8091A6039091A703892B09F4F2
:1014B00046CA8091A8039091A903892B09F03FCADD
:1014C0008091AA039091AB03892B59F038CA8230DE
:1014D00009F035CA8091A8039091A903892B09F4DA
:1014E0002ECAC60166E170E00E9484318A5B9C4F7F
:1014F000FC01108A0E94AA2422CA0E3D1C45B9F4A0
:101500000E94372292CF0B35EDE51E0769F00C35AE
:101510001D4569F480917D0182FB882780F991E067
:10152000892703C081E001C080E00E94F822F70112
:10153000868197810097B9F4F7018281008111813A
:10154000882349F0C8010E94C91AD82E682FC80103
:101550000E94361B04C0C8010E94051BD82EB8018A
:101560008D2D0E94FE280E949220182F092FD7014E
:101570001296BC9012971596CC90C2943FE0C3226D
:1015800080911E028770B9F0BB20A9F0892F807F5F
:10159000803421F080E2810F883068F080917D01F5
:1015A00082FD09C082E00E94DB2280911E028770CA
:1015B000AA24A3948111A12C902E92942FE0922220
:1015C000892D90E08C30910508F027C2FC01E65C83
:1015D000FF4F0C949531902F9F70802F807FD92ED4
:1015E00019F0D29490EFD922BB20A9F0DD2009F4A4
:1015F000F4C180E2810F883010F0111104C08D2DEC
:101600000E94CE2205C080914303D82AD092430382
:101610000E944523E2C1812F0E94DC1BDD2009F4DA
:10162000FCC180E2810F883068F1112359F18D2DC2
:101630000E94C0222AC0902F9F70802F807FD92EB9
:10164000803219F0D29480EFD822112321F011308A
:1016500009F45CC067C080917D0182FF19C0BB2086
:1016600059F0DD2029F08D2D0E94CE220E944523C5
:1016700080E00E94061CD1C180E00E94DC1BDD20BE
:1016800009F4CBC18D2D0E94C7220E944523C5C1FC
:10169000BB2001F1CC20D1F0B1E0CB1206C080918B
:1016A00029028D290E94AC22B8C180913803823072
:1016B00068F0C8120BC00E94A12280911B02D812B0
:1016C000D0921B028D2D0E94D51BA7C180912902AB
:1016D0008D29F9CFCC2079F080913803E1E0CE124A
:1016E00010C0823008F499C180913C028D2109F428
:1016F00094C10E949B230E94A1228D2D0E94CE1B8B
:101700008CC18230C0F3C812F6CF87C180913E03EE
:10171000BB2021F08C1508F480C1D4CFC81608F086
:101720007CC1EBCFBB20E9F0CC2061F220E0D701F7
:101730004C9111965C91119712966C911297139699
:101740007C91139714968C910E94892A8091390379
:1017500081FD43C1F701858180FF3FC18F70858383
:10176000B1CFC11043C1C9CF802F869586958370B4
:1017700019F0813061F051C1BB2021F0812F902FF1
:10178000937002C080E090E00E9447244CC1BB20CF
:1017900021F0812F902F937002C080E090E00E9492
:1017A000A71A41C1802F8370A1F5B1103AC1412F12
:1017B000429546954770440F440F212F2F7030E01B
:1017C000C901042E01C0880F0A94EAF714FF08C06B
:1017D0002FE030E001C0220F4A95EAF7209501C0C2
:1017E00020E0302F369536953370323069F040F472
:1017F00040912A02313019F0822B842302C0842BBD
:10180000822B0E94841B0DC1282B80912A028227E3
:10181000F8CFBB2019F0802F817001C086958823F6
:1018200009F4FFC0412F429546954770440F440F7D
:10183000212F2F7030E0C901042E01C0880F0A94B7
:10184000EAF714FF08C02FE030E001C0220F4A95EC
:10185000EAF7209501C020E0302F36953695337099
:10186000323051F070F44091BE01313019F0822BCA
:10187000842308C0842B05C0282B8091BE018227B9
:1018800001C0822B0E94691BCCC0F02FFF70DF2E9D
:10189000BB2039F08F2F0E94791B812F0E94D51B0E
:1018A000C0C0812F0E94CE1B8D2D0E946D1BB9C020
:1018B000123F11F128F4103F41F0113FA9F189C006
:1018C000133F01F1143F61F184C080913E03BB20BE
:1018D00021F0C81608F0A1C003C08C1508F49DC003
:1018E000202F2F7181E090E001C0880F2A95EAF740
:1018F0009091BE0189270FC0802F8F71BB2009F402
:1019000070C087C0BB2051F081E0902F9F7101C053
:10191000880F9A95EAF70E94691B7FC080E0FBCF91
:1019200080917D0182FF06C0802F8F71BB2009F45A
:1019300070C057C0809138038230A0F180911B02A3
:10194000BB20E1F00E94C72280911E028770843084
:1019500039F40E94D422802F8F710E946D1B5CC0CD
:1019600080913803C81608F057C0202F2F71D22E4F
:10197000822F0E94791B63E08D2D0DC00E94CE2224
:1019800080913803C81650F00E94D4220E949B23F5
:1019900064E0802F8F710E9415233EC081E00E9479
:1019A000DB223AC0BB2059F0302F3F71D32E832F5A
:1019B0000E94791B63E08D2D0E9415232EC081E0CB
:1019C0000E94DB2241E04C1540F582E00E94DB22C0
:1019D00024C0BB2049F0CC2011F0812F4ACE802FAB
:1019E0008F710E94791B19C0CC2089F0193329F41A
:1019F00080913C0390913D0304C080913A03909103
:101A00003B030E94B327812F0E94DC1B06C0802F5E
:101A10008F710E946D1B01C0A12C88EF890D84304D
:101A200010F40E945D24812F902F0E94881B811149
:101A300005C0109272011092710125C0BB2019F0EF
:101A4000C110F7CF20C0C110F4CF20E0D7014C91D6
:101A500011965C91119712966C91129713967C9146
:101A6000139714968C910E94892A8091390383FFE1
:101A7000E0CF80917101909172010297D1F6812F90
:101A80000E94511CD6CFAA20A9F080911E0280FD91
:101A900011C0F70112828595859585950E94791B65
:101AA000C7010E945C0380911E02859585958595EE
:101AB0000E946D1B60E0C7010E94B22A2C960FB6EF
:101AC000F894DEBF0FBECDBFDF91CF911F910F9174
:101AD000FF90EF90DF90CF90BF90AF909F908F904E
:101AE0007F906F905F904F903F902F900895CF938D
:101AF000DF93CDB7DEB7E4970FB6F894DEBF0FBE25
:101B0000CDBF84B7877F84BF0FB6F894A895809126
:101B10006000886180936000109260000FBE90E0CA
:101B200080E80FB6F89480936100909361000FBE37
:101B30008DE59FE190936D0180936C010E94032FCE
:101B40000E94AA2E0E94192E0E9486281092E2005E
:101B50001092E1008091E00081608093E00080912C
:101B6000D8008F778093D80019BC80916300816082
:101B70008093630010927301809163008E7F809345
:101B8000630081E0809373011092E2001092E10003
:101B90008091D8008F778093D8008091D80080689A
:101BA0008093D8008091D8008F7D8093D80084E006
:101BB00089BD86E089BD09B400FEFDCF1092BD014C
:101BC0001092B4011092B3011092B20142E060E0B1
:101BD00080E00E94EA158091E1008E7F8093E10011
:101BE0008091E20081608093E2008091E200886051
:101BF0008093E2008091E0008E7F8093E0008091EE
:101C0000E20084608093E20078948091BD01882393
:101C1000A1F01091E9001F709091EC00892F817064
:101C200090FD80E8182B1092E9008091E80083FD78
:101C30000E941F161F701093E90082E084BD93E09C
:101C400095BD9AEF97BD80936E000E94FF30811181
:101C500002C00E94F0300CE111E0F0E2EF2EF1E062
:101C6000FF2ED8018D918D018F3F11F00E94A21F90
:101C7000E016F106B1F700E211E0ECE2EE2EE1E051
:101C8000FE2EF80181918F018F3F11F00E94A21F5B
:101C9000E016F106B1F788E0E4E9F1E0DF01282F72
:101CA0001D922A95E9F7E4E7F1E0DF011D928A959C
:101CB000E9F780E090E00E943931893E9E4F21F49F
:101CC0000E94FF30811102C00E94372282E090E022
:101CD0000E94313180937E010E94262290937D01E3
:101CE00080937C010E94B91FEFEFF6E721E0E150FD
:101CF000F0402040E1F700C000000E94B91F809131
:101D0000940180FF08C06FEF7FEF80E090E00E94B9
:101D10005D310E94E61983E090E00E9431310E941B
:101D2000841B81E091E090939D0180939C017CE96C
:101D3000272E71E0372E8E010F5F1F4F8091BD015E
:101D4000853009F047C054E0E52E66E0F62E80911C
:101D5000BD01853009F03AC08091BD01843021F188
:101D60001092A00188E190E0A0E40FB6F894A89545
:101D7000809360000FBEA093600083B7817F846072
:101D800083BF83B7816083BF7894889583B78E7F44
:101D900083BF0FB6F894A895809160008861809306
:101DA0006000109260000FBE8091B301882309F497
:101DB000CECF0E94B91FE4E9F1E081919191892B86
:101DC00009F07CC52E163F06C1F7C1CF0E94B21B99
:101DD0000E945D240E94B91F81110E943F1AA4E94C
:101DE000B1E0EFE7F1E0E12CF12C7E2D2D913D915A
:101DF0008191919182279327009779F160E0CC241B
:101E0000C394D12CAC014C215D21452B09F16BA76A
:101E10007CA72C213D2181E0232B09F480E08DA7B4
:101E20000E944B1A8160782F9FA78EA74BA55CA5B7
:101E30006DA58FA50E94C02AF701EE0FFF1FE15884
:101E4000FE4F80819181C826D926D182C0821CC0D4
:101E50006F5FCC0CDD1C6C30A9F62FEFE21AF20A92
:101E600034E0E316F10409F68FEF88AB89AB1AAAC8
:101E70000E944B1A8160782F9CAB8BAB48A959A963
:101E80006AA98CA90E94C02A809118039091190315
:101E9000892B09F43EC040910D0350910E036091CF
:101EA0000F03709110032FB7F8948091A1019091C6
:101EB000A201A091A301B091A4012FBF841B950B97
:101EC000A60BB70B4091090350910A0360910B03D5
:101ED00070910C0384179507A607B707D0F080917F
:101EE0001803909119030E948E2D109219031092DD
:101EF000180310920D0310920E0310920F0310920C
:101F000010031092090310920A0310920B0310920F
:101F10000C0380910D0190910E01019659F1912CC5
:101F200020C0C70166E170E00E9484318A5B9C4F4B
:101F3000DC015296AD90BC905397A114B10421F4EA
:101F4000A0903403B0903503C70166E170E00E94B1
:101F500084318A5B9C4F6C01FC01868181110FC02A
:101F60009394E92CF12C80910D0190910E018E1526
:101F70009F05BCF680911301811115C03CC0858579
:101F800096850E94301AA816B90650F7C6010E941D
:101F9000AA24C70166E170E00E948431845B9C4FF3
:101FA0000E946924DDCF8091070390910803009778
:101FB00011F10E94301A20916102309162022817BB
:101FC0003907C8F49091050380910603981759F0DA
:101FD0000E94CD26109262021092610210920803B4
:101FE0001092070308C00E945E2610920803109208
:101FF00007030E94AE268091370380FF1EC08091A8
:10200000120182FF1AC00E944B1A20915D0230918A
:102010005E02AC01421B530B209110013091110163
:102020004217530750F027E831E041E0BC018091AE
:102030005F02909160020E94BE270E945D249091F1
:102040008F01891380938F018091BD01843009F045
:1020500075CE83E08093E9008091E80082FF6ECE28
:102060008091E80085FF24C00E94071581111EC0E1
:1020700080E2C82ED12C9E012F5F3F4F790109C00D
:102080008091F100D7018D937D01B1E0CB1AD10889
:1020900069F08091E80085FDF3CF8091E8008B77AF
:1020A0008093E8000E940715882399F391E001C00E
:1020B00090E08091E8008B778093E800992309F401
:1020C0003DCEE0903A02F0903B028981E114F104A8
:1020D00061F08E3F09F0EEC38A81833008F4C4C1F9
:1020E0008550833008F0E6C3BFC18B3009F4A6C128
:1020F00010F5853009F478C0B0F48230C1F130F4C5
:10210000813009F0D5C31A8289E01CC3833009F4F9
:102110005EC0843009F0CCC34C816B818A810E94FF
:10212000E42D9D83E8C3873009F4C2C308F0C0C31F
:102130000E941A29BFC3803109F4C1C060F48D30F8
:1021400009F45FC008F45BC08E3009F45EC08F30C4
:1021500009F486C0ADC3823109F4B7C008F4B2C037
:10216000833109F4DCC08E3F09F47EC1A1C38A81AA
:10217000823009F4B9C3833051F0813009F098C33B
:102180000E943F1A9B838C837D836E8393C38091CF
:10219000360290913702892B09F48CC38091940107
:1021A000909195019B838C838091960190919701EA
:1021B0009D838E8380919801909199019F83888758
:1021C00080919A0190919B0199878A8773C38A8134
:1021D000823009F06DC36B817C818D819E810E946C
:1021E0009B310E94CE3066C32D813E81322723274A
:1021F00032274C816B818A810E94A72D5BC380E1CD
:1022000062C081E08A838DE69DC2EA80FB80FE2465
:10221000EF24FE24AC80B12CEDE1AE16B10408F041
:1022200049C36801C7018D569D4F9601201B310B94
:102230002A153B0508F03EC3FDE6EF16F1E0FF0668
:1022400030F40E943131D60114968C9302C0F6010D
:102250001482FFEFEF1AFF0A2FEFC21AD20AE2CF61
:102260008091360290913702892B09F423C3EA80CA
:10227000FB80FE24EF24FE24CC80D12C3DE1C3164C
:10228000D10408F017C35801C7018D569D4F950121
:10229000201B310B2C153D0508F00CC34DE6E41650
:1022A00041E0F40628F4D50114966C910E943F3168
:1022B000BFEFEB1AFB0AEFEFAE1ABE0AE5CF0E94A2
:1022C000EE28F8C284E08A83F5C2EA80FB80FE240F
:1022D000EF24FE24AC80B12CFDE1AF16B10408F070
:1022E000E9C26801C70187969601201B310B2A15A8
:1022F0003B0508F0DFC220E8E21621E0F20630F4E8
:102300000E943131D60114968C9302C0F6011482DA
:10231000FFEFEF1AFF0A2FEFC21AD20AE3CFEA80CB
:10232000FB80FE24EF24FE24AC80B12C3DE1A316FB
:10233000B10408F0BFC240E8E41641E0F40608F03A
:10234000B9C280E891E08E199F098A159B0508F4AF
:10235000B1C2370187E2680E711C809136029091FC
:102360003702892B11F0680160C0E0FE0FC0C70181
:1023700086960E94313190E0982F88272D81822BFC
:1023800081159C4531F48FEF8D8303C0C12CD12C76
:1023900003C0CC24C394D12CC5018E0D9F1D4501D3
:1023A00080FF1BC0B1E08B1A9108E5E04E2E512C46
:1023B0004C0E5D1E480C591CC3018A0D9B1D0E94CA
:1023C0003131F201208130E0322F2227282B2115D4
:1023D0003C4519F48FEFD2018C93F801EC0DFD1DF3
:1023E0002FEFCF01801B910B8815990508F0BBCF0B
:1023F000848190E0982F88273581832B81159C4517
:1024000011F4248325833296ECCFE0E8EE16E1E068
:10241000FE0628F4D60114966C910E943F31BFEF5E
:10242000EB1AFB0AEFEFCE1ADE0AC7018796960178
:10243000201B310B2A153B0540F33CC2809136022C
:1024400090913702892B09F435C2C8010E946615A4
:10245000FFEF21EE34E0F15020403040E1F700C0C2
:1024600000000E94E61926C2EA818E2F90E08E308D
:10247000910508F01FC2FC01EA5BFF4F0C949531F7
:1024800088E0E4E1F1E0DE01919601900D928A95F9
:10249000E1F780E2D8011D928A95E9F785E089830A
:1024A00088E0FE01B196DE011596DCC188EA8983D9
:1024B00081E08A831B821C82FDC18C8190E0982F71
:1024C00088272B81820F911D092E000CAA0BBB0BB4
:1024D00065E0880F991FAA1FBB1F6A95D1F7AC0151
:1024E000BD01405E5F4F6F4F7F4F481759076A0726
:1024F0007B0708F4DFC1883AE1E09E07A105B1053A
:1025000008F0D8C1493AF1E05F076105710520F094
:1025100048EA51E060E070E0481B590BBC0166538B
:102520007F4FC8010E941831C5C140E250E06FEFF3
:1025300070E0C8010E94B831809136028983EA8236
:102540001B821C8282E08D838CE0D5C181E090E00B
:1025500090933B0280933A0282E390E09093930140
:10256000809392010E944B1A909391018093900165
:10257000A1C1EF28A9F1F0909901F4FAFF24F0F835
:1025800080919401F82280919001909191010E9494
:10259000301A85369105F0F0FF20E1F00E944B1AC9
:1025A0009093910180939001809192019091930179
:1025B00001979093930180939201892B89F4109253
:1025C0003B0210923A0281E090E0909337028093B0
:1025D000360206C082E390E09093930180939201CB
:1025E00080913602898380913A028A838091920198
:1025F000A9C010923702109236025CC1EB80FC80B9
:1026000040E250E06FEF70E0C8010E94B8312BE368
:1026100035E0A3E9B5E080E090E0AC014E5F5F4FAC
:102620004132510508F046C1F90165917491E616F1
:10263000F70630F4F801E80FF91F71836083CA01CF
:10264000285F3F4FA217B30741F734C14B815C812C
:1026500023E935E08BE395E0FC0165917491641703
:10266000750729F0089628173907B1F721C1009797
:1026700009F41EC19C012E5F3F4FF9014591549111
:102680004032510508F014C1F90145915491FC0103
:10269000349665917491CE0102960E94AF3138C094
:1026A0002B813C8183E995E04BE3E42E45E0F42E59
:1026B000F701459154912417350739F048E0E40EAD
:1026C000F11C8E159F05A1F7F3C0E114F10409F484
:1026D000EFC0C7010296FC01259134912D313105DF
:1026E00008F0E6C0FC0145915491F70134968591BC
:1026F0009491BE016B5F7F4F0E94AF310E94AD2865
:10270000F701369685919491009711F0FC01099597
:1027100080E0CFC00E94CA28CDC0EB818E2F90E010
:102720008730910508F0C6C0FC01EC5AFF4F0C94AD
:10273000953180E2D8011D928A95E9F784E089837A
:1027400088E08A838B83B6C08C819AE0F92E6E0173
:10275000B1E2CB0ED11CF6012F2D11922A95E9F78B
:10276000B6010E94C6298983F601DE011296019006
:102770000D92FA94E1F79EC08C819AE0FE013596A5
:10278000DE01919601900D929A95E1F7843080F4E4
:1027900090E06AE070E00E948431BC0165537E4F96
:1027A0004AE050E0CE0181960E94633180E001C092
:1027B0008FEF89830E94032F7DC08C81FE01B1962B
:1027C0009AE0DF011D929A95E9F7883008F043C03E
:1027D00090E06AE070E00E948431BC016D507E4F51
:1027E00033C08C819AE0FE013596DE01919601900E
:1027F0000D929A95E1F7883080F490E06AE070E0FD
:102800000E948431BC016D507E4F4AE050E0CE0101
:1028100081960E94633180E001C08FEF89830E941E
:10282000AA2E48C08C81FE01B1969AE0DF011D926C
:102830009A95E9F7883078F490E06AE070E00E94B9
:102840008431BC016D5B7D4F4AE050E0CF010E94B6
:10285000213180E001C08FEF89838AE0FE01B196CB
:10286000DE01129601900D928A95E1F723C08C81CA
:102870009AE0FE013596DE01919601900D929A95AF
:10288000E1F7883080F490E06AE070E00E948431E3
:10289000BC016D5B7D4F4AE050E0CE0181960E9405
:1028A000633180E001C08FEF89830E94192E02C03E
:1028B0008FEF8983C8010E94661540CAE9BCF9BC44
:1028C00009B400FEFDCF8091D8008F7D8093D800A1
:1028D0008091E00082608093E0008091E00081FDC3
:1028E000FCCF0E94B21B33CA86E290E00E943131D5
:1028F0001B821C821D828E83DDCF8091B50187FFF4
:1029000011C08091E80082FD05C08091BD01811158
:10291000F8CF11C08091E8008B770BC08091BD018A
:10292000882349F08091E80080FFF8CF8091E8008B
:102930008E778093E80008952091BB013091BC010F
:102940002617370748F06115710539F42091E80022
:102950002E772093E80001C0B901FC0120E0611549
:10296000710561F18091BD018823D9F18530D9F1DC
:102970008091E80083FD39C08091E80082FD2BC082
:102980008091E80080FFEBCF8091F20090E061152C
:10299000710551F08830910538F421912093F100B0
:1029A000615071090196F3CF21E0089709F020E00A
:1029B0008091E8008E778093E800D1CF2111D2CFAB
:1029C0000AC08091BD01882361F0853061F080915B
:1029D000E80083FD0AC08091E80082FFF2CF80E02A
:1029E000089582E0089583E0089581E008950895B0
:1029F00008958091A90108958091BE01982F967045
:102A0000963011F4886001C0877F0C94691B209177
:102A1000E4003091E50095E64091EC00842F817050
:102A200040FF23C08091E80080FD1DC08091BD0162
:102A3000882399F0853099F08091EB0085FD11C0D5
:102A40004091E4005091E5002417350729F3915097
:102A500011F09A01E1CF84E0089582E0089583E0C7
:102A6000089581E0089580E008954091E80042FFD4
:102A7000DDCF0895EF92FF920F931F93CF93DF93D3
:102A80007C018B010E940715811119C0E701011516
:102A90001105A1F08091E80085FD0AC08091E80051
:102AA0008E778093E8000E940715882381F307C082
:102AB00089918093F10001501109E9CF80E0DF9105
:102AC000CF911F910F91FF90EF900895CF93209198
:102AD000BD012430F9F4C091E900CF703091EC00D1
:102AE000232F217030FD20E8C22B22E02093E90043
:102AF0002091E80020FF0BC040E050E060E270E071
:102B00000E943A158091E8008E778093E800CF709C
:102B1000C093E900CF9108958093A5017093A70118
:102B20006093A6018091BD018430F9F48093E9009F
:102B30008FEF9091E800815095FD06C095ED9A9534
:102B4000F1F700008111F5CF8091E80085FF0DC0FD
:102B500040E050E063E070E085EA91E00E943A15C1
:102B60008091E8008E778093E8000895BC0184E0AE
:102B70000C948C15BC0183E00C948C15CF93DF93DF
:102B800021E02093E9002FEF3091E800215035FD3E
:102B900006C035ED3A95F1F700002111F5CF2091EF
:102BA000E80025FF14C0EC0140E050E068E070E070
:102BB0000E943A158091E8008E778093E80088E0C3
:102BC000FE01AAEAB1E001900D928A95E1F7DF914A
:102BD000CF910895982F953068F59093E900981754
:102BE00039F07091EC002091ED005091F00003C09D
:102BF000242F762F50E021FD02C09F5FECCF309153
:102C0000EB003E7F3093EB003091ED003D7F309341
:102C1000ED003091EB0031603093EB007093EC00ED
:102C20002093ED005093F0002091EE0027FDE5CFBA
:102C300080E008958F708093E90081E008951F93EC
:102C4000CF93DF93CDB7DEB7AA970FB6F894DEBF68
:102C50000FBECDBFE5EBF1E08DEB91E02091F100EF
:102C600021938E179F07D1F78091B601833009F425
:102C70005FC030F4813071F0823009F499C0B0C087
:102C80008A3009F485C08B3009F46AC0893009F0B4
:102C9000A7C020C08091B501813A09F0A1C0809100
:102CA000E800877F8093E8008091B9019091BA0194
:102CB000892B21F468E08AEA91E003C060E080E0BB
:102CC00090E070E00E949C148091E8008B778093E4
:102CD000E80086C08091B501813209F081C0809101
:102CE000B9019091BA01009719F0029709F078C0E4
:102CF0008091E800877F8093E8008091E80082FD62
:102D000005C08091BD018111F8CF6AC08091F200A9
:102D1000823031F48091F100813011F0863021F45D
:102D20008091F1008093A9018091E8008B7754C0D5
:102D30008091B501813A09F053C08091B901909119
:102D4000BA01892B09F04CC08091E800877F8093FD
:102D5000E8008091E80080FFFCCF80910F0137C030
:102D60008091B5018132E1F58091B9019091BA016C
:102D7000892BB1F58091E800877F8093E8000E945D
:102D80007D148091B70180930F010E94B21B28C06F
:102D90008091B501813221F58091E800877F809391
:102DA000E8000E947D148091B8018093A80118C0AA
:102DB0008091B501813AA1F48091E800877F8093EA
:102DC000E8008091E80080FFFCCF8091A80180930B
:102DD000F1008091E8008E778093E8000E947D14D6
:102DE0008091E80083FFE7C18091B5019091B60121
:102DF000492F50E04A30510508F0DDC1FA01E55A8B
:102E0000FF4F0C949531803821F0823809F0D3C1FE
:102E100008C08091B2019091B301992389F082603A
:102E20000FC08091B9018F70853008F0C4C18093C4
:102E3000E9008091EB0085FB882780F91092E9007A
:102E40009091E800977F9093E8008093F1001092B2
:102E5000F10078C1282F2D7F09F0ADC1882319F02A
:102E6000823061F0A8C18091B701813009F0A3C11F
:102E7000933009F080E08093B3012EC08091B701B8
:102E800081112AC08091B9018F702FEF280F243053
:102E900008F091C18093E9002091EB0020FF1CC055
:102EA000933021F48091EB00806214C09091EB008C
:102EB00090619093EB0021E030E0A90102C0440F43
:102EC000551F8A95E2F74093EA001092EA0080913C
:102ED000EB0088608093EB001092E9008091E8009D
:102EE000877F8093E8000E947D1465C1811163C1D2
:102EF0001091B7011F778091E3008078812B809338
:102F0000E3008091E800877F8093E8000E947D14B1
:102F10008091E80080FFFCCF8091E300806880937F
:102F2000E300111102C082E001C083E08093BD0183
:102F300042C18058823008F03EC12091B7013091E3
:102F4000B8012C3D53E0350779F583E08A838AE2A6
:102F500089834FB7F894DE01139620E03EE051E2FA
:102F6000E32FF0E050935700E49120FF03C0E29577
:102F7000EF703F5FEF708E2F90E0EA3010F0C79651
:102F800001C0C0968D939D932F5F243149F74FBFA9
:102F90008091E800877F8093E8006AE270E0CE01CC
:102FA00001960E949C14BCC08091B9019091BA0115
:102FB000432F552743305105B1F068F44130510596
:102FC00009F408C14230510509F0F5C08BE590E0E5
:102FD000E6E0F3E057C04132510589F14232510534
:102FE00009F43CC0E8C0C901992781309105B9F0C6
:102FF00070F082309105D9F0039709F0DCC0E3E767
:10300000F3E0E4918E2F90E0E3E7F3E038C0E7EBE4
:10301000F3E0E4918E2F90E0E7EBF3E030C0EDE9D0
:10302000F3E0E4918E2F90E0EDE9F3E028C0E1E9D0
:10303000F3E0E4918E2F90E0E1E9F3E020C08330EB
:10304000910508F0B8C0880F991FFC01EB5CFE4F9A
:103050000190F081E02D89E090E014C0833091056B
:1030600008F0A9C0FC01EE0FFF1FE15DFE4F0190CB
:10307000F081E02DDC01A45DBE4F8C9190E00097C3
:1030800009F499C02091E800277F2093E80020915F
:10309000BB013091BC012817390708F4C90140E091
:1030A000009769F12091BD012223D1F12530C1F1B2
:1030B0002091E80023FD34C02091E80022FD2CC0BF
:1030C0002091E80020FFECCF2091F20030E0009743
:1030D00059F02830310540F444914093F100319685
:1030E00001972F5F3F4FF3CF41E02830310509F0C2
:1030F00040E02091E8002E772093E800D1CF4111E5
:10310000D1CF0AC08091BD01882351F0853041F0B4
:103110008091E80083FD04C08091E80082FFF2CF37
:103120008091E8008B778093E80045C0803809F0F3
:1031300042C08091E800877F8093E8008091B401CD
:103140008093F1008091E8008E77CBCE811133C05F
:103150008091B7019091B8019927029764F5809109
:10316000E800877F8093E8001091B7011093B401C5
:103170000E947D14111106C08091E30087FD02C0FA
:1031800081E001C084E08093BD0142E061EC81E018
:103190000E94EA1542E261EC84E00E94EA1542E2F4
:1031A00061EC82E00E94EA1542E260EC83E00E945A
:1031B000EA158091BD018091E80083FF10C08091E5
:1031C000E800877F8093E8008091EB008062809325
:1031D000EB0005C082E190E0E1E6F3E053CFAA9670
:1031E0000FB6F894DEBF0FBECDBFDF91CF911F9118
:1031F00008951F920F920FB60F9211242F933F93B1
:103200004F935F936F937F938F939F93AF93BF93EE
:10321000CF93DF93EF93FF93C091E900CF7080913C
:10322000EC00D82FD17080FDD0E81092E900809199
:10323000F000877F8093F00078940E941F16109210
:10324000E9008091F00088608093F000CD2BCF7072
:10325000C093E900FF91EF91DF91CF91BF91AF91C2
:103260009F918F917F916F915F914F913F912F919E
:103270000F900FBE0F901F9018951F920F920FB6D0
:103280000F9211242F933F934F935F936F937F93EC
:103290008F939F93AF93BF93EF93FF938091E10040
:1032A00082FF09C08091E20082FF05C08091E100A9
:1032B0008B7F8093E1008091E10080FF17C08091B7
:1032C000E20080FF13C08091E2008E7F8093E200D5
:1032D0008091E20080618093E2008091D80080625A
:1032E0008093D80019BC85E08093BD018091E100F6
:1032F00084FF30C08091E20084FF2CC084E089BD4F
:1033000086E089BD09B400FEFDCF8091D8008F7D95
:103310008093D8008091E1008F7E8093E1008091BE
:10332000E2008F7E8093E2008091E20081608093D2
:10333000E2008091B401882311F084E007C08091FD
:10334000E30087FD02C081E001C083E08093BD01FE
:103350008091BD018091E10083FF27C08091E20050
:1033600083FF23C08091E100877F8093E10082E0AA
:103370008093BD011092B4018091E1008E7F809313
:10338000E1008091E2008E7F8093E2008091E20074
:1033900080618093E20042E060E080E00E94EA15F4
:1033A0008091F00088608093F000FF91EF91BF91D1
:1033B000AF919F918F917F916F915F914F913F91CD
:1033C0002F910F900FBE0F901F90189581E0809362
:1033D000E00080E28093D8001092C9008FE19EE463
:1033E0000197F1F700C0000087E090EBDC018093CB
:1033F000890490938A04A0938B04B0938C049CE07E
:1034000088E10FB6F894A895809360000FBE909362
:103410006000FFCF78941F920F920FB60F92112485
:103420008F939F93AF93BF938091A1019091A2013D
:10343000A091A301B091A4010196A11DB11D80939B
:10344000A1019093A201A093A301B093A401BF9105
:10345000AF919F918F910F900FBE0F901F90189575
:103460009C014FB7F8948091A1019091A201A09185
:10347000A301B091A4014FBF821B930B08952FB7F6
:10348000F8946091A1017091A2018091A3019091A3
:10349000A4012FBF08952FB7F8948091A1019091B6
:1034A000A201A091A301B091A4012FBF08951F9282
:1034B0000F920FB60F9211248F939F93AF93BF93E8
:1034C0008091A001811113C08091A1019091A2016E
:1034D000A091A301B091A4014196A11DB11D8093BB
:1034E000A1019093A201A093A301B093A401BF9165
:1034F000AF919F918F910F900FBE0F901F901895D5
:103500009C012A5F3F4FFC014281461301C0128299
:10351000019682179307B9F708959C01FC01329632
:103520009FEF80E04191461789F09F3F19F44111C8
:1035300001C0982F8F5F8630A9F79F3F39F0F901BE
:10354000E90FF11D97FDFA95628308950895209182
:103550009E0130919F012817390771F090939F01C8
:1035600080939E01E0919C01F0919D01309721F0A4
:103570000084F185E02D0994089580E090E00E9498
:10358000472480E090E00E94A71A109243030C9415
:103590004523CF92DF92FF920F931F93CF93DF9338
:1035A0006C010091BE0180912A02082BC7E0D0E097
:1035B00010E0C8010C2E02C0959587950A94E2F799
:1035C00080FD04C02197A8F7F12C09C0FC2EB6019C
:1035D0008C2F0E94FE280E949220019799F38F2D34
:1035E000DF91CF911F910F91FF90DF90CF900895C1
:1035F000CF93DF93EC010E94C91ABE010E94FE28FE
:103600000E949220DF91CF910895282F892F9E3F0D
:1036100059F16CE00E947B31820FA82FA77086952C
:103620008695869590E063E070E00E948431FC010D
:10363000E154FE4F40E050E090E0219130E00A2E4E
:1036400002C0369527950A94E2F721703327042E9D
:1036500001C0220F0A94EAF7922B4F5F5F4F43306D
:10366000510559F7892F089580E00895282F892F53
:10367000362F9E3F69F16CE00E947B31820F982FBC
:103680009770A1E001C0AA0F9A95EAF786958695F2
:10369000869590E063E070E00E948431FC01E15483
:1036A000FE4F40E050E0632F70E090819B01042EBC
:1036B00002C0369527950A94E2F7217021952927B3
:1036C0002A23292721934F5F5F4F4330510569F724
:1036D00008958093BE010C94BD1A21E030E001C032
:1036E000220F8A95EAF720958091BE0182230C94DF
:1036F000691B21E030E001C0220F8A95EAF7809132
:10370000BE01822B0C94691B80932A020C94BD1A73
:1037100092959F70963079F010F4925001C09A50B3
:10372000923068F4803F69F018F4883E40F409C094
:10373000843F29F406C0883E20F0813F11F080E0EC
:10374000089581E00895FC0186819781009719F022
:103750000E94922004C0808191810E94F81A0E94E8
:10376000881B089510923C0286E0E0E3F2E0DF015E
:103770001D928A95E9F70C94BD1A882321F00E94C6
:10378000C0220C9445230895882339F09091430377
:10379000892B809343030C9445230895882321F0BB
:1037A0000E94C7220C9445230895882321F00E948B
:1037B000CE220C9445230895882339F1682F8CEF8D
:1037C000860F813A28F48EE292E00E94801A0CC0A3
:1037D00080E2860F883050F4677081E001C0880F66
:1037E0006A95EAF70E94C7220C9445238BE5860F61
:1037F000833020F480E090E00C944724685A6731CD
:1038000020F480E090E00C94A71A0895CF938823C9
:1038100009F445C0C82F8CEF8C0F813A78F4E0E3AF
:10382000F2E08191C81799F182E0E633F807C9F711
:103830006C2F8EE292E00E948D1A0CC080E28C0FF9
:10384000883058F4C77081E001C0880FCA95EAF744
:103850000E94CE22CF910C944523EBE5EC0FE33090
:1038600040F4F0E0E55CFE4F808190E0CF910C9455
:103870004724C85AC73198F4EC2FF0E0EE0FFF1F31
:10388000E25CFE4F80819181CF910C94A71A6C2F3E
:103890008EE292E00E94801A0E944523C9CFCF9108
:1038A00008951F93CF93DF93182F893329F4C09184
:1038B0003C03D0913D0304C0C0913A03D0913B0337
:1038C000812F0E94061C209741F08FE99FE001970D
:1038D000F1F700C000002197F6CF812FDF91CF9143
:1038E0001F910C94DC1B2F923F924F925F926F922C
:1038F0007F928F929F92AF92BF92CF92DF92EF9280
:10390000FF920F931F93CF93DF93CDB7DEB76597E9
:103910000FB6F894DEBF0FBECDBF8C0185E0F80175
:10392000DE01519601900D928A95E1F7D8014C90F5
:1039300011965C9011971296EC9012971396CD9079
:10394000DC90149760E081ED91E00E94B22A81ED55
:10395000A82E81E0B82E8090D4019090D501A401CA
:103960006091D2018091D1010E942426F82E81110C
:10397000E5C13090D301F601E819F9094F0160E083
:10398000332009F469C1C5010E94B22A6090340352
:10399000709035032090D6018614970408F014C166
:1039A0004091D4015091D501B090D101A090D201A5
:1039B000822D807F6A2D09F097C08B2D0E942426CE
:1039C000811124C0D80111968C9111978A111EC0C3
:1039D0008C918B111BC02091D7013091D801169684
:1039E0008D919C9117972817390781F4E1100EC02B
:1039F000822D8F7080618093D60181ED91E00E94CD
:103A00005C038091D601F8018583B4C1F4EF6F1691
:103A1000F1E07F0620F48091390380FF21C0A601E8
:103A2000652D842D0E942426811103C081E08E25FE
:103A300002C080E090E080FF13C04E2D652D842DE4
:103A40000E94A123882361F081ED91E00E945C0334
:103A5000E1EDF1E088E0DF011D928A95E9F78AC186
:103A6000A601652D842D0E942426811103C081E0CA
:103A70008E2502C080E090E0B82FB170CB2E80FF81
:103A80002AC04E2D652D842D0E94A123D82E811190
:103A900022C0498A5A8A89899A890E94F81A292F4C
:103AA00022952F70223018F0243078F405C09F70D2
:103AB00049F0811107C00DC09F7021F0F801958178
:103AC000907F39F0805E883020F0C8010E945C034E
:103AD000DC2CFD2C4FC1EE2009F44BC18091D601A6
:103AE00081608093D60146C18B2D0E9424268111CE
:103AF00024C0D80111968C9111978A111EC08C9107
:103B00008B111BC02091D7013091D80116968D9151
:103B10009C9117972817390781F4E1100EC015966C
:103B20002C92C8010E945C0388E0F801A1EDB1E08D
:103B300001900D928A95E1F76FC0C8010E94A31B06
:103B40008823E1F1EE20D1F12091D601822F8295D8
:103B50008F7090E00297A4F08091D1019091D201F2
:103B60009A8789871B86DD86CC862E878091D70130
:103B70009091D801988B8F87CE0109960E945C03A3
:103B800088E0F801A1EDB1E001900D928A95E1F78E
:103B90000E94CB2316C0F090D1019090D2014091A9
:103BA000D4015091D501692D8F2D0E9424268823A0
:103BB00099F0C8010E94A31B811130C0C8010E9466
:103BC0005C03FF24F394D6C0822D807F21F781ED22
:103BD00091E00E945C03ACC0D80111968C911197C2
:103BE0008911E7CF8C918F11E4CF2091D7013091CB
:103BF000D80116968D919C91179728173907C9F609
:103C0000E110D7CF15962C92C8010E945C0388E082
:103C1000F50111928A95E9F7F32CACC0EE2071F210
:103C20002091D601822F82958F7090E002970CF43C
:103C3000A7CF8091D1019091D2019A8389831B8271
:103C4000DD82CC822E838091D7019091D801988714
:103C50008F83CE01019692CF81ED91E00E94B22A2E
:103C600080913403909135038816990608F060C05E
:103C7000FE2CEE2009F4A2CFE090D101D090D20129
:103C80004091D4015091D5016D2D8E2D0E94242696
:103C9000811140C0D80111968C9111978D113AC0B5
:103CA0008C918E1137C02091D7013091D801169692
:103CB0008D919C9117972817390761F580913903E9
:103CC00082FD1FC08091D60180FD1BC082958F7040
:103CD000482F50E041155105A1F02091D6011596CD
:103CE0002C9315974F30510549F08F5F982F92957F
:103CF000907F822F8F70892B15968C93C8010E941C
:103D00005C0388E0F801A1EDB1E001900D928A9585
:103D1000E1F730C0C8010E94A31B811131CF80910F
:103D2000D60181608093D601C8010E945C0322C045
:103D300088E0F50111928A95E9F71CC0EE2009F49C
:103D40003DCFC8010E94A31BF82E882309F436CF6B
:103D500088E0F801A1EDB1E001900D928A95E1F7BC
:103D60008091D1019091D2010E94F81A0E94CB2338
:103D700001C0F12C8F2D65960FB6F894DEBF0FBEF3
:103D8000CDBFDF91CF911F910F91FF90EF90DF900A
:103D9000CF90BF90AF909F908F907F906F905F90EB
:103DA0004F903F902F900895EF92FF920F931F93A3
:103DB000CF93DF93CDB7DEB760970FB6F894DEBF31
:103DC0000FBECDBF29873A874B875C876D877E877B
:103DD0008F87988BCE0109960E94731C81114CC06D
:103DE00088E0FE013996DE01119601900D928A95C8
:103DF000E1F7E984FA840C851D85A8016F2D8E2DCD
:103E00000E942426811138C0A091D901B0E0CD01D3
:103E100001968770992720911A0230E08217930744
:103E200091F1E982FA821D830C8333E0AA0FBB1F54
:103E30003A95E1F7A652BE4F98E0FE013196019007
:103E40000D929A95E1F78093D9010E94C12314C085
:103E500090E023E0880F991F2A95E1F786529E4F44
:103E60000E94731C8823E1F080911A0290E0019671
:103E70008770992780931A0280911A029091D90134
:103E80008913E6CF0DC00E94B21B1092D901109287
:103E90001A02E1EDF1E088E0DF011D928A95E9F771
:103EA00060960FB6F894DEBF0FBECDBFDF91CF9105
:103EB0001F910F91FF90EF90089580E008959091E9
:103EC0007C0192FF0DC0282F2871283019F4877FBC
:103ED000846006C0282F2471243011F48B7F886001
:103EE00093FF0DC0282F2871283119F4877E846133
:103EF00006C0282F2471243111F48B7E8861209113
:103F00007D0120FF0DC0382F3871383019F4877FBC
:103F1000816006C0382F3171313011F48E7F886096
:103F200021FF0DC0282F2871283119F4877E816167
:103F300006C0282F2171213111F48E7E886194FDF5
:103F4000877E0895F894E82FE295EF70F0E031A1B4
:103F5000282F2F7081E090E001C0880F2A95EAF7A2
:103F6000982F9095932391A392A1892B82A3789463
:103F700008958F929F92AF92BF92CF92DF92EF926D
:103F8000FF920F931F93CF93DF93CDB7DEB72897A0
:103F90000FB6F894DEBF0FBECDBFAE014F5F5F4FCF
:103FA0007A0188E0FA0111928A95E9F70CE111E0B3
:103FB0006A01AA24A394B12CF80180818F3F09F4EF
:103FC00047C0F894E82FE295EF70F0E021A18F70E0
:103FD000A50102C0440F551F8A95E2F7CA01922F2E
:103FE000982B91A392A18095892382A3789400C0F5
:103FF000E0E2F1E021E030E0812C912C41914F3F53
:1040000089F0A42FA295AF70B0E090968C9190E0CB
:104010004F7002C0959587954A95E2F780FD02C0E2
:10402000C90102C080E090E0882A992A220F331F3C
:1040300051E0EC32F50711F7F80180818F3F11F064
:104040000E94A21FF0EAFA95F1F7F60191828082B0
:104050000F5F1F4FF2E0CF0ED11C41E0003214077A
:1040600009F0AACF48E050E0B70184E791E00E9450
:10407000A23111E0009709F410E0892B89F088E063
:10408000F701A4E7B1E001900D928A95E1F781E094
:1040900080932D020E944B1A90932C0280932B0246
:1040A00080912D02882351F180912B0290912C0256
:1040B0000E94301A059710F180917401909175015A
:1040C000909395018093940180917601909177016E
:1040D0009093970180939601809178019091790156
:1040E000909399018093980180917A0190917B013E
:1040F00090939B0180939A0110922D02812F289614
:104100000FB6F894DEBF0FBECDBFDF91CF911F91E8
:104110000F91FF90EF90DF90CF90BF90AF909F9066
:104120008F900895CF93DF938238910569F1B0F4B1
:104130008133910509F46FC048F48932910509F47F
:1041400065C08A32910509F46BC08AC08533910538
:1041500009F457C089339105B9F082C0833E9105B7
:1041600071F138F4803E9105B1F0823E910511F174
:1041700077C0863E9105B9F1873E9105C9F1843E2D
:10418000910509F06DC024C020917C0120FD53C031
:1041900021FD51C065C080917C0180FD46C08091A9
:1041A0007D0180FF48C080917C0184FD4AC183EE7F
:1041B00090E049C180917C0182FF3AC0F4CF8091A8
:1041C0007C0182FD35C080917D0180FD34C0EBCF44
:1041D00080917D0181FF35C080917C0184FD31C1DA
:1041E00087EE90E030C180917C0183FF27C0F4CF3F
:1041F00080917C0183FD22C080917D0181FD21C0E1
:10420000EBCF80917C0185FD1FC021C080917C0196
:1042100085FD1DC019C080917C0186FD1BC01DC09D
:1042200080917C0186FD19C015C089E390E00BC127
:1042300082EE90E008C180EE90E005C186EE90E04D
:1042400002C184EE90E0FFC089E290E0FCC085E30B
:1042500090E0F9C08AE290E0F6C081E390E0F3C01C
:10426000811532E5930708F06CC0811541E594078C
:1042700028F0982F8827816F906AE5C0883E9105C5
:1042800068F5803E910508F0DEC0883A9105B8F4E3
:10429000853A910548F0855AE82FF0E0E55CFE4F3D
:1042A000808190E09064CFC08130910509F4C6C050
:1042B00008F4C7C08430910508F4C3C0C4C08F3B64
:1042C000910508F0BEC0885AE82FF0E0EE0FFF1FFE
:1042D000E25CFE4F808191819464B5C0811520E538
:1042E000920708F19C01F4E036952795FA95E1F7DD
:1042F000922F9370482F437021E030E002C0220FCC
:10430000331F4A95E2F73C68392B8F70982F9695AA
:104310009695892F90E0A5E0880F991FAA95E1F75F
:10432000822B932B90C0811530E4930718F09F7077
:10433000906A89C09C013A9521153F4108F483C0D9
:1043400080C0EC01C11586E5D80708F044C0C1154E
:1043500025E5D20748F08C2F0E945F1F8F7190E0F7
:10436000982F882790626FC0C11534E5D30728F0D5
:104370009C2F8827846F906A66C0AE0143705527D2
:104380006C2F66956695C115D34590F421E030E019
:1043900002C0220F331F4A95E2F7862F90E075E0A6
:1043A000880F991F7A95E1F7822B932B9C684BC05D
:1043B00081E090E09C0102C0220F331F4A95E2F792
:1043C000862F90E065E0880F991F6A95E1F7822BB0
:1043D000932B9A6838C0C1152AE5D207F8F4C115A5
:1043E00039E5D30790F08C2F8F700E945F1F94E007
:1043F000D695C7959A95E1F7CF70D0E0DC2FCC2702
:10440000D0699E01282BC9011EC0C11548E5D407FB
:10441000C0F09C2F8827806F906A15C0CE019056FF
:104420008115904270F48D2F8F710E945F1F282F8D
:104430002F71CE0199279062922B05C081E090E008
:1044400002C080E090E0DF91CF910895CF9384E0A7
:1044500090E00E943131C82F82E290E00E94313119
:104460002C2F30E0A901582BCA01CF91089569EE95
:104470007EEF80E090E00E945D3160E082E090E0BD
:104480000E943F3160E083E090E00E943F31109253
:104490002A0260E084E090E00E943F3160E082E226
:1044A00090E00E943F3160E085E090E00E943F3163
:1044B00060E086E090E00E943F316FEF87E090E09F
:1044C0000E943F3140E050E0BA0188E090E00E9455
:1044D000513160E08DE090E00E943F3140E050E0DB
:1044E000BA0188E190E00E94513160E087E190E0FC
:1044F0000E943F3140E050E0BA018CE190E00E9420
:10450000513160E070E080E290E00E945D3140E077
:1045100050E0BA0188E190E00E94513180E00E94B1
:10452000D2300E94F03040E050E0BA018FE090E0DD
:104530000E94513140E050E0BA0183E190E00C94D8
:10454000513180912902882331F010922902109272
:104550002802109227020895CF9390917D0192FD39
:104560000DC090912902981749F0C82F0E944B1A4C
:104570009093280280932702C0932902CF91089537
:1045800080959091430389238093430308958095F8
:1045900090913C02892380933C02089590913C02C3
:1045A000892B80933C02089510921E0210921D02E6
:1045B00010921C02089520911E0280958223809300
:1045C0001E02982F977099F430E0482F082E000CA7
:1045D000550B2417350759F090917D0192FD07C0C6
:1045E0008595859585950E946D1B0C94D422089520
:1045F000CF93C0917D01C2FB992790F9981799F04C
:1046000080FBC2F9C0937D0160917C0184E090E061
:104610000E943F316C2F82E290E00E943F3182E0A5
:10462000CF910C94DB22CF91089590917D0192FD62
:1046300010C0982F990F990F990F692B60931E0244
:104640000E94791B0E944B1A90931D0280931C02BA
:1046500008950C94791B80911E0390911F03892B60
:1046600089F00E944B1A2091270230912802AC0158
:10467000421B530B81E020911E0330911F03421710
:10468000530708F480E08170089590913C02809176
:104690004303892B80932E0280912902882301F104
:1046A00080911E0390911F03892B29F00E942B23D8
:1046B00081110E94A12290912E0280912902892BC2
:1046C00080932E02E0E3F2E097E080E0915029F041
:1046D00021912223D9F38F5FF9CF81110E94A1226A
:1046E00080911503809590912E0289239091160355
:1046F000892B80932E0248E050E06FE172E08EE259
:1047000092E00E94A231892BA9F088E0EEE2F2E06B
:10471000AFE1B2E001900D928A95E1F7E0919C0142
:10472000F0919D01309731F00280F381E02D8EE20F
:1047300092E00994089580911B02811110921B024E
:10474000089520911A029091D9012917B1F030E013
:10475000F90153E0EE0FFF1F5A95E1F7E652FE4FC5
:104760005181561306C05081581303C0528154130F
:1047700006C02F5F3F4F2770E8CF80E0089581E0AB
:10478000089580911A029091D901891719F08F5FCD
:104790008770FBCF0895CF92DF92EF92FF920F9335
:1047A0001F93CF93DF938091D60182958F7009F08C
:1047B0005CC08091D301882309F457C0C0911A02CC
:1047C0008091D901C81709F450C0F090D101E09050
:1047D000D201C090D401D090D501A6016E2D8F2DAD
:1047E0000E942426D0E081113DC08E0183E0000F9D
:1047F000111F8A95E1F7F801E652FE4F81818E1173
:1048000031C080818F112EC0828181112BC0E38045
:10481000F480EC18FD0860E081ED91E00E94B22A7E
:104820008091340390913503E816F906D8F480910D
:10483000D6018F7080618093D601F801E152FE4F5E
:1048400080818F708061808381ED91E00E945C03A4
:10485000DF91CF911F910F91FF90EF90DF90CF905C
:104860000C94C1232196C770ABCFDF91CF911F91DC
:104870000F91FF90EF90DF90CF90089580911C03EF
:1048800090911D0390931101809310010895209140
:104890009E0330919F032817390771F090939F036F
:1048A00080939E03E0919C01F0919D01309721F04F
:1048B0000680F781E02D09940895E0919C01F09124
:1048C0009D01309721F00190F081E02D099480E066
:1048D00008950F931F93CF93DF93FC01228521113D
:1048E00034C0EC01038114811755C80166E170E002
:1048F0000E948431DC01AA5BBC4F1496ED91FC91BF
:104900001597845B9C4F309729F054966D917C915C
:1049100055970995C80166E170E00E9484318C01C9
:104920000A5B1C4FF80187810E94C722F80180852D
:104930000E94C0220E944523188219861B861E826F
:104940001D821092450310924403DF91CF911F9175
:104950000F910895CF93DF93FC012189211119C094
:10496000EC0181E0818B87810E94CE2290914303EC
:104970008885892B809343030E944523EA81FB812C
:10498000CE010696309729F06C897D89DF91CF9111
:104990000994DF91CF9108950F931F93CF93DF93E5
:1049A000C42FD22FFC0182818823C9F04093420397
:1049B0000E944B1A909341038093400380E28C0F36
:1049C000883008F05BC0C77081E001C0880FCA95CD
:1049D000EAF7DF91CF911F910F910C94D51B809135
:1049E0004203481334C080914003909141030E94D8
:1049F000301A20913403309135038217930738F52C
:104A000010E21D0FCD17B9F080E28C0F883040F412
:104A1000C77081E001C0880FCA95EAF70E94CE1BDB
:104A2000183028F581E09D2F977001C0880F9A9566
:104A3000EAF70E94D51B802F0E94511C1830F0F419
:104A4000D77081E001C0880FDA95EAF70AC080E2EA
:104A50008C0F883098F4C77081E001C0880FCA9528
:104A6000EAF7DF91CF911F910F910C94CE1B802F0D
:104A7000DF91CF911F910F910C94511CDF91CF9139
:104A80001F910F910895CF93DF93EC014091110393
:104A90005091120360911303709114032FB7F8948F
:104AA0008091A1019091A201A091A301B091A401D4
:104AB0002FBF841B950BA60BB70B843F9140A1051C
:104AC000B105A8F48091110390911203A0911303F2
:104AD000B091140380930D0390930E03A0930F03E2
:104AE000B093100384EF91E0A0E0B0E00EC00E940C
:104AF0003F1A60930D0370930E0380930F039093FE
:104B0000100382E390E0A0E0B0E08093090390936B
:104B10000A03A0930B03B0930C03D0931903C09323
:104B20001803DF91CF910895FF920F931F93CF93B6
:104B3000DF9300911A0310911B030115110509F46D
:104B40005CC0109219031092180310921503109272
:104B50001603D80116966D917C9117979B013A9593
:104B600021153F4108F4707EC62FD1E0611101C0CC
:104B7000D0E0F82ED8011996ED91FC911A97309754
:104B800039F01B966D917C911C9780E00995D82394
:104B9000DD2379F08CEF8C0F813A30F46C2F8EE2AC
:104BA00092E00E94801A05C00E9445238C2F0E942B
:104BB000DC1BE0911A03F0911B0340815181FF201F
:104BC00071F0808584FD0BC080911703882339F034
:104BD00091E09A0121503109253A3D4508F090E0D5
:104BE00090FF03C0CA010E9443250E9445231092F2
:104BF0001B0310921A0310921703C801DF91CF9183
:104C00001F910F91FF900895FC0184818623C1F4C8
:104C100092819923B9F08085692383FF04C081E0E4
:104C2000611111C00DC0892F8F7092959F70982BC4
:104C3000862F8F7062956F70682B81E0961719F040
:104C400080E0089581E00895452B41F06F3F41F4E5
:104C500091E08F3F09F090E0892F03C081E001C00F
:104C600080E081700895A0910503509106034A2FBA
:104C7000451719F1242F30E0F901EE0FFF1FE35023
:104C8000FD4F608171816817790791F467E070E0EA
:104C90000E9484318B539D4F51E0FC0154834A1391
:104CA0000CC02F5F3F4F23703327209305030895D7
:104CB0002F5F3F4F422F4370DBCF0895FF920F933A
:104CC0001F93CF93DF9380916402882309F440C03F
:104CD00000916302809164020817B0F5FF24F394F9
:104CE000F00EF092630210E0C8016CE070E00E94E8
:104CF0008431EC01CB59DD4F4B815C816981888126
:104D00000E94242681111EC08E819F81892B21F44F
:104D100088859985019651F4288139814A815B8182
:104D20006C817D818E819F810E94D41EC8016CE0C0
:104D300070E00E9484318B599D4FFC0114821382D4
:104D4000109243030F2DC6CF10926402109263029B
:104D5000DF91CF911F910F91FF9008951092620201
:104D600010926102E5ECF2E08581811102C01482AB
:104D70001682379682E0ED3FF807B1F7089510925A
:104D80000803109207031092130180910603809389
:104D900005030E94AE260C945E264F925F927F928E
:104DA0008F929F92AF92BF92CF92DF92EF92FF923B
:104DB0000F931F93CF93DF93C091050301E010E0A1
:104DC0008EEFA82E8824839480910603C81709F4D7
:104DD00085C04C2E512CF201EE0FFF1FE350FD4F0A
:104DE00020813181C90167E070E00E9484318B53DA
:104DF0009D4FEC018C8181116DC090906402A5E6FD
:104E0000B2E0E0E0F0E0B12CE91508F060C01A96DD
:104E1000ED90FC901B97C90167E070E00E9484311F
:104E20008B539D4FEC01C880D9804FEF5FEF712C01
:104E3000872D90E0BC01660F771F6C0D7D1DEB0187
:104E4000688179816115710531F0E616F70609F47C
:104E5000AC017394EDCF4F3FDFEF5D07A9F1B801CF
:104E600002C0660F771F4A95E2F7B62AE80102C032
:104E7000CC0FDD1F7A94E2F7CE0101974B2D50E065
:104E800084179507E9F4CF016CE070E00E9484314B
:104E9000FC01EB59FD4FC90167E070E00E948431CD
:104EA000DC01AB53BD4F12968D919C911397978364
:104EB0008683A082A1823187208715968C9207C0B5
:104EC00014961C921E92139731961C969DCFC90181
:104ED0000E943326E2012196C37076CF0E945E269F
:104EE000DF91CF911F910F91FF90EF90DF90CF90C6
:104EF000BF90AF909F908F907F905F904F900C9459
:104F0000AE2680911201877F8093120182E00E9479
:104F1000C0228091120184FF06C08F7E809312010F
:104F200082E00E94CE228091120185FF06C08F7D13
:104F30008093120180E20E94CE220C9445236623C6
:104F400029F0209143032260209343039C013056B3
:104F5000211540E2340720F0305E2115304108F47D
:104F600099270C948E2D009741F0EFE9FFE03197DF
:104F7000F1F700C000000197F6CF0895AF92BF92FD
:104F8000CF92DF92EF92FF920F931F93CF93DF9315
:104F90005C017B01C42E89018091120182FF8DC0CA
:104FA000C0915F02D0916002CA15DB0521F0A11407
:104FB000B10409F082C0809112018B7F80931201AD
:104FC00081FD11C080915D0290915E02A701481B96
:104FD000590B81E0209110013091110142175307C4
:104FE00018F480E001C081E08170D82E8091120118
:104FF000D0FA81F980931201FE01FF2784E0F69533
:10500000E7958A95E1F79E012F703327EE0FFF1F7A
:10501000E35CFD4F81E090E002C0880F991F2A9564
:10502000E2F7DD2029F020813181822B932B06C00D
:105030008095909520813181822393239183808371
:1050400080913C0281FF08C08091120180618093B1
:10505000120182E00E94C72280913C0285FF08C0B5
:105060008091120180628093120180E20E94C72227
:10507000A8016D2DCE010E949F27CC2031F0809198
:10508000370385FF02C086FF36C080913A039091B6
:105090003B030E94B32780915F02909160029C01C4
:1050A0003056211540E2340720F0305E21153041A2
:1050B00008F499270E94742D18C095013327C50163
:1050C0009056811540E2940720F0905E8115904142
:1050D00010F4C90101C0C5010E94742D80915F02C6
:1050E00090916002A816B90611F40E948127F092EF
:1050F0005E02E0925D02DF91CF911F910F91FF90D0
:10510000EF90DF90CF90BF90AF9008950F931F93D3
:10511000CF93DF930CE113E0C7EAD1E0CE010E9408
:105120003131F80181938F012196CB3CF1E0DF070B
:10513000A9F7C0E0D0E0FE01EF5BFA4F85919491B2
:10514000009711F0FC0109952896C835D10599F70B
:10515000DF91CF911F910F9108950F931F93CF93DC
:10516000DF930CE113E0C7EAD1E0CE010E943131B8
:10517000F80161918F01681719F0CE010E943F314B
:105180002196CB3CF1E0DF0781F7DF91CF911F91B2
:105190000F910895ECE1F3E0128E138E8FEA90E008
:1051A0009183808385E0848F28E833E133832283F1
:1051B00022E330E0378B268B28EC30E0318F208FD4
:1051C000158E2AE030E0378F268F20E530E031A3BE
:1051D00020A382A30E94AD280C948628CF93DF934E
:1051E000C3E9D2E060E0CE010E943F312196C115B3
:1051F00084E0D807B9F7DF91CF910895462F209129
:105200003A0230913B02232B91F47E3F39F46E3FFA
:1052100071F480913802909139020895843038F405
:10522000743028F46C3018F4672F0C94E42D80E06F
:1052300090E008959F92AF92BF92CF92DF92EF924B
:10524000FF920F931F93CF93DF93CDB7DEB76E9787
:105250000FB6F894DEBF0FBECDBFC0903602D0901F
:10526000370281E090E0909337028093360200E0AD
:1052700010E0C80160E670E00E9484315C01912C6E
:10528000E12CF12CF701EE0FFF1FEA0DFB1DE55499
:10529000FC4F259134914E2D692D802F0E94A72D12
:1052A0008FEFE81AF80AECE0EE16F10459F7F8E18E
:1052B000AF0EB11C939484E09812E2CF0F5F1F4FA2
:1052C00004301105B1F60E94CA281A8219821C8284
:1052D0001B821E821D8218861F8288EC90E09A87AE
:1052E00089870BEC11E04AE050E0B801CE0101964D
:1052F0000E946331065F1F4F033FE1E01E0799F7ED
:105300007E01FBE0EF0EF11C8AE0F70111928A9515
:10531000E9F74AE050E0B801C7010E946331065F37
:105320001F4F0334F2E01F07A1F77E0185E1E80E6D
:10533000F11C8AE0F70111928A95E9F78FEF9FEF50
:105340009A8F898F87E08E8F4AE050E0B801C701BD
:105350000E946331065F1F4F0339F2E01F07A1F778
:10536000D0923702C09236026E960FB6F894DEBF26
:105370000FBECDBFDF91CF911F910F91FF90EF90A6
:10538000DF90CF90BF90AF909F900895843088F4C5
:105390009B0190E06AE070E00E948431BC0165539B
:1053A0007E4F4AE050E0C9010E94213180E090E048
:1053B00008958FEF9FEF0895BF92CF92DF92EF9203
:1053C000FF920F931F93CF93DF93EC012881222349
:1053D00009F495C0213009F03FC08981813039F44A
:1053E0008E010E5F1F4F8A810E94511C08C08230BF
:1053F00041F48E010E5F1F4F8A810E94061CE80156
:105400007CC0833039F48E010E5F1F4F8A810E9469
:10541000DC1BF5CF843011F021966FC02A812296D3
:1054200080E090E030E0205331092A30310548F423
:105430006AE070E00E948431820F931F21962881D8
:10544000F1CF009709F459C0EFE9FFE03197F1F788
:1054500000C000000197F5CFE22FF0E0ED53FA4FC6
:10546000B490822F86958695869590E0FC01ED5448
:10547000FA4FE4902770F12C022E02C0F594E794C5
:105480000A94E2F7F1E0EF22FF24FC01ED55FA4F18
:10549000C490D12C022E02C0D594C7940A94E2F78E
:1054A00031E0C322DD24FC01ED56FA4F049110E0F7
:1054B00002C0159507952A95E2F701701127E114AE
:1054C000F10419F081EE0E94061CC114D10419F0F8
:1054D00086EE0E94061C8B2D0E94511CCD2819F0CF
:1054E00086EE0E94DC1BEF2819F081EE0E94DC1B87
:1054F000012B19F08CE20E94511C219667CFDF919D
:10550000CF911F910F91FF90EF90DF90CF90BF90C0
:1055100008951F93CF93DF9300D000D01F92CDB793
:10552000DEB749835A8389819A81662359F0222301
:1055300049F00E94C91A182F682F89819A810E9408
:10554000361B03C00E94051B182F69817A81812FA9
:105550000F900F900F900F900F90DF91CF911F91B0
:105560000C94FE28FC01262F86819781009739F440
:10557000408151816281738184810C94892A0895CC
:105580002F923F924F925F926F927F928F929F9253
:10559000AF92BF92CF92DF92EF92FF920F931F9341
:1055A000CF93DF93CDB7DEB76A970FB6F894DEBF1F
:1055B0000FBECDBF942F498B252F5A8B6B8B7C8BC5
:1055C0008D8B4C895D89622F892F0E942426811141
:1055D00009C08091710190917201019690937201BE
:1055E000809371018B898111109243038E01075FB3
:1055F0001F4F88E0D8011D928A95E9F785E0FE01EA
:105600007196D80101900D928A95E1F780917D0104
:1056100082FD28C080911E0390911F03892B11F1F8
:105620000E944B1A20911C0230911D02821B930B89
:1056300020911E0330911F038217930740F0809141
:105640001E0282FB992790F981E0892701C080E042
:1056500080FF03C082E00E94DB220E942B23811185
:105660000E94A1224C855D856A8589850E94242639
:105670008111EAC161E0C8010E94B22A6C01873F32
:10568000BCE59B0739F48B858823A1F081E08093EA
:105690001301DAC1883FECE59E0731F48B8588233E
:1056A00049F00E94BF26D0C1893F9C4519F48B85E3
:1056B000811112C005EC12E0912CA12CB12C2224F6
:1056C0002394312C55245394AE014F5F5F4F5F8B71
:1056D0004E8BAEEF4A2E51C0809113018823B1F258
:1056E000E0CFC616D70609F097019F5F7901292FF1
:1056F00030E0F901EE0FFF1FE40FF51F60817181AB
:105700006115710571F7BFEFEB16FB0609F447C190
:10571000F8016481611139C020911301822F8170D9
:105720008B84D80115963C91159716962C91169757
:10573000882009F4D3C0882309F4D0C060903203D4
:1057400070903303332321F1910102C0220F331FE4
:105750009A95E2F721503109F801868190E02817E7
:10576000390751F19828BFEFAB1ABB0A095F1F4FE9
:10577000E8E0AE16B10409F414C1D8014D915C9172
:10578000EE24EA94FE2C90E0B2CF20E030E0C6CFC9
:10579000A10101C0440FEA94EAF7242B16962C933A
:1057A00020916102309162022615370568F67092E9
:1057B000620260926102C8CF809107039091080352
:1057C000009749F00E94301A6816790620F4D80133
:1057D00014965C92C7CF20910503B0910603B88F51
:1057E000A0E0B0E0F88D2F1709F465C0E22EF12C8F
:1057F000F701EE0FFF1FE350FD4F0190F081E02D08
:10580000CF0167E070E00E9484318B539D4FDC0133
:105810000D90BC91A02DBA8FA98F30E080E090E070
:10582000A92FB0E0AA0FBB1F498D5A8DA40FB51F39
:105830006D917C9161157105B9F0D8016D907C90E6
:1058400080E0A82FB0E0AA0FBB1FA60DB71D4D9199
:105850005C914115510531F06417750709F431E089
:105860008F5FEFCF9F5FDCCF3323F1F0891708F410
:10587000E4C0CF0167E070E00E948431DC01AB53EB
:10588000BD4F109799F0FD015482A017B10709F49C
:1058900069CF80910503281309C0C7010196837061
:1058A00099278093050302C0A0E0B0E097012F5F25
:1058B0003F4F237097CFA017B10709F453CF30E0C3
:1058C000F901EE0FFF1FE350FD4FB182A0822F5F61
:1058D0003F4F237033272093060344CF311114C068
:1058E000A10102C0440F551F9A95E2F7415051099A
:1058F00030E04217530709F042C0662309F440C064
:10590000C5010E9433263BC0822F90E09C012150AC
:105910003109282339230E2C02C0959587950A94C6
:10592000E2F7232B51F580FF28C0D80112968D9104
:105930009C911397892BE9F0EE89FF8948E0119239
:105940004A95E9F749824A820E944B1A8160582F92
:105950009D838C83D80112968C91129713969C91FB
:105960008F83988729813A814B816D817E810E9446
:10597000D41EF801158281E003C0817001C080E06F
:10598000910101C0220FEA94EAF72095D8011696FA
:105990009C911697292316962C93882EE3CE812C62
:1059A000E1CE8B858823A9F1992099F10E944B1AA9
:1059B000909308038093070380916402883008F075
:1059C0004DC091E0980F9093640298E0FE013996E3
:1059D000DE01119601900D929A95E1F790E06CE04E
:1059E00070E00E9484318B599D4F28E0FE01319672
:1059F000DC0101900D922A95E1F72FEF3FEFDC01DA
:105A000019963C932E9318971B96DC92CE921A9778
:105A100025C09091050380910603981719F00E9404
:105A2000CD2608C00E945E2610920803109207033C
:105A30000E94AE26992041F011C00115110509F40C
:105A400033CFF80154828ECE29853A854B855C850B
:105A50006D857E858F8598890E94D41E6A960FB6C3
:105A6000F894DEBF0FBECDBFDF91CF911F910F9194
:105A7000FF90EF90DF90CF90BF90AF909F908F906E
:105A80007F906F905F904F903F902F9008959C0172
:105A90003A9521153F4130F5BC0166277270AC0183
:105AA000442754709C012227387094FF0FC090FF48
:105AB00002C080E101C080E0672B09F08062452BC5
:105AC00009F08064232B79F080680895892F817014
:105AD000672B09F08260452B09F08460232B19F0B5
